:040000003DEF17F0C9
:1000080000C01EF001C01DF002C01CF003C01BF0B0
:1000180004C01AF005C019F008C018F009C017F09C
:100028000AC016F00BC015F0E1CF27F0E2CF28F098
:10003800E9CF25F0EACF26F0F3CF23F0F4CF24F070
:10004800F5CF22F0F8CF1FF0F7CF20F0F6CF21F050
:100058001BEC15F0F2A03CD081BC02D0D88001D0B6
:10006800D89030B003D002E2309001D0308030B068
:1000780002D0899001D089803F0E2A14016E01C0F8
:1000880003F00336039003360390026A81B8022A0C
:1000980002C001F001360190006A81BA002A0150BD
:1000A800001203500012320E0024F66E3B0EF76E5B
:1000B800000EF722000EF86E000EF8220900F5CFA8
:1000C8002AF0C00E2A14006E00500001B313F290FB
:1000D800A1A206D00001B705006E00C0B7F0A1923A
:1000E80022C0F5FF1FC0F8FF20C0F7FF21C0F6FFB0
:1000F80023C0F3FF24C0F4FF1EC000F01DC001F0B0
:100108001CC002F01BC003F01AC004F019C005F0AF
:1001180018C008F017C009F016C00AF015C00BF097
:1001280025C0E9FF26C0EAFF27C0E1FF28C0E2FF9B
:020138001100B4
:10013A000B6A0A6A096A00500402F4CF09F0F3CF85
:10014A0008F001500502F4CF0BF0F3CF0AF000508B
:10015A000502F3500926F4500A22E86A0B220150DC
:10016A000402F3500926F4500A22E86A0B2208C056
:10017A0000F009C001F00AC002F00BC003F012003F
:10018A001E0E6B6E100E01011B6F040E1C6F1BC13D
:10019A00E1FF1CC1E2FFE69E1BC1E1FF1CC1E2FFB9
:1001AA00E69C040E1B25E16E000E1C21E26EE68C15
:1001BA00180E0001BB6F040EBC6FBBC0E1FFBCC0D0
:1001CA00E2FFE69EBBC0E1FFBCC0E2FFE69C040E74
:1001DA00BB25E16E000EBC21E26EE68C020E010127
:1001EA001B25E16E000E1C21E26EBEC0E6FFBFC0F9
:1001FA00E6FF010E1B25E16E000E1C21E26E400E89
:10020A00E66E1BC1E9FF1CC1EAFFEECF00F01BC17D
:10021A00E1FF1CC1E2FF400E0014E66E1BC1E9FFBC
:10022A001CC1EAFFEECF00F01BC1E1FF1CC1E2FFD7
:10023A00880E0010E66E1BC1C6F01CC1C7F0040E82
:0A024A001B19006E00C01BF112002A
:100254000401286B296B4AD000019B8F040128817B
:1002640001011351010A02E10401288354D0000161
:100274009B8F51D000019B8F040124BF16D024C44E
:1002840003F00F0E031603C000F0000E016E0036DB
:1002940000900136190E0024E96E010E0120EA6E69
:1002A400EECF04F0EECF05F015D024C403F00F0E0A
:1002B400031603C000F0000E016E003600900136F4
:1002C400B90E0024E96E000E0120EA6EEECF04F0B0
:1002D400EECF05F004C0E9FF05C0EAFFEECF01F060
:1002E40001A403D00401010E286F15D020C401F02D
:1002F4001F0E01160150000AAFE020C401F01F0ECA
:1003040001160150010AB3E020C401F01F0E0116CA
:100314000150020AAFE000019BAF07D0280E986F8E
:0C032400040E996F9B81020E9C6F12006A
:1003300020C401F01F0E01160150010A01E094D003
:1003400004012451000A01E08FD02151060A42E144
:1003500037D03450010A18E1E10E006E3A0E016EFA
:10036000000E026E120E0026000E0122022200C0B4
:1003700098F001C099F002C09AF0090E00019C6F3C
:10038000000E9D6FC00E9B6F25D03450010A13E103
:100390000001B60E006E390E016E000E026E00C036
:1003A00098F001C099F002C09AF0790E9C6F000E8F
:1003B0009D6FC00E9B6F0ED00001800E9B6F0AD008
:1003C00004012351210AC5E02351220ADEE0235112
:1003D000230AF2E020C401F0600E0116050E006E43
:1003E000005004E00132019EFF0FFBD70150010ACB
:1003F00001E03AD026D038D037D0BD0E0001986F3A
:10040000000E996F010E9C6F000E9D6FC10E9B6FC9
:100410002BD00001800E9B6F23C4BDF025D00001BE
:10042000110E986F010E996F010E9C6F000E9D6F5B
:10043000810E9B6F19D00001800E9B6F22C411F1B9
:1004400013D004012151010AD6E02151090AD4E058
:100450002151020AD2E021510A0ADBE02151030AAC
:0A046000DEE021510B0AE7E0120074
:10046A0004012251010A13E120C401F01F0E0116F2
:10047A000150000A0CE100019B8F04012151030A7B
:10048A0004E1010E0101136F02D00101136B040193
:10049A002251000AD8A48DD020C401F01F0E0116E3
:1004AA000150020AD8A485D024C401F00F0E011607
:1004BA000150000AD8B47DD000019B8F040124BFEB
:1004CA0016D024C403F00F0E031603C000F0000E6A
:1004DA00016E003600900136190E0024E96E010EF5
:1004EA000120EA6EEECF04F0EECF05F015D024C459
:1004FA0003F00F0E031603C000F0000E016E003663
:10050A0000900136B90E0024E96E000E0120EA6E51
:10051A00EECF04F0EECF05F02151030A07E104C043
:10052A00E1FF05C0E2FF840EE66E43D024C400F06A
:10053A000F0E00166A0E026E0F0E036E0050022690
:10054A00D8B0032A02C0E9FF03C0EAFFFE0EEE1488
:10055A00006EEECF01F0FF0E011602C0E1FF03C0EC
:10056A00E2FF00C0E6FF01C0E6FF24AF11D004C0DD
:10057A00E1FF05C0E2FFE66A040E0418006E00C03F
:10058A0004F004C0E1FF05C0E2FF400EE66E11D0A0
:10059A0004C0E1FF05C0E2FF880EE66E040E0418EF
:1005AA00006E00C004F004C0E1FF05C0E2FFC80EFF
:0405BA00E66E1200D7
:1005BE00000E00019D5D02E1080E9C5D11E29CC0E3
:1005CE0003F09DC004F001011251000A03E1010E77
:1005DE00126F05D01251010A02E1020E126F04D001
:1005EE00080E036E000E046EB9C0E1FFBAC0E2FF42
:1005FE00E692B9C0E1FFBAC0E2FFE690B9C0E9FFEA
:10060E00BAC0EAFFEECF00F0B9C0E1FFBAC0E2FF18
:10061E0004500010E66E010E0001B925E16E000EC9
:10062E00BA21E26E03C0E6FF03509C5D006E0450DB
:10063E009D59016E00C09CF001C09DF0280E010175
:10064E000E6F040E0F6F00019BB131D003500410DA
:10065E002DE098C0F6FF99C0F7FF9AC0F8FF090089
:10066E00F5CF00F00EC1E1FF0FC1E2FF00C0E6FFC3
:10067E0001010E4B0F2B010E00019825006E000E8E
:10068E009921016E000E9A21026E00C098F001C0F1
:10069E0099F002C09AF0010E035C006E000E045831
:1006AE00016E00C003F001C004F0D0D726D0035075
:1006BE00041023E098C0E9FF99C0EAFF0EC1E1FFE4
:1006CE000FC1E2FFEECFE6FF01010E4B0F2B010E25
:1006DE0000019825006E000E9921016E00C098F061
:1006EE0001C099F0010E035C006E000E0458016EFD
:0C06FE0000C003F001C004F0DAD71200C5
:10070A0004012051800AD8A47AD0C00E00019B6F40
:10071A006BD00001AC0E006E3B0E016E000E026E35
:10072A0000C098F001C099F002C09AF0120E9C6FB6
:10073A00000E9D6F64D00001030E006E000E016E64
:10074A0022C404F0000E056EF3DCB00E0024E96E3C
:10075A00000E0120EA6EEECF98F0EECF99F0EECFC0
:10076A009AF0020E9825F66E000E9921F76E000E89
:10077A009A21F86E0900F5CF00F00900F5CF01F0D3
:10078A0000C09CF001C09DF03AD004012251010141
:10079A00185D24E3030E006E000E016E22C404F0FD
:1007AA00000E056EC5DCA70E0024E96E000E0120BE
:1007BA00EA6EEECF98F0EECF99F0EECF9AF098C0AD
:1007CA00F6FF99C0F7FF9AC0F8FF0900F5CF00F0CD
:1007DA0000C09CF0000E00019D6F02D000019B6BCF
:1007EA000ED000019B6B0BD004012351010A91E04A
:1007FA002351020AA0E02351030AC7E0F2D71200EC
:10080A0000019B8F6B6AC56B22C434F03450000A16
:10081A0004E1100E0101106F04D00101200E106FC7
:04082A00AFDC12002D
:10082E00609800019BBF49D0A0AF28D0020EB86FD0
:10083E00010EB925E16E000EBA21E26EE66AB9C06C
:10084E00E1FFBAC0E2FFC80EE66E010EB425E16EFE
:10085E00000EB521E26E080EE66E020EB425E16EB4
:10086E00000EB521E26E280EE66E040EE66EB4C0E2
:10087E00E1FFB5C0E2FFC80EE66E1ED0010EB42534
:10088E00E16E000EB521E26E080EE66E020EB42584
:10089E00E16E000EB521E26E200EE66E040EE66EDF
:1008AE00B4C0E1FFB5C0E2FF8C0EE66EB9C0E1FF49
:1008BE00BAC0E2FF840EE66E83D0A0BF81D00401E1
:1008CE0020AF56D000019D510401275D04E10001C7
:1008DE009C510401265D04E226C49CF027C49DF0C1
:1008EE0067DE010E0001B86F010EB425E16E000E39
:1008FE00B521E26E080EE66E020EB425E16E000E14
:10090E00B521E26E200EE66E040EE66EB4C0E1FF77
:10091E00B5C0E2FF800EE66EB66B010E2E24E16EC0
:10092E00000E2F20E26E080EE66E020E2E24E16EF1
:10093E00000E2F20E26E200EE66E040EE66E2EC026
:10094E00E1FF2FC0E2FF840EE66E010EB66F020EBF
:10095E00B925E16E000EBA21E26E280EE66E040E87
:10096E00E66EB9C0E1FFBAC0E2FFC80EE66E28D04F
:10097E000001020EB86F010EB925E16E000EBA210C
:10098E00E26EE66AB9C0E1FFBAC0E2FFC80EE66EDB
:10099E00010EB425E16E000EB521E26E080EE66E74
:1009AE00020EB425E16E000EB521E26E280EE66E43
:1009BE00040EE66EB4C0E1FFB5C0E2FFC80EE66EEF
:0209CE00120015
:0809D0002D5201E0ADDC120024
:1009D80020C401F0600E0116050E006E005004E000
:1009E8000132019EFF0FFBD70150000A01E05FD0E2
:1009F8003BD000019B8F080E0101106F58D081DE9B
:100A080056D0FFDE54D0340E0001986F000E996F57
:100A18009B81010E9C6F9B8F4AD018DC48D021DD4A
:100A280046D0C50E006E000E016E0401245100264A
:100A3800D8B0012A00C098F001C099F000019B814C
:100A4800010E9C6F9B8F33D000019B8FC50EE16E0A
:100A5800000EE26E04012451E126D8B0E22A22C435
:100A6800E6FF25D024D023D004012151050AC1E096
:100A78002151060AC4E02151090AC3E02151080A9C
:100A8800C2E02151000AC9E02151010AC8E0215100
:100A9800030AC5E021510A0AC4E021510B0AD4E037
:100AA8002151070ADFE021510C0ADDE0DCD71200F2
:100AB800E10E0001B06F3A0EB16F000EB26F890EF1
:100AC800A76F410EA86F000EA96F850EAA6F3B0E87
:100AD800AB6F000EAC6F0A0EAD6F3B0EAE6F000E23
:040AE800AF6F1200DA
:0E0AEC00160E626E9F0E666E3B0E646E12005A
:100AFA000001B86BB9C0E1FFBAC0E2FFE66A040EB2
:100B0A00B919E16EBAC0E2FF000EE21AE66AA0AFB6
:060B1A0001D0A09F1200B3
:100B2000010E2E24E96E000E2F20EA6EEECF00F0AB
:100B300000C002F0000E0001A25D02E10250A15DC2
:100B400003E2A1C002F00AD00250A15D006E000EC7
:100B5000A259016E00C0A1F001C0A2F0036A0250C8
:100B6000035C1CE2280EE96E040EEA6E0350E926CF
:100B7000D8B0EA2AEECF00F09EC0E1FF9FC0E2FFAE
:100B800000C0E6FF010E9E25006E000E9F21016E43
:100B900000C09EF001C09FF0032AE1D7000E006E56
:100BA000A251005C02E1A151000828E2010EB42527
:100BB000E16E000EB521E26E080EE66E020EB4255F
:100BC000E16E000EB521E26E280EE66E040EE66EB2
:100BD0002EC0E9FF2FC0EAFFEECF00F000BC07D027
:100BE000B4C0E1FFB5C0E2FFC80EE66E06D0B4C0E7
:100BF000E1FFB5C0E2FF880EE66E19D0010EB42504
:100C0000E16E000EB521E26E080EE66E020EB4250E
:100C1000E16E000EB521E26E200EE66E040EE66E69
:100C2000B4C0E1FFB5C0E2FF840EE66EA09F1200E3
:100C30000001B851020A02E173DF1ED05EDFB65137
:100C4000000A19E1010EB425E16E000EB521E26E35
:100C5000080EE66E020EB425E16E000EB521E26EBE
:100C6000200EE66E040EE66EB4C0E1FFB5C0E2FFF2
:0A0C70008C0EE66E01D0B66B120088
:100C7A00B9C0E9FFBAC0EAFFEECF00F000AE05D076
:100C8A00B9C0E1FFBAC0E2FFE66A0101126B0001D6
:100C9A00B86B9C6B9D6B9B6B9ADE95DEC3DD120075
:100CAA006AA019D02EC0E9FF2FC0EAFFEECF01F0EB
:100CBA000150800A0FE1B9C0E9FFBAC0EAFFEECFDE
:100CCA0001F00150840A06E12EC0E1FF2FC0E2FFC5
:0C0CDA008C0EE66E6A90DF0E65161200AC
:040CE600A4941200C0
:100CEA006092649465A403D0FB0E6516FBD71200CC
:0A0CFA006484EF0E6516608212009C
:100D0400D9DEC66BC76B01011D6B1E6B676A656A12
:100D1400EBDE608C636A6B6A609C0001C36BC46B1E
:100D2400000EC45D02E1080EC35D17E2C3C000F00B
:100D3400C4C001F000360090013600360090013640
:100D4400000E0024E16E040E0120E26EE66AE66AFB
:100D5400E66AE66AC34BC42BE3D7160E6A6E65A631
:100D640003D0F70E6516FBD79B6BA06BA16BA26B30
:100D74006098080EB96F040EBA6F346A0101106BE3
:020D840012005B
:100D8600040E0001B919006E00C0B9F0010110513E
:100D9600080A0AE122C463FF6350000803E2100E4A
:100DA600106F02D0040E106F0001B851010A3DE128
:100DB600020EB925E16E000EBA21E26E280EE66E2D
:100DC600040EE66EDFEC02F001011251020A07E1A1
:100DD600B9C0E1FFBAC0E2FF840EE66E25D0040E6C
:100DE6000001B919006E00C0B9F0B9C0E9FFBAC078
:100DF600EAFFEECF00F000BC0CD0040EB919006E6D
:100E060000C0B9F0B9C0E1FFBAC0E2FFC80EE66E95
:100E16000BD0040EB919006E00C0B9F0B9C0E1FFDD
:0E0E2600BAC0E2FF880EE66E01D064DE120054
:100E3400000E0101551902E1000E541902E1016A84
:100E44000AD054C1E9FF55C1EAFFEECF00F0000E0D
:0C0E540000BE010E016E01C000F0120093
:100E600001015551000A12E054C100F0000E016E5C
:100E7000003600900136B90E0024E96E000E012004
:100E8000EA6EEECF04F0EECF05F011D054C100F0C1
:100E9000000E016E003600900136190E0024E96E36
:100EA000010E0120EA6EEECF04F0EECF05F0020E47
:100EB0000424E16E000E0520E26E56C1E6FF57C124
:100EC000E6FF010E0424E16E000E0520E26E58C11B
:100ED000E6FF04C0E9FF05C0EAFFEECF00F004C062
:100EE000E1FF05C0E2FF400E0014E66E04C0E9FF1A
:100EF00005C0EAFFEECF00F004C0E1FF05C0E2FF4D
:100F0000880E0010E66E5551000A1BE054C100F037
:100F1000000E016E003600900136B90E0024026EFC
:100F2000000E0120036E02C0E9FF03C0EAFF040EB9
:100F3000EE18006E02C0E1FF03C0E2FF00C0E6FF52
:100F40001AD054C100F0000E016E00360090013638
:100F5000190E0024026E010E0120036E02C0E9FF8B
:100F600003C0EAFF040EEE18006E02C0E1FF03C0EA
:100F7000E2FF00C0E6FF04C000F005C001F012006F
:100F800001011051000A0AE1606A646AAFDD60B6CF
:100F900002D06086FCD70101010E106F1051010ACA
:100FA00008E160BA06D0656A646A64806488020EEB
:100FB000106F65A405D064A403D0FB0E651695DE02
:100FC00060A202D090DED7D065A018D064A016D061
:100FD00099DE040E106F200E0401026F040E036FE1
:100FE000080E016F000E0015006E00C000F48C0E9C
:100FF0000011006E00C000F4FE0E651665A805D055
:1010000064A803D07ADEEF0E651665AC04D064AC3C
:1010100002D0BF0E651665AA03D064AA01D045DED2
:1010200065A202D064B2676A040E0101105D02E29B
:101030005ADEA1D064A69ED0556B040E555DD8B083
:1010400099D065A693D061CFC2F0F70E6516780EE1
:101050000001C215016E0150000AD8A486D0FD0E11
:10106000C215016E026AFF0E0216000E021802E19E
:10107000000E01186CE17E0EC215016E01C003F076
:101080000332039E03C000F0000E016E0036009094
:101090000136003600900136000E0024026E040E68
:1010A0000120036E02C02EF003C02FF002C0B4F086
:1010B00003C0B5F0040EB419006E00C0B4F002C055
:1010C000E9FF03C0EAFFEECF00F000C001F03C0EE4
:1010D00001160132019E0132019E01500D0A35E1D7
:1010E000020E2E24E96E000E2F20EA6EEECF01F0E4
:1010F000EECF02F00250040A02E1280E011823E1AB
:10110000020E2E24E16E000E2F20E26E200EE66EFF
:10111000040EE66E0101546B080E545D14E2200EBD
:10112000E16E040EE26E5451E126D8B0E22A280E98
:10113000E96E040EEA6E5451E926D8B0EA2AEECFE1
:10114000E6FF542BE9D799DD01D072DD0DD0FD0EFD
:10115000C215016E026AFF0E0216000E021802E1AD
:10116000040E011801E10FDE00D001D003D001010F
:08117000552B63D7B8DD120016
:10117800200E0101105D03E360B201D002D0006AC5
:1011880046D01DC154F11EC155F150DE00523EE15A
:1011980051C154F1010E556F4EC156F14FC157F16F
:1011A80050C158F159DE00C01DF101C01EF1146B89
:1011B800156B166B176B1DC154F11EC155F136DE48
:1011C80000520FE0010E016E0150000A01E1D4DE69
:1011D8000101145115111611171102E0006A17D0F8
:1011E800EAD71DC152F11EC153F1000E1E1902E1CA
:1011F800000E1D1909E0010E5225E96E000E53215B
:10120800EA6EEECF00F003D0006A01D0006A120047
:101218004BC14EF14CC14FF14DC150F1010E0101CE
:06122800516FA6DF120069
:10122E0035B001D021D04B0E0501086F2CC009F549
:10123E000A6B2BC00BF5080E01014B6F050E4C6FA0
:10124E00040E4D6FE2DF005201E1F5D70501096B87
:10125E000B6B080E01014B6F050E4C6F040E4D6F9C
:0A126E00D4DF005201E1F5D71200B1
:10127800C80E056E000E066E05C003F006C004F029
:10128800054A062A48C100F049C101F04AC102F0E6
:10129800010E01014827000E49234A2300C0F6FF2A
:1012A80001C0F7FF02C0F8FF0900F5CF00F003C046
:1012B800E1FF04C0E2FF00C0E6FF03C0E9FF04C08D
:1012C800EAFFEE5201E0D8D7C80E006E000E016E9C
:0212D800120002
:1012DA0048C1E9FF49C1EAFFEE5238E02C6A48C129
:1012EA00E9FF49C1EAFF800EEE5C25E248C1D9FF59
:1012FA0049C1DAFF360EDE24F66E390EF76E000E9D
:10130A00F722000EF86E000EF8220900F5CF00F061
:10131A0000C04AF100520DE001014AAF07D02C800B
:10132A007F0E4A15006E00C02BF002D04AC12BF086
:10133A0001D02B6A06D048C1E9FF49C1EAFFEECFC6
:0E134A004AF170DF0101484B492BC2D7120057
:10135800220E0C6E086A096A0A6A0B6A0C06D8B46F
:101368001FD0D8900B320A320932083203320232C7
:1013780001320032D8A0F2D70C06D8B409D00450F4
:1013880008260550092206500A2207500B22EAD7E0
:10139800045008260550092206500A2207500B223D
:0213A800120031
:1013AA00650E0101455D20E2030E006E000E016E1E
:1013BA00026E036E45C104F0000E056E066E076EDE
:1013CA00C6DF070E0024F66E380E0120F76E000EF7
:1013DA000220F86E0900F5CF00F00900F5CF01F000
:1013EA000900F5CF02F006D06F0E006E430E016EB3
:0613FA00000E026E12005D
:10140000F00E01014515026E02C000F00032009E90
:101410000032009E0032009E0032009EBE0E00246C
:10142000F66E3B0EF76E000EF722000EF86E000E01
:10143000F8220900F5CF00F046C1E1FF47C1E2FF05
:1014400000C0E6FF464B472B0F0E4515006EBE0E43
:101450000024F66E3B0EF76E000EF722000EF86EBB
:10146000000EF8220900F5CF00F046C1E1FF47C1A8
:10147000E2FF00C0E6FF464B472B46C1E1FF47C1F4
:06148000E2FFE66A120023
:1014860045C148F146C149F147C14AF1F2DE00C003
:0A14960048F101C049F11EDF120009
:1014A000870E0101455D20E2030E006E000E016E05
:1014B000026E036E45C104F0000E056E066E076EE7
:1014C0004BDF720E0024F66E360E0120F76E000E12
:1014D0000220F86E0900F5CF00F00900F5CF01F009
:1014E0000900F5CF02F006D0710E006E430E016EBA
:0614F000000E026E120066
:1014F600086A080E0C6E003408360450085ED8B030
:0E15060002D00826D89000360C2EF5D7120021
:1015140035B001D021D04B0E0501086F3EC109F54D
:101524000A6B3FC10BF5080E01014B6F050E4C6FA2
:10153400040E4D6F6FDE005201E1F5D70501096B12
:101544000B6B080E01014B6F050E4C6F040E4D6FB3
:0A15540061DE005201E1F5D712003C
:10155E000101416B030E415D0AE241513F25E16EEF
:10156E00000E4021E26E200EE66E412BF3D7415164
:10157E003F25E16E000E4021E26EE66A41074151C1
:10158E003F25426F000E4021436F0A0E046E3EC18E
:10159E0000F0AADF08C000F0300E002642C1E1FFC5
:1015AE0043C1E2FF00C0E6FF0A0E046E3EC100F02A
:1015BE009BDF00C03EF10050000A01E102D041075E
:0415CE00DED7120052
:1015D200010E01013E25E96E000E3F21EA6EEECFBB
:1015E20000F000A607D06D0E456F400E466F000E4C
:1015F200476F48DF010E01013E25E96E000E3F21D3
:10160200EA6EEECF00F000A207D0900E456F400EBA
:10161200466F000E476F36DF010E01013E25E96E6F
:10162200000E3F21EA6EEECF00F000A407D09A0E22
:10163200456F400E466F000E476F24DF010E010119
:101642003E25E96E000E3F21EA6EEECF00F000A0CB
:1016520007D0CA0E456F3F0E466F000E476F12DF6E
:02166200120074
:101664003EC145F13F0E0101466F010E476FC6DED4
:0C1674003F0E486F010E496F2EDE120081
:10168000020E01013E25436F000E3F21446FB0D092
:10169000010E3E25E96E000E3F21EA6EEECF00F00E
:1016A00000A01FD03EC1E9FF3FC1EAFFEECF45F1E8
:1016B0007CDE00C040F101C041F102C042F100C037
:1016C000F6FF01C0F7FF02C0F8FF0900F5CF00F0F8
:1016D000005207E040C100F041C101F042C102F0F8
:1016E000A8D03EC1E9FF3FC1EAFFEECF45F1D8DE09
:1016F000A0D03EC1E9FF3FC1EAFFEECF01F00F0EDF
:10170000015C24E23EC1E9FF3FC1EAFFEECF00F0F9
:10171000000E016E026E036E030E046E000E056E67
:10172000066E076E19DEB40E0024F66E3A0E012026
:10173000F76E000E0220F86E0900F5CF00F00900E8
:10174000F5CF01F00900F5CF02F073D0700E006EF6
:10175000430E016E000E026E6CD03EC1E9FF3FC128
:10176000EAFFEECF00F0EECF01F0FF0E0014026EA4
:1017700001500F0B036E020E035C02E1A00E025C2F
:1017800029E23EC1E9FF3FC1EAFFEECF00F0EECF14
:1017900001F0FF0E00160F0E0116000E026E036E12
:1017A000030E046E000E056E066E076ED5DD920EFA
:1017B0000024F66E2E0E0120F76E000E0220F86E49
:1017C0000900F5CF00F00900F5CF01F00900F5CFD1
:1017D00002F02FD0730E006E430E016E000E026EEB
:1017E00028D0720E006E430E016E000E026E21D0E4
:1017F00043C1E9FF44C1EAFF0F0EEE14016E015030
:10180000000AD8B445D743C1E9FF44C1EAFF0F0E2F
:10181000EE14016E0150010AD8B46BD743C1E9FF41
:1018200044C1EAFF0F0EEE14016E0150020A95E06A
:04183000D8D71200F3
:0A183400D08EA584A384F28E12006A
:10183E0031C13EF110DF01013E6B2C0E3F6F63DEB6
:10184E00020E01013225E96E000E3321EA6E0F0EF3
:10185E00EE143E6F3E373E913E373E913E373E91FF
:10186E003E373E91010E3225E96E000E3321EA6EAF
:10187E00EECF00F00F0E001600503E13ECDE32C11C
:10188E00E9FF33C1EAFFEECF3EF1E5DE01013E6B2B
:10189E002C0E3F6F38DE020E010132253C6F000E1A
:1018AE0033213D6FBDD032C13EF133C13FF18ADEEF
:1018BE0032C13EF133C13FF1DCDE00C045F101C063
:1018CE0046F102C047F1D8DDC2D0010E010132252A
:1018DE00006E000E3321016E00C03AF101C03BF1E3
:1018EE0071D001014A0E456F400E466F000E476FD4
:1018FE00C3DD32C1E9FF33C1EAFFEECF3EF1360E52
:10190E0001013F6F010E406F23DE360E346F010E64
:10191E00356F34C1E9FF35C1EAFFEE50200A03E10D
:10192E00344B352BF6D734C148F135C149F1CEDCF5
:10193E00860E0101456F400E466F000E476F9CDD0F
:10194E0061D0EA0E0101456F3F0E466F000E476FE4
:10195E0093DD32C1E9FF33C1EAFFEECF3EF1360E21
:10196E0001013F6F010E406FF3DD360E346F010E35
:10197E00356F34C1E9FF35C1EAFFEE50200A03E1AD
:10198E00344B352BF6D734C148F135C149F19EDCC5
:10199E00850E0101456F410E466F000E476F6CDDDF
:1019AE0031D0F00E0101456F3F0E466F000E476FAE
:1019BE0063DD32C1E9FF33C1EAFFEECF3EF14BDE0C
:1019CE0021D020D03AC1E9FF3BC1EAFF0F0EEE1441
:1019DE00016E01500F0AD8B484D73AC1E9FF3BC15A
:1019EE00EAFF0F0EEE14016E01500E0AAAE03AC184
:1019FE00E9FF3BC1EAFF0F0EEE14016E0150000A23
:101A0E00D0E0DFD724D032C13EF133C13FF131DE19
:101A1E0000C045F101C046F102C047F12DDD17D0DF
:101A2E003CC1E9FF3DC1EAFF0F0EEE14016E0150FD
:101A3E00000AD8B438D73CC1E9FF3DC1EAFF0F0E0A
:101A4E00EE14016E01500F0AD8B43FD7DCD7120046
:101A5E00AC0E006E3B0E016E000E026E0E0E0024DA
:101A6E00F66E000E0120F76E000E0220F86E0900D1
:101A7E00F5CF03F003C004F00F0E0024F66E000E37
:101A8E000120F76E000E0220F86E0900F5CF01F06E
:101A9E000150035C12E2AC0E006E3B0E016E000EA6
:101AAE00026E0F0E0024F66E000E0120F76E000E71
:101ABE000220F86E0900F5CF04F0AC0E006E3B0E5E
:101ACE00016E000E026E100E0024F66E000E012046
:101ADE00F76E000E0220F86E0900F5CF01F00150EE
:101AEE00045C12E2AC0E006E3B0E016E000E026E36
:101AFE00100E0024F66E000E0120F76E000E02206E
:0E1B0E00F86E0900F5CF04F004C000F01200DC
:101B1C000101346B356B366B020E3125F66E000EFF
:101B2C003221F76E000E3321F86E0900F5CF05F067
:101B3C00030E3125F66E000E3221F76E000E3321A6
:101B4C00F86E0900F5CF00F000C003F0000E046E33
:101B5C0003C001F0006A05500024066E000E01203F
:101B6C00076E31C108F032C109F033C10AF0010E21
:101B7C000824F66E000E0920F76E000E0A20F86E8F
:101B8C000900F5CF01F00150020A1BE1060E0824F2
:101B9C00F66E000E0920F76E000E0A20F86E090092
:101BAC00F5CF01F00150345D0CE2060E0824F66E00
:101BBC00000E0920F76E000E0A20F86E0900F5CF12
:101BCC0034F1010E0824F66E000E0920F76E000E9B
:101BDC000A20F86E0900F5CF01F00150040A1BE150
:101BEC00080E0824F66E000E0920F76E000E0A206F
:101BFC00F86E0900F5CF01F00150345D0CE2080ECF
:101C0C000824F66E000E0920F76E000E0A20F86EFE
:101C1C000900F5CF34F108C0F6FF09C0F7FF0AC080
:101C2C00F8FF0900F5CF00F000503525016E000ECD
:101C3C003621026E01C035F102C036F10750025C4C
:101C4C0002E10650015C01E30FD008C0F6FF09C0A9
:101C5C00F7FF0AC0F8FF0900F5CF00F00050082686
:0E1C6C00000E09220A2283D734C100F01200B4
:101C7A0038D0720E006E3C0E016E000E026E5CD001
:101C8A004E0E006E3B0E016E000E026E55D06A0EAD
:101C9A00006E3B0E016E000E026E4ED0DF0E006E1D
:101CAA003B0E016E000E026E47D0530E006E3E0EC2
:101CBA00016E000E026E40D0640E006E3C0E016E84
:101CCA00000E026E39D0990E006E3B0E016E000EA8
:101CDA00026E32D06C0E006E430E016E000E026E62
:101CEA002BD00F0E3314016E0150000AC2E00F0E02
:101CFA003314016E0150020AC3E00F0E3314016E51
:101D0A000150010AC4E00F0E3314016E01500C0A8F
:101D1A00C5E00F0E3314016E01500D0AC6E00F0E16
:101D2A003314016E01500E0AC7E00F0E3314016E10
:0A1D3A0001500F0AC8E0CED71200D6
:101D4400020E01013E6F4A0E3F6F8AEC0AF0010158
:101D54002F072F5306E03E6B510E3F6F8AEC0AF0BB
:101D6400F6D7010E01013E6F4D0E3F6F8AEC0AF06B
:021D740012005B
:101D760073DE00C02FF1E10E0101316F3A0E326FB2
:101D8600000E336FC8DE00C030F12F51005C03E255
:0C1D96002FC100F002D030C100F012009C
:101DA20001011051000A0BE1606A646A76EC05F0E9
:101DB20040DD60B602D06086FCD7010E106F1200C3
:101DC200020E01013E6F4A0E3F6F8AEC0AF0030ECB
:0E1DD20001013E6F4D0E3F6F8AEC0AF01200C9
:0A1DE000606A646A0101106B1200D2
:101DEA0001013E6B280E3F6F8AEC0AF001013E6B3F
:0A1DFA004A0E3F6F8AEC0AF0120057
:101E04002FC131F1030E006E000E016E2FC104F0DC
:101E1400000E056E9DEC00F0380E00240101326FB7
:0A1E2400000E0120336F09DD1200EB
:041E2E00D8DF1200E7
:101E3200030E01012F6F85DF37C03EF112DC8C0EDD
:101E42000101456F420E466F000E476F43EC0AF0E8
:101E52000F0E33140101456F2B0E466F010E476FB3
:101E620000EC0AF02C0E486F010E496F6DEC09F080
:101E72007C0E0101456F400E466F000E476F43EC2A
:101E82000AF00F0E331401012F6FF6DE00C045F188
:101E920001C046F102C047F143EC0AF0010E010114
:0C1EA2003E6F4A0E3F6F8AEC0AF01200FF
:101EAE002BC1E9FF2CC1EAFFEECF00F0EECF01F01F
:101EBE00FF0E001401012D6F01500F0B2E6F2D4BD5
:101ECE002E2B020E2E5D02E1A00E2D5D30E2030ED2
:101EDE00006E000E016E026E036E2DC104F02EC157
:101EEE0005F0000E066E076EACEC09F0920E0024A3
:101EFE00F66E2E0E0120F76E000E0220F86E09000F
:101F0E00F5CF00F00900F5CF01F00900F5CF02F092
:101F1E0000C0F6FF01C0F7FF02C0F8FF0900F5CFC1
:101F2E0001F00150000A03E12D4B2E2BCAD7020EF1
:101F3E002E5D02E1A00E2D5D46E32D6B2E6B2BC1A7
:101F4E00E9FF2CC1EAFFEECF00F0EECF01F0FF0E5D
:101F5E000014026E01500F0B036E03502E5D02E152
:101F6E0002502D5D30E2030E006E000E016E026E09
:101F7E00036E2DC104F02EC105F0000E066E076E25
:101F8E00ACEC09F0920E0024F66E2E0E0120F76EC8
:101F9E00000E0220F86E0900F5CF00F00900F5CF13
:101FAE0001F00900F5CF02F000C0F6FF01C0F7FF07
:101FBE0002C0F8FF0900F5CF01F00150000A03E15D
:101FCE002D4B2E2BBCD72DC100F02EC101F01200CF
:101FDE002BC129F0020E01012F6FADDE01012B5135
:101FEE00000A09E12F0E456F3A0E466F000E476F3D
:101FFE0043EC0AF009D0730E0101456F3A0E466F9D
:10200E00000E476F43EC0AF0030E01012F6F93DEB3
:02201E001200AE
:1020200035B001D023D0430E0501086F2BC009F550
:102030000F0E2C140A6F080E01014B6F050E4C6F2A
:10204000030E4D6F0CEC09F0005201E1F4D70501CD
:10205000096B0A6B080E01014B6F050E4C6F030EE6
:0E2060004D6F0CEC09F0005201E1F4D71200B4
:10206E00A9DE01013E6B4C0E3F6F8AEC0AF01200A6
:10207E007BDE00C018F1010E2D6E2BC1BEF02CC1FF
:10208E00BFF02DC1C0F02EC1C1F082EC06F0010EE2
:0C209E00016E0150010A01E17DDE12001C
:1020AA00020E01013E6F4D0E3F6F8AEC0AF0010EDF
:1020BA0001013E6F4A0E3F6F8AEC0AF001013E6B46
:1020CA004C0E3F6F8AEC0AF001013E6B2A0E3F6FFD
:0620DA008AEC0AF012007E
:1020E00035B001D01FD0530E0501086F2BC009F584
:1020F000080E01014B6F050E4C6F020E4D6F0CEC7C
:1021000009F0005201E1F4D70501096B080E010145
:102110004B6F050E4C6F020E4D6F0CEC09F0005228
:0621200001E1F4D71200FA
:102126002BC1E9FF2CC1EAFFEECF00F0EECF01F0A4
:10213600FF0E001401012D6F01500F0B2E6F010EC3
:102146002D5F000E2E5B000E006E2E51005C02E12C
:102156002D51000832E2030E006E000E016E026E73
:10216600036E2DC104F02EC105F0000E066E076E3B
:10217600ACEC09F0920E0024F66E2E0E0120F76EDE
:10218600000E0220F86E0900F5CF00F00900F5CF29
:1021960001F00900F5CF02F000C0F6FF01C0F7FF1D
:1021A60002C0F8FF0900F5CF01F00150000A05E171
:1021B600010E2D5F000E2E5BC6D7000E2E1902E112
:1021C600000E2D194AE1A00E2D6F020E2E6F2BC1A7
:1021D600E9FF2CC1EAFFEECF00F0EECF01F0FF0ED3
:1021E6000014026E01500F0B036E2E51035C02E1C8
:1021F6002D51025C32E2030E006E000E016E026E7D
:10220600036E2DC104F02EC105F0000E066E076E9A
:10221600ACEC09F0920E0024F66E2E0E0120F76E3D
:10222600000E0220F86E0900F5CF00F00900F5CF88
:1022360001F00900F5CF02F000C0F6FF01C0F7FF7C
:1022460002C0F8FF0900F5CF01F00150000A05E1D0
:10225600010E2D5F000E2E5BBAD72DC100F02EC1E8
:0422660001F0120071
:10226A00020E01013E6F4D0E3F6F8AEC0AF001012A
:10227A002B6B36502B5D07E2B3DD2BC12FF1BDDD91
:08228A0001012B2BF6D7120015
:1022920081BC1CD00001B35318E0B190800E006ED7
:1022A200800EB3BF7F0E005C02E1B351000805E26D
:1022B2003650375CD8A0372A04D037500008D8A04F
:1022C2003706B6DD0001B36B00D0E2D70F0E331430
:1022D200016E0150000A08E1F00E3214006E00C0D7
:1022E20032F0040E316E0AD0000E3114006E3250FC
:1022F200F00B016E00C031F001C032F0010E01019D
:102302002B6F6CDE37C031F1310E0101326F000EDE
:08231200336F1FEC0CF0120008
:10231A00010E0101236F160E0001B76FB18081BC57
:10232A00BFD0B353D8B4A8D0B1900101236B030E28
:10233A002F6F03DD80D0800E006E800E0001B3BFC8
:10234A007F0E005C02E1B351000810E20F0E321456
:10235A00006E000E016E004A012A3250001A0F0E5A
:10236A0000163250001A00C032F00FD00F0E32148D
:10237A00006E0006016A000E015A3250001A0F0E52
:10238A0000163250001A00C032F06AD00001800EE6
:10239A00006E800EB3BF7F0E005C02E1B3510008ED
:1023AA0019E2FF0E3114006E32500F0B016E004A13
:1023BA00012A3150001A3250011AFF0E00160F0E70
:1023CA0001163150001A3250011A00C031F001C012
:1023DA0032F01AD0FF0E3114006E32500F0B016E1C
:1023EA00010E005E000E015A3150001A3250011AD5
:1023FA00FF0E00160F0E01163150001A3250011A44
:10240A0000C031F001C032F02BD00001800E006E06
:10241A00800EB3BF7F0E005C02E1B351000806E2F2
:10242A003150010F006E00C031F004D03104006E4B
:10243A0000C031F015D00F0E3314016E0150000A9E
:10244A00D8B479D70F0E3314016E01500F0AD8B4DD
:10245A0072D70F0E3314016E0150020A97E0D5D7D6
:10246A0037C031F1310E0101326F000E336F1FECAC
:10247A000CF00001B36B13D0B751000A10E101014F
:10248A00236B365208E0360636C037F009DE030EF3
:10249A0001012F6F52DC0B0E0001B76F00D03FD73E
:1024AA00B1900101235365E03650375C2BE3200ECF
:1024BA00375C27E2020E3E6F4D0E3F6F8AEC0AF040
:1024CA008FDC030E006E000E016E37C004F0000EA2
:1024DA00056E9DEC00F0380E0024E16E000E01201E
:1024EA00E26E030E006E310EE96E000EEA6EEECF5A
:1024FA00E6FF0006FCE137C02FF17FDC372A37C040
:10250A0036F024D0030E006E000E016E37C004F0C0
:10251A00000E056E9DEC00F0380E0024E16E000EF0
:10252A000120E26E030E006E310EE96E000EEA6EB5
:10253A00EECFE6FF0006FCE13750060F01012F6FD0
:10254A00A2EC0EF037C02FF158DC372A030E010136
:10255A002F6FA2EC0EF037C031F1310E0101326F4C
:10256A00000E336F1FEC0CF0030E01012F6FA2EC6B
:04257A000EF012004D
:10257E00380E0101256F000E266F30908990236B67
:10258E003650235DD8B014D130B012D1020E2525AD
:10259E00296F000E26212A6FD7D00101010E2525A5
:1025AE00E96E000E2621EA6EEECF00F00F0E001639
:1025BE0000C02CF025C1E9FF26C1EAFFEECF00F0E6
:1025CE0000C02BF017EC09F0ECD025C1E9FF26C1B5
:1025DE00EAFFEECF00F000C02BF07BDDE2D025C18C
:1025EE00E9FF26C1EAFFEECF00F0EECF01F0FF0EBD
:1025FE000014036E01500F0B046E04C000F0016A4C
:10260E0000C02CF025C1E9FF26C1EAFFEECF00F095
:10261E00EECF01F0FF0E00160F0E011600C02BF0CC
:10262E00F8DCBFD0010E01012525006E000E26211B
:10263E00016E00C027F101C028F165D025C1E9FF68
:10264E0026C1EAFFEECF24F130B015D0010124C12E
:10265E0000F0240700520FE03D0E0B6EE10E0C6EE3
:10266E003F0E0D6E0D2EFED70C2EFCD70B2EFAD76D
:10267E0000000000E9D766D025C1E9FF26C1EAFFB8
:10268E00EECF24F130B002D0058001D005900101CB
:10269E0024C101F02407006A05B0002A015000167B
:1026AE000AE0100E0C6E940E0D6E0D2EFED70C2E33
:1026BE00FCD70000E7D746D025C1E9FF26C1EAFFC7
:1026CE00EECF01F03650015C1CE2010125C1E9FF9D
:1026DE0026C1EAFFEECF00F000C023F1000E016E1E
:1026EE00030E046E000E056E9DEC00F0380E0024F5
:1026FE00256F000E0120266F030E255F000E265B50
:10270E00230720D01FD027C1E9FF28C1EAFF0F0EF3
:10271E00EE14016E01500F0A91E027C1E9FF28C1A6
:10272E00EAFF0F0EEE14016E01500E0AA5E027C14E
:10273E00E9FF28C1EAFF0F0EEE14016E0150000AE8
:10274E00BBE0E0D72ED02DD029C1E9FF2AC1EAFF88
:10275E000F0EEE14016E0150000AD8B41ED729C117
:10276E00E9FF2AC1EAFF0F0EEE14016E0150010AB5
:10277E00D8B42BD729C1E9FF2AC1EAFF0F0EEE14F8
:10278E00016E0150020AD8B42AD729C1E9FF2AC125
:10279E00EAFF0F0EEE14016E01500F0AD8B442D7A5
:1027AE00D2D70101232B030E2527000E2623E8D6B0
:0627BE003090899012002A
:1027C4000F0E3314016E0150020A38E1800E006EC0
:1027D400800E010123BF7F0E005C02E1235100083B
:1027E40017E2310E2B6F000E2C6F57EC0FF03150A7
:1027F400001A3250011AFF0E00160F0E0116315046
:10280400001A3250011A00C031F001C032F015D064
:10281400310E2B6F000E2C6F84DC3150001A3250B5
:10282400011AFF0E00160F0E01163150001A325015
:10283400011A00C031F001C032F015D00101800E40
:10284400006E800E23BF7F0E005C02E1235100085E
:1028540006E23150010F006E00C031F004D03104A3
:08286400006E00C031F012000B
:10286C0000DCFF0E0101456F3B0E466F000E476FFB
:10287C0043EC0AF0F5EC0EF0F5EC0EF0F5EC0EF086
:10288C00F5EC0EF00E0E0101456F3C0E466F000E7E
:10289C00476F43EC0AF0E3DCF00E3314006E00C01B
:1028AC0033F0040E316EF00E3214006E00C032F0B4
:0E28BC0019EC0FF001012B6BEFEC0FF0120086
:1028CA000101235339E00101800E006E800E23BFFF
:1028DA007F0E005C02E1235100080AE20F0E331456
:1028EA00246F256B000E2517242B000E256F09D0A7
:1028FA000F0E3314246F256B000E25172407000EC4
:10290A00256F0F0E2415006E3350001A0F0E001695
:10291A003350001A00C033F00F0E33142F6F3DEC02
:10292A000EF000C0F6FF01C0F7FF02C0F8FF090071
:0A293A00F5CF00F00052C7E01200D4
:102944004B0E0501086F096B0A6B0B6B359035B0A4
:1029540059D0000E01012B6F050E2C6F080E2D6F40
:10296400050E2E6F3FEC10F0236B35B036D0320ECF
:10297400235D33E2040E0B6E0C0E0C6E330E0D6EE3
:102984000D2EFED70C2EFCD70B2EFAD7000000001C
:102994008980040E0B6E0C0E0C6E330E0D6E0D2E14
:1029A400FED70C2EFCD70B2EFAD70000000089901E
:1029B400080E4B6F050E4C6F040E4D6F0CEC09F0B6
:1029C4000050000A000ED8A4010E016E01B002D01E
:1029D400359001D03580232BC8D735B012D017ECF1
:1029E4000FF0020E0A6E310E0B6E620E0C6E450E67
:1029F4000D6E0D2EFED70C2EFCD70B2EFAD70A2EF9
:102A0400F8D7A5D7100E0B6E390E0C6E0D0E0D6E89
:102A14000D2EFED70C2EFCD70B2EFAD7000000008B
:022A240012009E
:102A26000900F5CFE6FF0006FBE10106F9E1120019
:102A360001011051010A07E160BA05D0656A648098
:102A46006488020E106F65A406D064A404D0FB0E41
:102A5600651675EC06F060A203D073EC06F0DFD0C5
:102A660065A019D064A017D082EC06F0040E106F92
:102A7600200E0401026F040E036F080E016F000E94
:102A86000015006E00C000F48C0E0011006E00C030
:102A960000F4FE0E651665A806D064A804D07DEC89
:102AA60006F0EF0E651665AC04D064AC02D0BF0E1E
:102AB600651665AA04D064AA02D055EC06F065A294
:102AC60002D064B2676A040E0101105D03E273EC82
:102AD60006F0A5D064A6A1D05A6B040E5A5DD8B0F4
:102AE6009CD065A696D061CFC2F0F70E6516780E1B
:102AF6000001C215016E0150000AD8A489D0FD0E4E
:102B0600C215016E026AFF0E0216000E021802E1DD
:102B1600000E01186EE17E0EC215016E01C003F0B3
:102B26000332039E03C000F0000E016E00360090D3
:102B36000136003600900136000E0024026E040EA7
:102B46000120036E02C02EF003C02FF002C0B4F0C5
:102B560003C0B5F0040EB419006E00C0B4F002C094
:102B6600E9FF03C0EAFFEECF00F000C001F03C0E23
:102B760001160132019E0132019E01500D0A36E115
:102B8600020E2E24E96E000E2F20EA6EEECF01F023
:102B9600EECF02F00250040A02E1280E011823E1EA
:102BA600020E2E24E16E000E2F20E26E200EE66E3F
:102BB600040EE66E0101596B080E595D14E2200EF3
:102BC600E16E040EE26E5951E126D8B0E22A280ED3
:102BD600E96E040EEA6E5951E926D8B0EA2AEECF1C
:102BE600E6FF592BE9D73DEC06F002D018EC06F0CB
:102BF6000ED0FD0EC215016E026AFF0E0216000E01
:102C0600021802E1040E011802E1C3EC06F000D03E
:102C160001D003D001015A2B60D773EC06F01200E5
:102C26000F015B6B5C6B5D6BBE0E926EFF0E936E5F
:102C3600070E946E896A8A6A8B6AF19E700ED36E4D
:102C4600D3B401D0FDD7D3B601D0FDD7D2989B8E91
:102C5600D288D2BE01D0FDD7B59EB588B58E356A6D
:102C66002B6A2C6A62886284F290868C868A8688B1
:102C7600320EB16EA082F286F28CF28E309089907E
:102C8600366A0101206B380E216F000E226F200E6E
:102C9600205D0CE221C1E1FF22C1E2FFE66AE66A9D
:102CA600202B030E2127000E2223F1D7F00E33141A
:102CB600006E00C033F0040E316EF00E3214006E5A
:0E2CC60000C032F00001B36B376A39DE120035
:102CD4000001B3532AE01FD0B3C023F1F4DD19EC93
:102CE4000FF020D0B3C023F16BDD030E2F6FA2ECE5
:102CF4000EF037C031F1310E0101326F000E336F27
:102D04001FEC0CF0010E01013E6F4A0E3F6F8AEC7E
:102D14000AF008D007D02950000ADEE02950010A41
:102D2400E1E0F8D70001B36B7FD081BC7DD0309057
:102D340089904E0E0C6EEB0E0D6E0D2EFED70C2EE2
:102D4400FCD781BC6ED0160EB76F3594B18081BCB0
:102D54000CD0B3530AE135B408D0B1A005D0B751B3
:102D6400000A02E1B1903584F2D7B19050D035A475
:102D74000DD037EC10F03F0E0101456F3E0E466F4B
:102D8400000E476F43EC0AF0359233D01FD037EC76
:102D940010F01A0E0101456F400E466F000E476F8A
:102DA40043EC0AF0359225D037EC10F0350E0101D2
:102DB400456F3E0E466F000E476F43EC0AF03592A6
:102DC40018D052DD16D049EC11F013D00F0E331485
:102DD400016E01500E0ADBE00F0E3314016E015038
:102DE4000C0AE2E00F0E3314016E01500D0AE9E003
:102DF400EAD714D035A407D001012B6BEFEC0FF008
:102E040019EC0FF002D08DEC11F008D007D0295046
:102E1400000AADE02950010AEDE0F8D781BC01D0E9
:0A2E2400FDD70001B36B00D01200CF
:102E2E0081BC23D0309089904E0E0C6EEB0E0D6E41
:102E3E000D2EFED70C2EFCD781BC17D0160E00011E
:102E4E00B76FB18081BC09D00001B751000A04E10F
:102E5E003582B19004DD01D0F5D7B19081BC01D09F
:0C2E6E00FDD735B202D0BFEC12F012000C
:102E7A00296A2A6AD3DE35A202D027DF01D0D2DF3F
:082E8A0030908990F8D7FFD7C2
:020006003000C8
:102E92004244004444004344003F44003B44003A5F
:102EA20044003C44003E44003D44005C44007B44FA
:102EB200007A44007C44007E44007D440079440052
:102EC20075440074440076440078440077440086D8
:102ED20044008544008744008944008844008444B7
:102EE200008044007F440081440083440082440007
:102EF2007344006444006344006544006744006610
:102F020044006244005E44005D44005F440061444A
:102F1200006044006F44006E44007044007244003C
:102F22007144006D44006944006844006A44006CC6
:102F320044006B4400F24300F14300F34300F543C5
:102F420000F44300F04300EC4300EB4300ED430088
:102F5200EF4300EE4300FD4300FC4300FE4300004C
:102F62004400FF4300FB4300F74300F64300F843ED
:102F720000FA4300F94300EA4300DB4300DA43006E
:102F8200DC4300DE4300DD4300D94300D54300D4D7
:102F92004300D64300D84300D74300E64300E5434D
:102FA20000E74300E94300E84300E44300E0430054
:102FB200DF4300E14300E34300E243000144002019
:102FC20044001F44002144002344002244001E44C4
:102FD200001A44001944001B44001D44001C440014
:102FE2002B44002A44002C44002E44002D44002986
:102FF2004400254400244400264400284400274479
:10300200001844000944000844000A44000C44002B
:103012000B44000744000344000244000444000639
:1030220044000544001444001344001544001744AE
:10303200001644001244000E44000D44000F4400E8
:103042001144001044008A44000445000345000571
:103052004500074500064500024500FE4400FD44C8
:1030620000FF44000145007541007941000E450012
:103072001045001245001145000D450009450008A4
:1030820045000A45000C45000B4500FC4400ED4498
:1030920000EC4400EE4400F04400EF4400EB440036
:1030A2007240003840007D3F00FF4100814100D066
:1030B2003D00993D00814000624000A73F00E74487
:1030C20000E64400AE3F00E84400EA4400E9440060
:1030D200F84400F74400F94400FB4400FA4400F6C7
:1030E2004400F24400F14400F34400F54400F44487
:1030F20000134500C53D00BA3D0032450031450090
:103102003345003545003445003045002C45002B41
:1031120045002D45002F45002E45003D45003C450C
:10312200003E45004045003F45003B450037450015
:103132003645003845008B40003A45003945007855
:103142003D00983E008F3E007D4100954000684062
:10315200002A45001B45001A45001C45001E45007B
:103162001D45001945001545001445001645007718
:103172004000184500174500264500254500274513
:10318200002945002845002445002045001F450030
:10319200214500234500224500A94400A84400AA75
:1031A2004400AC4400AB4400A74400A34400A24442
:1031B20000A44400A64400A54400B44400B3440063
:1031C200B54400B74400B64400B24400AE4400AD7A
:1031D2004400AF4400B14400B04400A14400924412
:1031E20000914400934400954400944400904400AC
:1031F2008C44008B44008D44008F44008E44009D1B
:1032020044009C44009E4400A044009F44009B4410
:10321200009744009644009844009A440099440060
:10322200B84400D74400D64400D84400DA4400D958
:103232004400D54400D14400D04400D24400D444D8
:1032420000D34400E24400E14400E34400E54400CA
:10325200E44400E04400DC4400DB4400DD4400DFE1
:103262004400DE4400CF4400C04400BF4400C144D7
:1032720000C34400C24400BE4400BA4400B9440042
:10328200BB4400BD4400BC4400CB4400CA4400CC53
:103292004400CE4400CD4400C94400C54400C444A7
:1032A20000C64400C84400C74400D34300E84200BB
:1032B200E34200E242002E4300D34200D24200D554
:1032C2004200D84200E14200CC4200CB4200CA4256
:1032D20000CD4200D04200CF4200214300224300F1
:1032E20020430023430026430027430024430017C2
:1032F20043001A43001D43003443003543002A4370
:10330200003143002F4300FD4200FA4200F1420027
:103312001043001243001343000543001D3C0026E6
:103322003D00323D00CF3B008E3C00D73E000840BE
:1033320000354100DB3D00BC3E00C53E00EF3B00D6
:103342000A4300094300A43D000C43000B4300085C
:1033520043004A3D00044300074300064300EF3D9B
:10336200001440008B3F001443002C3C003A3C0008
:103372009B3C00E93C000F4300034300F74200F688
:103382004200F94200F84200F54200F242006D3F6D
:1033920000F44200F34200004300FF4200024300F7
:1033A200014300FE4200FB42005C4000C23C00FCC4
:1033B2004200803C00483C00563C003043002D4314
:1033C20000E53D002943002C43002B430038430015
:1033D2003743003A43003943003643003343003257
:1033E2004300CF3C002843001C43001B43001E4304
:1033F200001643001943001843002543001F4300F1
:10340200F04200CE4200C94200C74200C84200C694
:103412004200D14200E54200E64200E74200E442B7
:1034220000ED4200EE4200EF4200EC4200E94200B1
:10343200EA4200EB4200D64200D74200D44200D911
:103442004200DE4200DF4200E04200DD4200DA429A
:1034520000DB4200DC4200A043009F4300A2430085
:10346200A143009E43009B43009A43009D43009C5E
:103472004300A34300AA4300A94300AC4300AB436B
:1034820000A84300A54300A44300A74300A64300AD
:103492008D43008D4100DB4000264000D64000AA4B
:1034A2003E00E93E006C4100D83F008C43008F4350
:1034B200008E43008B43008843008743008A430009
:1034C2008943009043009743009643009943009834
:1034D20043009543009243009143009443004441CA
:1034E20000494100714100024000623D003F41003D
:1034F200453F00993F00FC3F003A4100A44000557F
:103502003F009F40003D3F00673E005D3E00713E30
:10351200000D3F009343001D3F00FB3E00C64300E9
:10352200F63C00023D000E3D00853E003E3D00C5DA
:103532004300C84300C74300C44300AF3D00173EE9
:1035420000213E00C14300C04300C34300C2430008
:10355200C94300D04300CF4300D24300D14300CE41
:103562004300CB4300CA4300CD4300CC4300B343E6
:1035720000B24300B54300B44300B14300AE430080
:10358200AD4300B04300AF4300B64300BD4300BCAF
:103592004300BF4300BE4300BB4300B84300B743F0
:1035A20000BA4300B943005443005343005643005A
:1035B2005543005243004F43004E430051430050D5
:1035C20043005743005E43005D43006043005F4396
:1035D200005C43005943005843005B43005A4300D8
:1035E2004143004043004343004243003F43003C09
:1035F20043003B43003E43003D43004443004B43F2
:10360200004A43004D43004C4300494300464300F7
:103612004543004843004743007A43007943007C16
:1036220043007B43007843007543007443007743B3
:10363200007643007D4300844300834300864300B9
:103642008543008243007F43007E43008143008024
:1036520043006743006643006943006843006543D3
:10366200006243006143006443006343006A430015
:103672000E40006D43006E43006B43005242005601
:1036820042005442004442006E42006C4200024238
:10369200000442000642000842003242003042006A
:1036A2002E42003442003A4200384200AC4200AAA4
:1036B2004200C24200BA42008842008A42008E4260
:1036C200008242007E42007A42007C420086420032
:1036D200BC4200BE4200B64200B84200C04200C432
:1036E20042000A42000600002C40009D41007B3E41
:1036F20000D141004440000E42001842001A42002C
:103702001C420016420010420012420014420062A3
:103712004200644200664200604200F23E00F34111
:1037220000F04100F64100FC4100F94100E4410093
:10373200E14100E74100ED4100CD4100D54100DD0E
:103742004100923F00653F00DE3F00D94100304119
:1037520000A03F00B53F00BD4100043F00564000BD
:10376200C74000D14000EA4100353F00A94000EACD
:103772004000EF4000F44000A13E00E04000E54080
:1037820000F940000D4100124100084100FE4000D6
:10379200034100B84000BD4000B34000584200AEB3
:1037A2004000504000C24000B94100C14100C9413F
:1037B20000C54100A141009941009141009541009D
:1037C200B14100B54100AD4100A54100CC40005DD2
:1037D2004100534100843F005841003E4000624195
:1037E20000A941006741003240004E4100264100DD
:1037F2002B4100214100CE3E002D3F008E3D00179F
:0538020041001C410023
:103807000D43000E43001143001543003642002CC0
:1038170042002242002042001E42002442002A4267
:1038270000284200264200784200A64200B2420029
:10383700B44200AE4200B04200A842000C4200462B
:1038470042004842004242003C42003E42004042A1
:10385700004A42005C42005A42005E420068420051
:103867007242007442007642007042006A42005081
:1038770042004E42004C42000F45000045004044C4
:10388700004144003244008042009E42009C4200B6
:10389700A04200A44200A242009A42009642009829
:1038A70042009442009042008442003144002F4479
:1038B70000304400344400384400374400354400A5
:1038C7003644004544005644004D44004C44004EE5
:1038D70044005044004F44004B44004744004644D2
:1038E700004844004A4400494400584400574400F3
:1038F7005944005B44005A4400F63F0052440051CB
:103907004400534400554400544400D13F004D3F08
:10391700001A3D005D3F00394400B33E00753F008B
:0F3927002040002B3E00BC3F00C33F00924200F7
:1039360000000000000000002A2B2800004A0000BA
:103946000000000000000000000000000000000071
:103956002C9E00A0A1A2A434A6A7A5AE362D37386A
:10396600271E1F20212223242526B333B62EB7B8BF
:103976009F8485868788898A8B8C8D8E8F9091927D
:10398600939495969798999A9B9C9D2F3130A3ADC9
:10399600350405060708090A0B0C0D0E0F10111247
:1039A600131415161718191A1B1C1DAFB1B0B22A1D
:1039B60005010906A101854B050709E109E009E2B0
:1039C60009E309E509E409E609E725017501950812
:1039D600810275089501810326FF0019002AFF0060
:1039E6008100750195030508190129032501910236
:1039F600750595019103C005010980A10185531A3A
:103A060081002A8F001501250F750895018100C0D8
:103A1600050C0901A101854319002A3C021500265F
:093A26003C02751095018100C0FD
:103A2F004D61696E3A2020205475726E3D53656C5E
:103A3F002C2050726573732B5475726E3D536574E1
:103A4F0020416464726573732C2050726573733DEB
:103A5F004F4B2C2050726573732B486F6C643D4530
:043A6F0078697400FE
:103A7300416374696F6E3A205475726E3D53656C81
:103A83002C2050726573732B5475726E3D4D6F64A9
:103A93006966792C2050726573733D4F4B2C20500F
:103AA300726573732B486F6C643D52657475726EE7
:013AB3000012
:103AB4003344006D3D00E43F00153F00DC3C00E072
:103AC4003E00493E00033E00563D00833D00F93D63
:0D3AD40000253F000D3E00B53C00A83C0061
:103AE10009022900010101803209040000020300DA
:103AF1000002092101010001227900070581030863
:093B010000050705010308000599
:103B0A0028034F006E006500200042007500740013
:103B1A0074006F006E0020004B006500790062009F
:083B2A006F00610072006400ED
:103B3200000401000200010002030200020300402F
:0C3B4200050400000504060005000680D4
:103B4E0053657420436F6E73756D65722044657690
:0C3B5E0069636520436F6D6D616E64004B
:103B6A005365742053797374656D20436F6E747254
:0B3B7A006F6C20436F6D6D616E640086
:103B8500140350006100730073006900660069004A
:043B95006500720055
:103B9900536574204C6F63616C2046756E6374695C
:033BA9006F6E003C
:103BAC0012011001000000085041535303000102A0
:023BBC00000106
:103BBE003031323334353637383941424344454655
:013BCE0000F6
:103BCF00477261706869637320456469746F72002E
:103BDF0043616E63656C20616E6420457869740083
:103BEF0050726F6A656374204D616E616765720014
:0F3BFF0050415353696669657220302E3930008A
:0F3C0E00416420436F646520416374696F6E00E9
:0F3C1D00576F72642050726F636573736F72001C
:0E3C2C005465726D696E616C204C6F636B00A5
:0E3C3A00436F6E74726F6C2050616E656C008B
:0E3C4800417564696F2042726F777365720078
:0E3C56004D6F7669652042726F77736572005C
:0E3C64005361766520616E64204578697400B6
:0E3C7200536574204B65797374726F6B650037
:0E3C8000496D6167652042726F77736572004F
:0D3C8E0050726573656E746174696F6E002D
:0D3C9B00436F6D6D616E64204C696E6500B5
:0D3CA8005761726D20526573746172740073
:0D3CB500436F6C642052657374617274007B
:0D3CC20046696C652042726F777365720071
:0D3CCF00417564696F20506C617965720069
:0D3CDC00436F6E74657874204D656E750041
:0D3CE9005461736B204D616E616765720060
:0C3CF60046756C6C2053637265656E00AF
:0C3D02004E6F726D616C20566965770091
:0C3D0E00546F67676C652056696577008C
:0C3D1A004B502050616765446F776E00CD
:0C3D26005465787420456469746F720065
:0C3D32005370726561647368656574000D
:0C3D3E005363726F6C6C20446F776E0052
:0C3D4A005765622042726F77736572004B
:0C3D56004D656E752053656C656374004C
:0B3D620053656C65637420416C6C00BD
:0B3D6D00506F77657220446F776E0086
:0B3D78004261737320426F6F73740090
:0B3D83004D656E752052696768740082
:0B3D8E004C6F636B5363726F6C6C0032
:0B3D99005072657620547261636B006D
:0B3DA40043616C63756C61746F72000A
:0B3DAF004E65772057696E646F770047
:0B3DBA00506C61792F5061757365003B
:0B3DC50053746F702F456A6563740033
:0B3DD0004E65787420547261636B0034
:0A3DDB00566F6963656D61696C0045
:0A3DE5004D6573736167696E670036
:0A3DEF0054656C6570686F6E790012
:0A3DF9004D656E75204C6566740080
:0A3E03004D656E7520457869740066
:0A3E0D004D656E7520446F776E005E
:0A3E170054696C6520486F727A0050
:0A3E210054696C6520566572740048
:0A3E2B004B50205061676555700090
:0A3E350043616E63656C6C65640008
:0A3E3F004E6F742053617665640035
:0A3E49004D656E752048656C700031
:0A3E53005265646973706C617900B8
:0A3E5D004E657874204C696E6B000E
:0A3E670050726576204C696E6B0006
:0A3E7100426F6F6B6D61726B73009E
:0A3E7B004261636B737061636500C0
:0A3E85005363726F6C6C20557000DF
:093E8F004C6F75646E65737300DD
:093E9800537572726F756E6400BF
:093EA1004B5020456E746572005F
:093EAA004D6178696D69736500D2
:093EB3004B50205269676874004D
:093EBC00436F6E746163747300BE
:093EC50043616C656E64617200DA
:093ECE004C6F636B4361707300DB
:093ED700446174616261736500CD
:093EE000417070204D656E750003
:093EE9004D696E696D6973650095
:093EF200436170734C6F636B00B7
:093EFB005A6F6F6D204F757400C1
:093F040050616765446F776E009F
:083F0D00486973746F727900BA
:083F150057616B652055700037
:083F1D005A6F6F6D20496E0020
:083F25004D656E75205570001A
:083F2D004C6F636B4E756D00D3
:083F35004E756D4C6F636B00CB
:083F3D005265667265736800AD
:083F45005265706C61636500B8
:083F4D004B5020446F776E0019
:083F5500466F7277617264008F
:083F5D004B50204C6566740016
:083F65005363724C6F636B00A3
:083F6D004465736B746F700072
:083F75004B5020486F6D650000
:073F7D005265636F726400DE
:073F840053656C65637400D6
:073F8B004C6F676F666600D2
:073F920050727453637200CA
:073F990053656172636800CB
:073FA00050616765557000D8
:073FA70052616E646F6D00B2
:073FAE0052657065617400AB
:073FB50044656C65746500B2
:073FBC004B5020496E730019
:073FC3004B502044656C0027
:073FCA0053484946542B0047
:073FD1004B5020456E640017
:063FD8005072696E7400D6
:063FDE00506175736500DF
:063FE400536C65657000DE
:063FEA005761697420001C
:063FF000476F746F200012
:063FF600436C65617200DE
:063FFC00476F20546F0026
:06400200506173746500BB
:06400800456D61696C00CA
:06400E004E6F204F700010
:064014004C6F676F6E00A7
:06401A00536176656400AD
:064020004B50205570001A
:06402600436C6F7365009E
:06402C00456E7465720090
:064032005061737465008B
:0640380050617573650084
:06403E00416761696E009C
:064044005370616365008A
:06404A00576169742000BB
:06405000506F776572005D
:0640560052696768740066
:06405C00436C6F636B0072
:06406200456A656374006D
:05406800566F6C2D00F5
:05406D004755492B003E
:05407200506C617900B3
:05407700536C6F77009F
:05407C007878782000B7
:0540810053746F700094
:054086002073656300DA
:05408B004D7574650095
:0540900043544C2B001D
:05409500566F6C2B00CA
:05409A00414C542B0015
:05409F0053746F700076
:0540A4004261636B00A6
:0540A9004B50202F0028
:0540AE004170706C0080
:0540B3004B50202E001F
:0540B8004B502039000F
:0540BD004B5020300013
:0540C2004B50203D0001
:0540C7004C6566740069
:0540CC0045786563006A
:0540D100446F776E0052
:0540D60045786974004B
:0540DB004F70656E004E
:0540E0004B50203100EF
:0540E5004B50203200E9
:0540EA004B50202A00EC
:0540EF004B50202D00E4
:0540F4004B50202B00E1
:0540F9004B50203300D4
:0540FE004B50203700CB
:054103004B50203800C4
:054108004B50203600C1
:05410D004B50203400BE
:054112004B50203500B8
:054117004B50202C00BC
:05411C004B50203D00A6
:05412100566F6C2D003B
:054126004D75746500F9
:05412B00566F6C2B0033
:05413000486F6D650001
:054135004E65777300E8
:05413A00486F6D6500F7
:05413F0046696E6400FA
:05414400556E646F00E0
:05414900436F707900D6
:05414E0046696E6400EB
:054153004D656E7500D2
:0541580053746F7000BC
:05415D0048656C7000D4
:05416200556E646F00C2
:05416700436F707900B8
:05416C005361766500BF
:04417100437574001E
:0441750043682B0070
:0441790043682D006A
:04417D004D50580049
:04418100526577000C
:04418500206D730036
:04418900040309041E
:04418D004E65770004
:04419100463139007A
:04419500463230007E
:044199004631380073
:04419D004573630003
:0441A100463137006C
:0441A500463234006A
:0441A90043757400E6
:0441AD004632330063
:0441B1004632310061
:0441B500463232005C
:0441B9004631330058
:0441BD00456E6400E7
:0441C100463134004F
:0441C5004631360049
:0441C9004631350046
:0441CD004631300047
:0441D10054616200D3
:0441D500463131003E
:0441D900496E7300B8
:0441DD004631320035
:0341E1004637005E
:0341E4004636005C
:0341E70046380057
:0341EA005570000D
:0341ED0046390050
:0341F00046320054
:0341F30046310052
:0341F6004633004D
:0341F90046350048
:0341FC0046340046
:0341FF0046460031
:02420200670053
:02420400680050
:0242060069004D
:024208006A004A
:02420A00390079
:02420C0051005F
:02420E002D0081
:02421000230089
:024212003B006F
:02421400270081
:024216005C004A
:024218003D0067
:02421A005B0047
:02421C005D0043
:02421E00450059
:02422000440058
:02422200430057
:02422400460052
:0242260049004D
:0242280048004C
:02422A0047004B
:02422C0042004E
:02422E006D0021
:024230006C0020
:024232006B001F
:024234006E001A
:02423600410045
:02423800700014
:02423A006F0013
:02423C0055002B
:02423E00560028
:02424000570025
:02424200540026
:02424400640014
:02424600520024
:02424800530021
:02424A0058001A
:02424C00290047
:02424E00280046
:024250002A0042
:02425200610009
:02425400630005
:02425600620004
:024258005C0008
:02425A005A0008
:02425C00590007
:02425E0021003D
:024260002F002D
:024262006000FA
:024264002C002C
:024266002E0028
:02426800400014
:02426A0026002C
:02426C006600EA
:02426E006500E9
:024270005E00EE
:02427200230027
:02427400240024
:02427600250021
:024278004A00FA
:02427A007A00C8
:02427C0031000F
:02427E007900C5
:024280005F00DD
:024282007800C2
:024284003F00F9
:02428600320004
:024288007500BF
:02428A007600BC
:02428C00200010
:02428E007700B7
:024290003E00EE
:024292007C00AE
:024294003C00EC
:02429600220004
:024298007E00A6
:02429A003A00E8
:02429C007B00A5
:02429E002B00F3
:0242A0007D009F
:0242A2007E009C
:0242A4007C009C
:0242A6004B00CB
:0242A8005000C4
:0242AA007200A0
:0242AC0071009F
:0242AE004E00C0
:0242B0004F00BD
:0242B2004C00BE
:0242B4004D00BB
:0242B6003500D1
:0242B8003600CE
:0242BA0074008E
:0242BC003300CD
:0242BE003400CA
:0242C0003700C5
:0242C200730087
:0242C4003800C0
:0142C60000F7
:0142C70000F6
:0142C80000F5
:0142C90000F4
:0142CA0000F3
:0142CB0000F2
:0142CC0000F1
:0142CD0000F0
:0142CE0000EF
:0142CF0000EE
:0142D00000ED
:0142D10000EC
:0142D20000EB
:0142D30000EA
:0142D40000E9
:0142D50000E8
:0142D60000E7
:0142D70000E6
:0142D80000E5
:0142D90000E4
:0142DA0000E3
:0142DB0000E2
:0142DC0000E1
:0142DD0000E0
:0142DE0000DF
:0142DF0000DE
:0142E00000DD
:0142E10000DC
:0142E20000DB
:0142E30000DA
:0142E40000D9
:0142E50000D8
:0142E60000D7
:0142E70000D6
:0142E80000D5
:0142E90000D4
:0142EA0000D3
:0142EB0000D2
:0142EC0000D1
:0142ED0000D0
:0142EE0000CF
:0142EF0000CE
:0142F00000CD
:0142F10000CC
:0142F20000CB
:0142F30000CA
:0142F40000C9
:0142F50000C8
:0142F60000C7
:0142F70000C6
:0142F80000C5
:0142F90000C4
:0142FA0000C3
:0142FB0000C2
:0142FC0000C1
:0142FD0000C0
:0142FE0000BF
:0142FF0000BE
:0143000000BC
:0143010000BB
:0143020000BA
:0143030000B9
:0143040000B8
:0143050000B7
:0143060000B6
:0143070000B5
:0143080000B4
:0143090000B3
:01430A0000B2
:01430B0000B1
:01430C0000B0
:01430D0000AF
:01430E0000AE
:01430F0000AD
:0143100000AC
:0143110000AB
:0143120000AA
:0143130000A9
:0143140000A8
:0143150000A7
:0143160000A6
:0143170000A5
:0143180000A4
:0143190000A3
:01431A0000A2
:01431B0000A1
:01431C0000A0
:01431D00009F
:01431E00009E
:01431F00009D
:01432000009C
:01432100009B
:01432200009A
:014323000099
:014324000098
:014325000097
:014326000096
:014327000095
:014328000094
:014329000093
:01432A000092
:01432B000091
:01432C000090
:01432D00008F
:01432E00008E
:01432F00008D
:01433000008C
:01433100008B
:01433200008A
:014333000089
:014334000088
:014335000087
:014336000086
:014337000085
:014338000084
:014339000083
:01433A000082
:01433B000081
:01433C000080
:01433D00007F
:01433E00007E
:01433F00007D
:01434000007C
:01434100007B
:01434200007A
:014343000079
:014344000078
:014345000077
:014346000076
:014347000075
:014348000074
:014349000073
:01434A000072
:01434B000071
:01434C000070
:01434D00006F
:01434E00006E
:01434F00006D
:01435000006C
:01435100006B
:01435200006A
:014353000069
:014354000068
:014355000067
:014356000066
:014357000065
:014358000064
:014359000063
:01435A000062
:01435B000061
:01435C000060
:01435D00005F
:01435E00005E
:01435F00005D
:01436000005C
:01436100005B
:01436200005A
:014363000059
:014364000058
:014365000057
:014366000056
:014367000055
:014368000054
:014369000053
:01436A000052
:01436B000051
:01436C000050
:01436D00004F
:01436E00004E
:01436F00004D
:01437000004C
:01437100004B
:01437200004A
:014373000049
:014374000048
:014375000047
:014376000046
:014377000045
:014378000044
:014379000043
:01437A000042
:01437B000041
:01437C000040
:01437D00003F
:01437E00003E
:01437F00003D
:01438000003C
:01438100003B
:01438200003A
:014383000039
:014384000038
:014385000037
:014386000036
:014387000035
:014388000034
:014389000033
:01438A000032
:01438B000031
:01438C000030
:01438D00002F
:01438E00002E
:01438F00002D
:01439000002C
:01439100002B
:01439200002A
:014393000029
:014394000028
:014395000027
:014396000026
:014397000025
:014398000024
:014399000023
:01439A000022
:01439B000021
:01439C000020
:01439D00001F
:01439E00001E
:01439F00001D
:0143A000001C
:0143A100001B
:0143A200001A
:0143A3000019
:0143A4000018
:0143A5000017
:0143A6000016
:0143A7000015
:0143A8000014
:0143A9000013
:0143AA000012
:0143AB000011
:0143AC000010
:0143AD00000F
:0143AE00000E
:0143AF00000D
:0143B000000C
:0143B100000B
:0143B200000A
:0143B3000009
:0143B4000008
:0143B5000007
:0143B6000006
:0143B7000005
:0143B8000004
:0143B9000003
:0143BA000002
:0143BB000001
:0143BC000000
:0143BD0000FF
:0143BE0000FE
:0143BF0000FD
:0143C00000FC
:0143C10000FB
:0143C20000FA
:0143C30000F9
:0143C40000F8
:0143C50000F7
:0143C60000F6
:0143C70000F5
:0143C80000F4
:0143C90000F3
:0143CA0000F2
:0143CB0000F1
:0143CC0000F0
:0143CD0000EF
:0143CE0000EE
:0143CF0000ED
:0143D00000EC
:0143D10000EB
:0143D20000EA
:0143D30000E9
:0143D40000E8
:0143D50000E7
:0143D60000E6
:0143D70000E5
:0143D80000E4
:0143D90000E3
:0143DA0000E2
:0143DB0000E1
:0143DC0000E0
:0143DD0000DF
:0143DE0000DE
:0143DF0000DD
:0143E00000DC
:0143E10000DB
:0143E20000DA
:0143E30000D9
:0143E40000D8
:0143E50000D7
:0143E60000D6
:0143E70000D5
:0143E80000D4
:0143E90000D3
:0143EA0000D2
:0143EB0000D1
:0143EC0000D0
:0143ED0000CF
:0143EE0000CE
:0143EF0000CD
:0143F00000CC
:0143F10000CB
:0143F20000CA
:0143F30000C9
:0143F40000C8
:0143F50000C7
:0143F60000C6
:0143F70000C5
:0143F80000C4
:0143F90000C3
:0143FA0000C2
:0143FB0000C1
:0143FC0000C0
:0143FD0000BF
:0143FE0000BE
:0143FF0000BD
:0144000000BB
:0144010000BA
:0144020000B9
:0144030000B8
:0144040000B7
:0144050000B6
:0144060000B5
:0144070000B4
:0144080000B3
:0144090000B2
:01440A0000B1
:01440B0000B0
:01440C0000AF
:01440D0000AE
:01440E0000AD
:01440F0000AC
:0144100000AB
:0144110000AA
:0144120000A9
:0144130000A8
:0144140000A7
:0144150000A6
:0144160000A5
:0144170000A4
:0144180000A3
:0144190000A2
:01441A0000A1
:01441B0000A0
:01441C00009F
:01441D00009E
:01441E00009D
:01441F00009C
:01442000009B
:01442100009A
:014422000099
:014423000098
:014424000097
:014425000096
:014426000095
:014427000094
:014428000093
:014429000092
:01442A000091
:01442B000090
:01442C00008F
:01442D00008E
:01442E00008D
:01442F00008C
:01443000008B
:01443100008A
:014432000089
:014433000088
:014434000087
:014435000086
:014436000085
:014437000084
:014438000083
:014439000082
:01443A000081
:01443B000080
:01443C00007F
:01443D00007E
:01443E00007D
:01443F00007C
:01444000007B
:01444100007A
:014442000079
:014443000078
:014444000077
:014445000076
:014446000075
:014447000074
:014448000073
:014449000072
:01444A000071
:01444B000070
:01444C00006F
:01444D00006E
:01444E00006D
:01444F00006C
:01445000006B
:01445100006A
:014452000069
:014453000068
:014454000067
:014455000066
:014456000065
:014457000064
:014458000063
:014459000062
:01445A000061
:01445B000060
:01445C00005F
:01445D00005E
:01445E00005D
:01445F00005C
:01446000005B
:01446100005A
:014462000059
:014463000058
:014464000057
:014465000056
:014466000055
:014467000054
:014468000053
:014469000052
:01446A000051
:01446B000050
:01446C00004F
:01446D00004E
:01446E00004D
:01446F00004C
:01447000004B
:01447100004A
:014472000049
:014473000048
:014474000047
:014475000046
:014476000045
:014477000044
:014478000043
:014479000042
:01447A000041
:01447B000040
:01447C00003F
:01447D00003E
:01447E00003D
:01447F00003C
:01448000003B
:01448100003A
:014482000039
:014483000038
:014484000037
:014485000036
:014486000035
:014487000034
:014488000033
:014489000032
:01448A000031
:01448B000030
:01448C00002F
:01448D00002E
:01448E00002D
:01448F00002C
:01449000002B
:01449100002A
:014492000029
:014493000028
:014494000027
:014495000026
:014496000025
:014497000024
:014498000023
:014499000022
:01449A000021
:01449B000020
:01449C00001F
:01449D00001E
:01449E00001D
:01449F00001C
:0144A000001B
:0144A100001A
:0144A2000019
:0144A3000018
:0144A4000017
:0144A5000016
:0144A6000015
:0144A7000014
:0144A8000013
:0144A9000012
:0144AA000011
:0144AB000010
:0144AC00000F
:0144AD00000E
:0144AE00000D
:0144AF00000C
:0144B000000B
:0144B100000A
:0144B2000009
:0144B3000008
:0144B4000007
:0144B5000006
:0144B6000005
:0144B7000004
:0144B8000003
:0144B9000002
:0144BA000001
:0144BB000000
:0144BC0000FF
:0144BD0000FE
:0144BE0000FD
:0144BF0000FC
:0144C00000FB
:0144C10000FA
:0144C20000F9
:0144C30000F8
:0144C40000F7
:0144C50000F6
:0144C60000F5
:0144C70000F4
:0144C80000F3
:0144C90000F2
:0144CA0000F1
:0144CB0000F0
:0144CC0000EF
:0144CD0000EE
:0144CE0000ED
:0144CF0000EC
:0144D00000EB
:0144D10000EA
:0144D20000E9
:0144D30000E8
:0144D40000E7
:0144D50000E6
:0144D60000E5
:0144D70000E4
:0144D80000E3
:0144D90000E2
:0144DA0000E1
:0144DB0000E0
:0144DC0000DF
:0144DD0000DE
:0144DE0000DD
:0144DF0000DC
:0144E00000DB
:0144E10000DA
:0144E20000D9
:0144E30000D8
:0144E40000D7
:0144E50000D6
:0144E60000D5
:0144E70000D4
:0144E80000D3
:0144E90000D2
:0144EA0000D1
:0144EB0000D0
:0144EC0000CF
:0144ED0000CE
:0144EE0000CD
:0144EF0000CC
:0144F00000CB
:0144F10000CA
:0144F20000C9
:0144F30000C8
:0144F40000C7
:0144F50000C6
:0144F60000C5
:0144F70000C4
:0144F80000C3
:0144F90000C2
:0144FA0000C1
:0144FB0000C0
:0144FC0000BF
:0144FD0000BE
:0144FE0000BD
:0144FF0000BC
:0145000000BA
:0145010000B9
:0145020000B8
:0145030000B7
:0145040000B6
:0145050000B5
:0145060000B4
:0145070000B3
:0145080000B2
:0145090000B1
:01450A0000B0
:01450B0000AF
:01450C0000AE
:01450D0000AD
:01450E0000AC
:01450F0000AB
:0145100000AA
:0145110000A9
:0145120000A8
:0145130000A7
:0145140000A6
:0145150000A5
:0145160000A4
:0145170000A3
:0145180000A2
:0145190000A1
:01451A0000A0
:01451B00009F
:01451C00009E
:01451D00009D
:01451E00009C
:01451F00009B
:01452000009A
:014521000099
:014522000098
:014523000097
:014524000096
:014525000095
:014526000094
:014527000093
:014528000092
:014529000091
:01452A000090
:01452B00008F
:01452C00008E
:01452D00008D
:01452E00008C
:01452F00008B
:01453000008A
:014531000089
:014532000088
:014533000087
:014534000086
:014535000085
:014536000084
:014537000083
:014538000082
:014539000081
:01453A000080
:01453B00007F
:01453C00007E
:01453D00007D
:01453E00007C
:01453F00007B
:01454000007A
:020000040030CA
:0E00000023285F3CFF5081FF0FC00FE00F4030
:00000001FF
