:04000000F9EF17F00D
:1000080000C01EF001C01DF002C01CF003C01BF0B0
:1000180004C01AF005C019F008C018F009C017F09C
:100028000AC016F00BC015F0E1CF27F0E2CF28F098
:10003800E9CF25F0EACF26F0F3CF23F0F4CF24F070
:10004800F5CF22F0F8CF1FF0F7CF20F0F6CF21F050
:10005800D8EC15F0F2A03CD081BC02D0D88001D0F9
:10006800D8900001B7B103D002E2B79101D0B781AF
:10007800B7B102D0899001D089803F0E2A14016E51
:1000880001C003F00336039003360390026A81B877
:10009800022A02C001F001360190006A81BA002AE2
:1000A8000150001203500012C80E0024F66E3C0ED8
:1000B800F76E000EF722000EF86E000EF822090007
:1000C800F5CF2AF0C00E2A14006E00503712F290B5
:1000D800A1A206D00001B605006E00C0B6F0A1923C
:1000E80022C0F5FF1FC0F8FF20C0F7FF21C0F6FFB0
:1000F80023C0F3FF24C0F4FF1EC000F01DC001F0B0
:100108001CC002F01BC003F01AC004F019C005F0AF
:1001180018C008F017C009F016C00AF015C00BF097
:1001280025C0E9FF26C0EAFF27C0E1FF28C0E2FF9B
:020138001100B4
:10013A000B6A0A6A096A00500402F4CF09F0F3CF85
:10014A0008F001500502F4CF0BF0F3CF0AF000508B
:10015A000502F3500926F4500A22E86A0B220150DC
:10016A000402F3500926F4500A22E86A0B2208C056
:10017A0000F009C001F00AC002F00BC003F012003F
:10018A001E0E6B6E100E0101176F040E186F17C149
:10019A00E1FF18C1E2FFE69E17C1E1FF18C1E2FFC5
:1001AA00E69C040E1725E16E000E1821E26EE68C1D
:1001BA00180E0001A26F040EA36FA2C0E1FFA3C034
:1001CA00E2FFE69EA2C0E1FFA3C0E2FFE69C040EA6
:1001DA00A225E16E000EA321E26EE68C020E010159
:1001EA001725E16E000E1821E26EBEC0E6FFBFC001
:1001FA00E6FF010E1725E16E000E1821E26E400E91
:10020A00E66E17C1E9FF18C1EAFFEECF00F017C189
:10021A00E1FF18C1E2FF400E0014E66E17C1E9FFC4
:10022A0018C1EAFFEECF00F017C1E1FF18C1E2FFE3
:10023A00880E0010E66E17C1C6F018C1C7F0040E8A
:0A024A001719006E00C017F1120032
:1002540004012051800AD8A47AD0C00E0001A76FEF
:100264006BD000014F0E006E3D0E016E000E026E4B
:1002740000C0A4F001C0A5F002C0A6F0120EA86F41
:10028400000EA96F64D00001030E006E000E016E13
:1002940022C404F0000E056E4EDFAA0E0024E96E9F
:1002A400000E0120EA6EEECFA4F0EECFA5F0EECF63
:1002B400A6F0020EA425F66E000EA521F76E000E20
:1002C400A621F86E0900F5CF00F00900F5CF01F082
:1002D40000C0A8F001C0A9F03AD0040122510101E4
:1002E400195D24E3030E006E000E016E22C404F0B7
:1002F400000E056E20DFAD0E0024E96E000E012015
:10030400EA6EEECFA4F0EECFA5F0EECFA6F0A4C037
:10031400F6FFA5C0F7FFA6C0F8FF0900F5CF00F06F
:1003240000C0A8F0000E0001A96F02D00001A76B65
:100334000ED00001A76B0BD004012351010A91E0F8
:100344002351020AA0E02351030AC7E0F2D71200A6
:1003540004012251010A13E120C401F01F0E011609
:100364000150000A0CE10001A78F04012151030A86
:1003740004E1010E0001C56F02D00001C56B040148
:100384002251000AD8A48DD020C401F01F0E0116FA
:100394000150020AD8A485D024C401F00F0E01161E
:1003A4000150000AD8B47DD00001A78F040124BFF6
:1003B40016D024C403F00F0E031603C000F0000E81
:1003C400016E003600900136150E0024E96E010E10
:1003D4000120EA6EEECF04F0EECF05F015D024C470
:1003E40003F00F0E031603C000F0000E016E00367A
:1003F40000900136A00E0024E96E000E0120EA6E82
:10040400EECF04F0EECF05F02151030A07E104C05A
:10041400E1FF05C0E2FF840EE66E43D024C400F081
:100424000F0E00166A0E026E0F0E036E00500226A7
:10043400D8B0032A02C0E9FF03C0EAFFFE0EEE149F
:10044400006EEECF01F0FF0E011602C0E1FF03C003
:10045400E2FF00C0E6FF01C0E6FF24AF11D004C0F4
:10046400E1FF05C0E2FFE66A040E0418006E00C056
:1004740004F004C0E1FF05C0E2FF400EE66E11D0B7
:1004840004C0E1FF05C0E2FF880EE66E040E041806
:10049400006E00C004F004C0E1FF05C0E2FFC80E16
:0404A400E66E1200EE
:1004A80020C401F01F0E01160150010A01E094D08A
:1004B80004012451000A01E08FD02151060A42E1CB
:1004C80037D00001BB51010A17E15B0E006E3C0EEC
:1004D800016E000E026E120E0026000E012202228C
:1004E80000C0A4F001C0A5F002C0A6F0090EA86FD4
:1004F800000EA96FC00EA76F25D00001BB51010ADD
:1005080012E1300E006E3B0E016E000E026E00C04E
:10051800A4F001C0A5F002C0A6F0790EA86F000EE5
:10052800A96FC00EA76F0ED00001800EA76F0AD06A
:1005380004012351210AC5E02351220ADEE0235198
:10054800230AF2E020C401F0600E0116050E006EC9
:10055800005004E00132019EFF0FFBD70150010A51
:1005680001E03AD026D038D037D0B80E0001A46FB9
:10057800000EA56F010EA86F000EA96FC10EA76F20
:100588002BD00001800EA76F23C4B8F025D000013E
:10059800360EA46F000EA56F010EA86F000EA96F8E
:1005A800810EA76F19D00001800EA76F22C436F004
:1005B80013D004012151010AD6E02151090AD4E0DF
:1005C8002151020AD2E021510A0ADBE02151030A33
:0A05D800DEE021510B0AE7E01200FB
:1005E2000401286B296B4AD00001A78F04012881DE
:1005F2000001C551010A02E10401288354D000011F
:10060200A78F51D00001A78F040124BF16D024C4A4
:1006120003F00F0E031603C000F0000E016E003649
:1006220000900136150E0024E96E010E0120EA6EDB
:10063200EECF04F0EECF05F015D024C403F00F0E78
:10064200031603C000F0000E016E00360090013662
:10065200A00E0024E96E000E0120EA6EEECF04F037
:10066200EECF05F004C0E9FF05C0EAFFEECF01F0CE
:1006720001A403D00401010E286F15D020C401F09B
:100682001F0E01160150000AAFE020C401F01F0E38
:1006920001160150010AB3E020C401F01F0E011639
:1006A2000150020AAFE00001A7AF07D0280EA46FE5
:0C06B200040EA56FA781020EA86F1200B5
:1006BE000001A78F6B6AC26B22C4BBF0BB51000A4C
:1006CE0004E1100E01010E6F04D00101200E0E6F19
:0406DE0055DD1200D4
:1006E200000E0001A95D02E1080EA85D10E2A8C09B
:1006F20003F0A9C004F09F51000A03E1010E9F6FAD
:1007020005D09F51010A02E1020E9F6F04D0080E2C
:10071200036E000E046EA0C0E1FFA1C0E2FFE692EC
:10072200A0C0E1FFA1C0E2FFE690A0C0E9FFA1C026
:10073200EAFFEECF00F0A0C0E1FFA1C0E2FF04504B
:100742000010E66E010EA025E16E000EA121E26E00
:1007520003C0E6FF0350A85D006E0450A959016E64
:1007620000C0A8F001C0A9F0280EB96F040EBA6F3C
:10077200A7B12FD0035004102BE0A4C0F6FFA5C0F0
:10078200F7FFA6C0F8FF0900F5CF00F0B9C0E1FFFE
:10079200BAC0E2FF00C0E6FFB94BBA2B010EA42596
:1007A200006E000EA521016E000EA621026E00C091
:1007B200A4F001C0A5F002C0A6F0010E035C006E19
:1007C200000E0458016E00C003F001C004F0D2D73D
:1007D20024D00350041021E0A4C0E9FFA5C0EAFF21
:1007E200B9C0E1FFBAC0E2FFEECFE6FFB94BBA2BC8
:1007F200010EA425006E000EA521016E00C0A4F01A
:1008020001C0A5F0010E035C006E000E0458016EDB
:0C08120000C003F001C004F0DCD71200AD
:10081E00010E01011125E96E000E1221EA6EEECFD6
:10082E0000F000C002F0000E315C02E10250305CBC
:10083E0003E230C002F00AD00250305C006E000EAF
:10084E003158016E00C030F001C031F0036A025021
:10085E00035C1CE2280EE96E040EEA6E0350E926D4
:10086E00D8B0EA2AEECF00F02DC0E1FF2EC0E2FF95
:10087E0000C0E6FF010E2D24006E000E2E20016E2C
:10088E0000C02DF001C02EF0032AE1D7000E006E3D
:10089E003150005C02E13050000829E2010E0001E7
:1008AE00BC25E16E000EBD21E26E080EE66E020E54
:1008BE00BC25E16E000EBD21E26E280EE66E040E22
:1008CE00E66E11C1E9FF12C1EAFFEECF00F000BCE7
:1008DE0007D0BCC0E1FFBDC0E2FFC80EE66E06D079
:1008EE00BCC0E1FFBDC0E2FF880EE66E1AD000016B
:1008FE00010EBC25E16E000EBD21E26E080EE66E05
:10090E00020EBC25E16E000EBD21E26E200EE66EDB
:10091E00040EE66EBCC0E1FFBDC0E2FF840EE66EC3
:04092E002F9E1200E6
:0A09320001010F5301E0B7DD1200D0
:10093C0060980001A7BF49D02FAE28D0020E3B6EA5
:10094C00010EA025E16E000EA121E26EE66AA0C0A8
:10095C00E1FFA1C0E2FFC80EE66E010EBC25E16E00
:10096C00000EBD21E26E080EE66E020EBC25E16E95
:10097C00000EBD21E26E280EE66E040EE66EBCC0C3
:10098C00E1FFBDC0E2FFC80EE66E1ED0010EBC2515
:10099C00E16E000EBD21E26E080EE66E020EBC2565
:1009AC00E16E000EBD21E26E200EE66E040EE66EC8
:1009BC00BCC0E1FFBDC0E2FF8C0EE66EA0C0E1FF43
:1009CC00A1C0E2FF840EE66E84D02FBE82D004015B
:1009DC0020AF57D00001A9510401275D04E10001AB
:1009EC00A8510401265D04E226C4A8F027C4A9F08E
:1009FC0072DE010E3B6E010EBC25E16E000EBD21B8
:100A0C00E26E080EE66E020EBC25E16E000EBD21F4
:100A1C00E26E200EE66E040EE66EBCC0E1FFBDC0B9
:100A2C00E2FF800EE66E0101106B010E1125E16EE6
:100A3C00000E1221E26E080EE66E020E1125E16E1A
:100A4C00000E1221E26E200EE66E040EE66E11C14F
:100A5C00E1FF12C1E2FF840EE66E010E106F020E72
:100A6C000001A025E16E000EA121E26E280EE66EBB
:100A7C00040EE66EA0C0E1FFA1C0E2FFC80EE66E58
:100A8C0028D00001020E3B6E010EA025E16E000E77
:100A9C00A121E26EE66AA0C0E1FFA1C0E2FFC80E90
:100AAC00E66E010EBC25E16E000EBD21E26E080E55
:100ABC00E66E020EBC25E16E000EBD21E26E280E24
:100ACC00E66E040EE66EBCC0E1FFBDC0E2FFC80ED0
:040ADC00E66E1200B0
:100AE00020C401F0600E0116050E006E005004E0F7
:100AF0000132019EFF0FFBD70150000A01E060D0D8
:100B00003CD00001A78F080E01010E6F59D02AECCE
:100B100001F056D0D4DD54D0BB0E0001A46F000EFE
:100B2000A56FA781010EA86FA78F4AD05ADD48D0C4
:100B300011DC46D0C20E006E000E016E040124517D
:100B40000026D8B0012A00C0A4F001C0A5F0000121
:100B5000A781010EA86FA78F33D00001A78FC20E07
:100B6000E16E000EE26E04012451E126D8B0E22AC3
:100B700022C4E6FF25D024D023D004012151050A48
:100B8000C0E02151060AC3E02151090AC3E0215106
:100B9000080AC2E02151000AC9E02151010AC8E057
:100BA0002151030AC5E021510A0AC4E021510B0A70
:100BB000D4E02151070ADFE021510C0ADDE0DCD747
:020BC000120021
:100BC2005B0E0001AA6F3C0EAB6F000EAC6F770E8E
:100BD200AD6F430EAE6F000EAF6F280EB06F3D0EBD
:100BE200B16F000EB26F840EB36F3C0EB46F000E85
:040BF200B56F1200C9
:0E0BF600160E626E9F0E666E3B0E646E12004F
:100C04003B6AA0C0E1FFA1C0E2FFE66A040E000156
:100C1400A019E16EA1C0E2FF000EE21AE66A2FBE3F
:040C24002F9E1200ED
:100C2800040E0001A019006E00C0A0F001010E51D1
:100C3800080A0AE122C463FF6350000803E2100EA9
:100C48000E6F02D0040E0E6F3B50010A3BE1020EFC
:100C58000001A025E16E000EA121E26E280EE66ECD
:100C6800040EE66E3ADD9F51020A07E1A0C0E1FFDB
:100C7800A1C0E2FF840EE66E24D0040EA019006E17
:100C880000C0A0F0A0C0E9FFA1C0EAFFEECF00F0CD
:100C980000BC0CD0040EA019006E00C0A0F0A0C0CB
:100CA800E1FFA1C0E2FFC80EE66E0BD0040EA0194A
:100CB800006E00C0A0F0A0C0E1FFA1C0E2FF880E56
:080CC800E66E01D09BDF120073
:100CD0003B50020A02E1A3DD21D094DF0101105153
:100CE000000A1AE1010E0001BC25E16E000EBD21D3
:100CF000E26E080EE66E020EBC25E16E000EBD210E
:100D0000E26E200EE66E040EE66EBCC0E1FFBDC0D2
:0E0D1000E2FF8C0EE66E02D00101106B1200A5
:100D1E00A0C0E9FFA1C0EAFFEECF00F000AE05D003
:100D2E00A0C0E1FFA1C0E2FFE66A00019F6B3B6A33
:0E0D3E00A86BA96BA76BCDDEF5DDF9DD120009
:100D4C006AA019D011C1E9FF12C1EAFFEECF01F080
:100D5C000150800A0FE1A0C0E9FFA1C0EAFFEECF6D
:100D6C0001F00150840A06E111C1E1FF12C1E2FF5A
:0C0D7C008C0EE66E6A90DF0E6516120009
:040D8800A49412001D
:100D8C006092649465A403D0FB0E6516FBD7120029
:0A0D9C006484EF0E651660821200F9
:100DA6000DDFC66BC76B0101136B146B676A656A4F
:100DB6001FDF608C636A6B6A609C0001C36BC46B47
:100DC600000EC45D02E1080EC35D17E2C3C000F069
:100DD600C4C001F00036009001360036009001369E
:100DE600000E0024E16E040E0120E26EE66AE66A59
:100DF600E66AE66AC34BC42BE3D7160E6A6E65A68F
:100E060003D0F70E6516FBD7A76B2F6A306A316AD7
:100E16006098080EA06F040EA16FBB6B01010E6BEC
:020E26001200B8
:100E280001010E51000A0AE1606A646AE0DE60B6F8
:100E380002D06086FCD70101010E0E6F0E51010A27
:100E480008E160BA06D0656A646A64806488020E44
:100E58000E6F65A405D064A403D0FB0E651692DF5F
:100E680060A202D08DDFD8D065A018D064A016D0BB
:100E780096DF040E0E6F200E0401026F040E036F3E
:100E8800080E016F000E0015006E00C000F48C0EF5
:100E98000011006E00C000F4FE0E651665A805D0AE
:100EA80064A803D077DFEF0E651665AC04D064AC98
:100EB80002D0BF0E651665AA03D064AA01D042DF2E
:100EC80065A202D064B2676A040E01010E5D02E2F7
:100ED80057DFA2D064A69FD0556B040E555DD8B0DD
:100EE8009AD065A694D061CF1EF1F70E6516780EDC
:100EF8001E15016E0150000AD8A488D0FD0E1E15DB
:100F0800016E026AFF0E0216000E021802E1000EC0
:100F180001186DE17E0E1E15016E01C003F003324B
:100F2800039E03C000F0000E016E003600900136EB
:100F3800003600900136000E0024026E040E0120D7
:100F4800036E02C011F103C012F102C0BCF003C06D
:100F5800BDF0040E0001BC19006E00C0BCF002C058
:100F6800E9FF03C0EAFFEECF00F000C001F03C0E3D
:100F780001160132019E0132019E01500D0A35E130
:100F8800020E01011125E96E000E1221EA6EEECF64
:100F980001F0EECF02F00250040A02E1280E011817
:100FA80022E1020E1125E16E000E1221E26E200EE2
:100FB800E66E040EE66E546B080E545D14E2200EC5
:100FC800E16E040EE26E5451E126D8B0E22A280EF2
:100FD800E96E040EEA6E5451E926D8B0EA2AEECF3B
:100FE800E6FF542BE9D797DE01D06EDE0ED0FD0E5A
:100FF80001011E15016E026AFF0E0216000E02188C
:1010080002E1040E011801E10BDE00D001D003D08B
:0A1018000101552B62D7B4DE12006F
:1010220001015551000A12E054C100F0000E016E98
:10103200003600900136A00E0024E96E000E012059
:10104200EA6EEECF04F0EECF05F011D054C100F0FD
:10105200000E016E003600900136150E0024E96E76
:10106200010E0120EA6EEECF04F0EECF05F0020E83
:101072000424E16E000E0520E26E56C1E6FF57C160
:10108200E6FF010E0424E16E000E0520E26E58C157
:10109200E6FF04C0E9FF05C0EAFFEECF00F004C09E
:1010A200E1FF05C0E2FF400E0014E66E04C0E9FF56
:1010B20005C0EAFFEECF00F004C0E1FF05C0E2FF89
:1010C200880E0010E66E5551000A1BE054C100F074
:1010D200000E016E003600900136A00E0024026E52
:1010E200000E0120036E02C0E9FF03C0EAFF040EF6
:1010F200EE18006E02C0E1FF03C0E2FF00C0E6FF8F
:101102001AD054C100F0000E016E00360090013674
:10111200150E0024026E010E0120036E02C0E9FFCB
:1011220003C0EAFF040EEE18006E02C0E1FF03C026
:10113200E2FF00C0E6FF04C000F005C001F01200AB
:10114200000E0101551902E1000E541902E1016A73
:101152000AD054C1E9FF55C1EAFFEECF00F0000EFC
:0C11620000BE010E016E01C000F0120082
:10116E00200E01010E5D03E360B201D002D0006AD1
:10117E0046D013C154F114C155F1DCDF00523EE1EB
:10118E0051C154F1010E556F4EC156F14FC157F179
:10119E0050C158F13FDF00C013F101C014F11A6BBA
:1011AE001B6B1C6B1D6B13C154F114C155F1C2DFC7
:1011BE0000520FE0010E016E0150000A01E12DDE1A
:1011CE0001011A511B111C111D1102E0006A17D0EA
:1011DE00EAD713C152F114C153F1000E141902E1F2
:1011EE00000E131909E0010E5225E96E000E53216F
:1011FE00EA6EEECF00F003D0006A01D0006A120052
:10120E004BC14EF14CC14FF14DC150F1010E0101D8
:06121E00516FA6DF120073
:101224003CB001D021D04B0E0501086F2CC009F54C
:101234000A6B2BC00BF5080E01014B6F050E4C6FAA
:10124400040E4D6FE2DF005201E1F5D70501096B91
:101254000B6B080E01014B6F050E4C6F040E4D6FA6
:0A126400D4DF005201E1F5D71200BB
:10126E00C80E056E000E066E05C003F006C004F033
:10127E00054A062A48C100F049C101F04AC102F0F0
:10128E00010E01014827000E49234A2300C0F6FF34
:10129E0001C0F7FF02C0F8FF0900F5CF00F003C050
:1012AE00E1FF04C0E2FF00C0E6FF03C0E9FF04C097
:1012BE00EAFFEE5201E0D8D7C80E006E000E016EA6
:0212CE0012000C
:1012D000220E0C6E086A096A0A6A0B6A0C06D8B4F8
:1012E0001FD0D8900B320A32093208320332023250
:1012F00001320032D8A0F2D70C06D8B409D004507D
:1013000008260550092206500A2207500B22EAD768
:10131000045008260550092206500A2207500B22C5
:021320001200B9
:1013220048C1E9FF49C1EAFFEE5238E02C6A48C1E0
:10133200E9FF49C1EAFF800EEE5C25E248C1D9FF10
:1013420049C1DAFFB00EDE24F66E3A0EF76E000ED9
:10135200F722000EF86E000EF8220900F5CF00F019
:1013620000C04AF100520DE001014AAF07D02C80C3
:101372007F0E4A15006E00C02BF002D04AC12BF03E
:1013820001D02B6A06D048C1E9FF49C1EAFFEECF7E
:0E1392004AF147DF0101484B492BC2D7120038
:1013A000650E0101455D20E2030E006E000E016E28
:1013B000026E036E45C104F0000E056E066E076EE8
:1013C00087DF810E0024F66E390E0120F76E000EC5
:1013D0000220F86E0900F5CF00F00900F5CF01F00A
:1013E0000900F5CF02F006D0440E006E450E016EE6
:0613F000000E026E120067
:1013F600086A080E0C6E003408360450085ED8B031
:0E14060002D00826D89000360C2EF5D7120022
:10141400870E0101455D20E2030E006E000E016E91
:10142400026E036E45C104F0000E056E066E076E73
:101434004DDFEC0E0024F66E370E0120F76E000E21
:101444000220F86E0900F5CF00F00900F5CF01F095
:101454000900F5CF02F006D04B0E006E450E016E6A
:06146400000E026E1200F2
:10146A0045C148F146C149F147C14AF1FBDE00C016
:0A147A0048F101C049F150DF1200F3
:10148400F00E01014515026E02C000F00032009E0C
:101494000032009E0032009E0032009E610E002445
:1014A400F66E3D0EF76E000EF722000EF86E000E7B
:1014B400F8220900F5CF00F046C1E1FF47C1E2FF81
:1014C40000C0E6FF464B472B0F0E4515006E610E1C
:1014D4000024F66E3D0EF76E000EF722000EF86E35
:1014E400000EF8220900F5CF00F046C1E1FF47C124
:1014F400E2FF00C0E6FF464B472B46C1E1FF47C170
:06150400E2FFE66A12009E
:10150A003CB001D021D04B0E0501086F3EC109F550
:10151A000A6B3FC10BF5080E01014B6F050E4C6FAC
:10152A00040E4D6F6FDE005201E1F5D70501096B1C
:10153A000B6B080E01014B6F050E4C6F040E4D6FBD
:0A154A0061DE005201E1F5D7120046
:101554000101416B030E415D0AE241513F25E16EF9
:10156400000E4021E26E200EE66E412BF3D741516E
:101574003F25E16E000E4021E26EE66A41074151CB
:101584003F25426F000E4021436F0A0E046E3EC198
:1015940000F02FDF08C000F0300E002642C1E1FF4A
:1015A40043C1E2FF00C0E6FF0A0E046E3EC100F034
:1015B40020DF00C03EF10050000A01E102D04107E3
:0415C400DED712005C
:1015C8003EC145F13F0E0101466F010E476F56DFE0
:0C15D8003F0E486F010E496FA0DE1200AC
:1015E400010E01013E25E96E000E3F21EA6EEECFA9
:1015F40000F000A607D01E0E456F420E466F000E87
:10160400476F31DF010E01013E25E96E000E3F21D7
:10161400EA6EEECF00F000A207D0230E456F420E13
:10162400466F000E476F1FDF010E01013E25E96E74
:10163400000E3F21EA6EEECF00F000A407D0320E78
:10164400456F420E466F000E476F0DDF010E01011C
:101654003E25E96E000E3F21EA6EEECF00F000A0B9
:1016640007D06A0E456F410E466F000E476FFBDED2
:02167400120062
:10167600020E01013E25436F000E3F21446FB0D09C
:10168600010E3E25E96E000E3F21EA6EEECF00F018
:1016960000A01FD03EC1E9FF3FC1EAFFEECF45F1F2
:1016A6007CDE00C040F101C041F102C042F100C041
:1016B600F6FF01C0F7FF02C0F8FF0900F5CF00F002
:1016C600005207E040C100F041C101F042C102F002
:1016D600A8D03EC1E9FF3FC1EAFFEECF45F197DE54
:1016E600A0D03EC1E9FF3FC1EAFFEECF01F00F0EE9
:1016F600015C24E23EC1E9FF3FC1EAFFEECF00F004
:10170600000E016E026E036E030E046E000E056E71
:10171600066E076EDADD2E0E0024F66E3C0E0120F4
:10172600F76E000E0220F86E0900F5CF00F00900F2
:10173600F5CF01F00900F5CF02F073D03D0E006E33
:10174600450E016E000E026E6CD03EC1E9FF3FC130
:10175600EAFFEECF00F0EECF01F0FF0E0014026EAE
:1017660001500F0B036E020E035C02E1A00E025C39
:1017760029E23EC1E9FF3FC1EAFFEECF00F0EECF1E
:1017860001F0FF0E00160F0E0116000E026E036E1C
:10179600030E046E000E056E066E076E96DD0C0EC9
:1017A6000024F66E300E0120F76E000E0220F86E51
:1017B6000900F5CF00F00900F5CF01F00900F5CFDB
:1017C60002F02FD03E0E006E450E016E000E026E28
:1017D60028D0410E006E450E016E000E026E21D01D
:1017E60043C1E9FF44C1EAFF0F0EEE14016E01503A
:1017F600000AD8B445D743C1E9FF44C1EAFF0F0E3A
:10180600EE14016E0150010AD8B46BD743C1E9FF4B
:1018160044C1EAFF0F0EEE14016E0150020A95E074
:04182600D8D71200FD
:10182A004F0E006E3D0E016E000E026E0E0E00246B
:10183A00F66E000E0120F76E000E0220F86E090007
:10184A00F5CF03F003C004F00F0E0024F66E000E6D
:10185A000120F76E000E0220F86E0900F5CF01F0A4
:10186A000150035C12E24F0E006E3D0E016E000E37
:10187A00026E0F0E0024F66E000E0120F76E000EA7
:10188A000220F86E0900F5CF04F04F0E006E3D0EEF
:10189A00016E000E026E100E0024F66E000E01207C
:1018AA00F76E000E0220F86E0900F5CF01F0015024
:1018BA00045C12E24F0E006E3D0E016E000E026EC7
:1018CA00100E0024F66E000E0120F76E000E0220A4
:0E18DA00F86E0900F5CF04F004C000F0120013
:1018E8000101346B356B366B020E3125F66E000E36
:1018F8003221F76E000E3321F86E0900F5CF05F09E
:10190800030E3125F66E000E3221F76E000E3321DC
:10191800F86E0900F5CF00F000C003F0000E046E69
:1019280003C001F0006A05500024066E000E012075
:10193800076E31C108F032C109F033C10AF0010E57
:101948000824F66E000E0920F76E000E0A20F86EC5
:101958000900F5CF01F00150020A1BE1060E082428
:10196800F66E000E0920F76E000E0A20F86E0900C8
:10197800F5CF01F00150345D0CE2060E0824F66E36
:10198800000E0920F76E000E0A20F86E0900F5CF48
:1019980034F1010E0824F66E000E0920F76E000ED1
:1019A8000A20F86E0900F5CF01F00150040A1BE186
:1019B800080E0824F66E000E0920F76E000E0A20A5
:1019C800F86E0900F5CF01F00150345D0CE2080E05
:1019D8000824F66E000E0920F76E000E0A20F86E35
:1019E8000900F5CF34F108C0F6FF09C0F7FF0AC0B7
:1019F800F8FF0900F5CF00F000503525016E000E04
:101A08003621026E01C035F102C036F10750025C82
:101A180002E10650015C01E30FD008C0F6FF09C0DF
:101A2800F7FF0AC0F8FF0900F5CF00F000500826BC
:0E1A3800000E09220A2283D734C100F01200EA
:0A1A4600D08EA584A384F28E120056
:101A500031C13EF1B9DD01013E6B2C0E3F6F55DD0A
:101A6000020E01013225E96E000E3321EA6E0F0EDF
:101A7000EE143E6F3E373E913E373E913E373E91EB
:101A80003E373E91010E3225E96E000E3321EA6E9B
:101A9000EECF00F00F0E001600503E1395DD32C160
:101AA000E9FF33C1EAFFEECF3EF18EDD01013E6B6F
:101AB0002C0E3F6F2ADD020E010132253C6F000E15
:101AC00033213D6FE2D032C13EF133C13FF18ADDB7
:101AD00032C13EF133C13FF1CEDD00C045F101C05E
:101AE00046F102C047F1C1DCF1D0010E01013225FF
:101AF000006E000E3321016E00C03AF101C03BF1CF
:101B000073D00101FA0E456F410E466F000E476F0C
:101B1000ACDC32C1E9FF33C1EAFFEECF3EF1360E55
:101B200001013F6F010E406F15DD360E346F010E5F
:101B3000356F34C1E9FF35C1EAFFEE50200A03E1F9
:101B4000344B352BF6D734C148F135C149F191EC0E
:101B500009F0460E0101456F420E466F000E476FB9
:101B600084DC62D0DC0E0101456F410E466F000E31
:101B7000476F7BDC32C1E9FF33C1EAFFEECF3EF1B4
:101B8000360E01013F6F010E406FE4DC360E346FFC
:101B9000010E356F34C1E9FF35C1EAFFEE50200A6E
:101BA00003E1344B352BF6D734C148F135C149F147
:101BB00091EC09F04B0E0101456F430E466F000E8C
:101BC000476F53DC31D0E20E0101456F410E466F85
:101BD000000E476F4ADC32C1E9FF33C1EAFFEECFA6
:101BE0003EF1F2DC21D020D03AC1E9FF3BC1EAFF4F
:101BF0000F0EEE14016E01500F0AD8B482D73AC10D
:101C0000E9FF3BC1EAFF0F0EEE14016E01500E0A10
:101C1000A9E03AC1E9FF3BC1EAFF0F0EEE14016EE5
:101C20000150000AD0E0DFD751D0C10E0101456F4D
:101C30003D0E466F000E476F18DC0101315316E070
:101C400032C1E9FF33C1EAFFEECF01F03151015C4F
:101C500006E332C1E1FF33C1E2FF3105E66E32C176
:101C6000E9FF33C1EAFFEECF3EF1AEDC2FD032C147
:101C70003EF133C13FF1FFDC00C045F101C046F148
:101C800002C047F135EC0AF021D03CC1E9FF3DC16B
:101C9000EAFF0F0EEE14016E0150000AD8B413D7FC
:101CA0003CC1E9FF3DC1EAFF0F0EEE14016E015089
:101CB0000F0AD8B41AD73CC1E9FF3DC1EAFF0F0EA5
:0E1CC000EE14016E01500B0AB0E0D1D71200F5
:101CCE002FC131F1030E006E000E016E2FC104F014
:101CDE00000E056E9DEC00F03F0E00240101326FE8
:0A1CEE00000E0120336FADDE12007E
:101CF800020E01013E6F4A0E3F6F03DC01012F0700
:101D08002F5306E03E6B510E3F6F85EC0AF0F6D775
:021D18001200B7
:0A1D1A00606A646A01010E6B12009A
:101D2400020E01013E6F4A0E3F6F85EC0AF0030E6E
:0E1D340001013E6F4D0E3F6F85EC0AF012006C
:101D420001013E6B280E3F6F85EC0AF001013E6BEC
:0A1D52004A0E3F6F85EC0AF0120004
:101D5C0066DD00C02FF15B0E0101316F3C0E326F5E
:101D6C00000E336FBBDD00C030F12F51005C03E27D
:0C1D7C002FC100F002D030C100F01200B6
:101D8800020E01013E6F4A0E3F6F85EC0AF0010119
:101D98002F072F5306E03E6B510E3F6F85EC0AF07C
:101DA800F6D7010E01013E6F4D0E3F6F85EC0AF02C
:021DB800120017
:101DBA0001010E51000A0BE1606A646AFBEC05F04E
:101DCA003DDE60B602D06086FCD7010E0E6F1200AF
:101DDA00020E01013E6F4D0E3F6F85EC0AF0010EB7
:101DEA0001013E6F4A0E3F6F85EC0AF001013E6B1E
:101DFA004C0E3F6F85EC0AF001013E6B2A0E3F6FD5
:061E0A0085EC0AF0120055
:101E10003FD0260E006E3E0E016E000E026E69D09F
:101E2000AC0E006E3C0E016E000E026E62D0E40E2F
:101E3000006E3C0E016E000E026E5BD0500E006E06
:101E40003E0E016E000E026E54D0920E006E3D0EDC
:101E5000016E000E026E4DD02D0E006E400E016E12
:101E6000000E026E46D0FC0E006E3D0E016E000E9E
:101E7000026E3FD03C0E006E3D0E016E000E026EF3
:101E800038D07F0E006E440E016E000E026E31D00F
:101E90000F0E3A14016E0150000ABBE00F0E3A1407
:101EA000016E0150020ABCE00F0E3A14016E01509F
:101EB000010ABDE00F0E3A14016E01500B0ABEE09C
:101EC0000F0E3A14016E01500C0ABFE00F0E3A14C7
:101ED000016E01500D0AC0E00F0E3A14016E015060
:101EE0000E0AC1E00F0E3A14016E01500F0AC2E053
:041EF000C8D712003D
:101EF400030E01012F6F46DF3EC03EF1E4EC0AF011
:101F0400C80E0101456F430E466F000E476F35EC56
:101F14000AF00F0E3A140101456F2B0E466F010EA5
:101F2400476F42EC0AF02C0E486F010E496F91EC9A
:101F340009F0370E0101456F420E466F000E476FE0
:101F440035EC0AF00F0E3A1401012F6F5FDF00C069
:101F540045F101C046F102C047F135EC0AF0D20E5A
:101F64000101456F430E466F000E476F35EC0AF0D2
:101F74003EC03EF1E4EC0AF0010E01013E6F4A0E50
:081F84003F6F85EC0AF012002A
:101F8C002BC129F0020E01012F6FF8DE01012B513C
:101F9C00000A09E1A90E456F3B0E466F000E476F14
:101FAC0035EC0AF009D0ED0E0101456F3B0E466F82
:101FBC00000E476F35EC0AF0030E01012F6FDEDEC9
:021FCC00120001
:101FCE002BC1E9FF2CC1EAFFEECF00F0EECF01F0FE
:101FDE00FF0E001401012D6F01500F0B2E6F2D4BB4
:101FEE002E2B020E2E5D02E1A00E2D5D30E2030EB1
:101FFE00006E000E016E026E036E2DC104F02EC136
:10200E0005F0000E066E076E68EC09F00C0E00244B
:10201E00F66E300E0120F76E000E0220F86E0900EB
:10202E00F5CF00F00900F5CF01F00900F5CF02F071
:10203E0000C0F6FF01C0F7FF02C0F8FF0900F5CFA0
:10204E0001F00150000A03E12D4B2E2BCAD7020ED0
:10205E002E5D02E1A00E2D5D46E32D6B2E6B2BC186
:10206E00E9FF2CC1EAFFEECF00F0EECF01F0FF0E3C
:10207E000014026E01500F0B036E03502E5D02E131
:10208E0002502D5D30E2030E006E000E016E026EE8
:10209E00036E2DC104F02EC105F0000E066E076E04
:1020AE0068EC09F00C0E0024F66E300E0120F76E6F
:1020BE00000E0220F86E0900F5CF00F00900F5CFF2
:1020CE0001F00900F5CF02F000C0F6FF01C0F7FFE6
:1020DE0002C0F8FF0900F5CF01F00150000A03E13C
:1020EE002D4B2E2BBCD72DC100F02EC101F01200AE
:1020FE0012DE01013E6B4C0E3F6F85EC0AF01200B2
:10210E003CB001D023D0430E0501086F2BC009F55A
:10211E000F0E2C140A6F080E01014B6F050E4C6F3B
:10212E00030E4D6F07EC09F0005201E1F4D70501E3
:10213E00096B0A6B080E01014B6F050E4C6F030EF7
:0E214E004D6F07EC09F0005201E1F4D71200CA
:10215C00FFDD00C019F1010E0F6F2BC1BEF02CC1B9
:10216C00BFF02DC1C0F02EC1C1F0D3EC06F0010EB2
:0C217C00016E0150010A01E11ADE1200A0
:10218800020E01013E6F4D0E3F6F85EC0AF0010112
:102198002B6B3D502B5D07E2D0DD2BC12FF193DD7A
:0821A80001012B2BF6D71200F8
:1021B0002BC1E9FF2CC1EAFFEECF00F0EECF01F01A
:1021C000FF0E001401012D6F01500F0B2E6F010E39
:1021D0002D5F000E2E5B000E006E2E51005C02E1A2
:1021E0002D51000832E2030E006E000E016E026EE9
:1021F000036E2DC104F02EC105F0000E066E076EB1
:1022000068EC09F00C0E0024F66E300E0120F76E1B
:10221000000E0220F86E0900F5CF00F00900F5CF9E
:1022200001F00900F5CF02F000C0F6FF01C0F7FF92
:1022300002C0F8FF0900F5CF01F00150000A05E1E6
:10224000010E2D5F000E2E5BC6D7000E2E1902E187
:10225000000E2D194AE1A00E2D6F020E2E6F2BC11C
:10226000E9FF2CC1EAFFEECF00F0EECF01F0FF0E48
:102270000014026E01500F0B036E2E51035C02E13D
:102280002D51025C32E2030E006E000E016E026EF2
:10229000036E2DC104F02EC105F0000E066E076E10
:1022A00068EC09F00C0E0024F66E300E0120F76E7B
:1022B000000E0220F86E0900F5CF00F00900F5CFFE
:1022C00001F00900F5CF02F000C0F6FF01C0F7FFF2
:1022D00002C0F8FF0900F5CF01F00150000A05E146
:1022E000010E2D5F000E2E5BBAD72DC100F02EC15E
:0422F00001F01200E7
:1022F4003D5265E001012B513D1805E13D063DC00D
:102304003EF069DD58D02BC12CF13D5001012C5D0C
:102314002AE2030E006E000E016E2CC104F0000EC2
:10232400056E9DEC00F03F0E0024E16E000E0120CE
:10233400E26E2C51010F006E016A000E0122030EA1
:10234400046E000E056E9DEC00F03F0E0024E96E55
:10235400000E0120EA6E030E006EEECFE6FF0006CB
:10236400FCE12C2BD2D73D063DC03EF02B51060F8D
:102374002F6FC0DC030E01013E6F4D0E3F6F85ECE5
:102384000AF001013E6B4C0E3F6F85EC0AF0010E22
:1023940001013E6F500E3F6F85EC0AF02BC12CF10A
:1023A4003D5001012C5D07E2CADC2CC12FF18DDC0C
:1023B40001012C2BF5D70101030E2F6FE3DC120072
:0423C400AADC12007D
:1023C8003CB001D01FD0530E0501086F2BC009F592
:1023D800080E01014B6F050E4C6F020E4D6F07EC96
:1023E80009F0005201E1F4D70501096B080E01015B
:1023F8004B6F050E4C6F020E4D6F07EC09F0005243
:0624080001E1F4D712000F
:10240E0081BC1AD0375217E0B190800E006E800E4C
:10241E0037BE7F0E005C02E13750000805E23D50EA
:10242E003E5CD8A03E2A04D03E500008D8A03E06FE
:10243E005ADD376A00D0E4D70F0E3A14016E015000
:10244E00000A08E1F00E3914006E00C039F0040ED7
:10245E00386E0AD0000E3814006E3950F00B016E33
:10246E0000C038F001C039F0010E01012B6F87DD7D
:10247E003EC031F1380E0101326F000E336F28EC81
:04248E000DF012003B
:10249200010E0101236F160E0001B66FB18081BCDF
:1024A200A8D03752D8B4A4D0B1900101236B030E47
:1024B2002F6F69DC7DD0800E006E800E37BE7F0EDE
:1024C200005C02E13750000810E20F0E3914006E72
:1024D200000E016E004A012A3950001A0F0E001632
:1024E2003950001A00C039F00FD00F0E3914006EA7
:1024F2000006016A000E015A3950001A0F0E00162A
:102502003950001A00C039F068D0800E006E800E7B
:1025120037BE7F0E005C02E13750000819E2FF0E61
:102522003814006E39500F0B016E004A012A3850E0
:10253200001A3950011AFF0E00160F0E01163850FC
:10254200001A3950011A00C038F001C039F01AD00F
:10255200FF0E3814006E39500F0B016E010E005E33
:10256200000E015A3850001A3950011AFF0E001697
:102572000F0E01163850001A3950011A00C038F0F7
:1025820001C039F02AD0800E006E800E37BE7F0E59
:10259200005C02E13750000806E23850010F006E7D
:1025A20000C038F004D03804006E00C038F015D0F6
:1025B2000F0E3A14016E0150000AD8B47CD70F0EE8
:1025C2003A14016E01500F0AD8B475D70F0E3A149F
:1025D200016E0150020A99E0D6D73EC031F1380EA1
:1025E2000101326F000E336F28EC0DF0376A00D014
:1025F20056D7B19001012353D8B473D00F0E3A14B9
:10260200016E01500B0A04E138C02BF172DE56D084
:102612003D503E5C2EE3200E3E5C2AE2020E01019A
:102622003E6F4D0E3F6F85EC0AF0A1EC0EF0030EEB
:10263200006E000E016E3EC004F0000E056E9DECB1
:1026420000F03F0E0024E16E000E0120E26E030E48
:10265200006E380EE96E000EEA6EEECFE6FF00065F
:10266200FCE13EC02FF167EC0EF03E2A3EC03DF089
:1026720025D0030E006E000E016E3EC004F0000E67
:10268200056E9DEC00F03F0E0024E16E000E01206D
:10269200E26E030E006E380EE96E000EEA6EEECFA9
:1026A200E6FF0006FCE13E50060F01012F6FC4EC6D
:1026B2000EF03EC02FF167EC0EF03E2A030E010130
:1026C2002F6FC4EC0EF03EC031F1380E0101326FB3
:1026D200000E336F28EC0DF0030E01012F6FC4ECD6
:0426E2000EF01200E4
:1026E6003F0E0101256F000E266F0001B7918990FC
:1026F6000101236B3D50235DD8B018D10001B7B15D
:1027060015D1020E01012525296F000E26212A6FFB
:10271600D9D00101010E2525E96E000E2621EA6EAB
:10272600EECF00F00F0E001600C02CF025C1E9FF19
:1027360026C1EAFFEECF00F000C02BF012EC09F044
:10274600EED025C1E9FF26C1EAFFEECF00F000C0BA
:102756002BF037DEE4D025C1E9FF26C1EAFFEECF34
:1027660000F0EECF01F0FF0E0014036E01500F0BC8
:10277600046E04C000F0016A00C02CF025C1E9FF18
:1027860026C1EAFFEECF00F0EECF01F0FF0E0016F5
:102796000F0E011600C02BF0B7DCC1D0010E0101EF
:1027A6002525006E000E2621016E00C027F101C00E
:1027B60028F167D025C1E9FF26C1EAFFEECF24F153
:1027C6000001B7B115D024C100F001012407005261
:1027D6000FE03D0E0B6EE10E0C6E3F0E0D6E0D2ED4
:1027E600FED70C2EFCD70B2EFAD700000000E8D738
:1027F60067D025C1E9FF26C1EAFFEECF24F100012B
:10280600B7B102D0058001D0059024C101F00101C5
:102816002407006A05B0002A015000160AE0100ECF
:102826000C6E940E0D6E0D2EFED70C2EFCD70000EE
:10283600E6D746D025C1E9FF26C1EAFFEECF01F073
:102846003D50015C1CE2010125C1E9FF26C1EAFFFA
:10285600EECF00F000C023F1000E016E030E046EF1
:10286600000E056E9DEC00F03F0E0024256F000E55
:102876000120266F030E255F000E265B230720D05E
:102886001FD027C1E9FF28C1EAFF0F0EEE14016E23
:1028960001500F0A8FE027C1E9FF28C1EAFF0F0E9A
:1028A600EE14016E01500E0AA4E027C1E9FF28C10B
:1028B600EAFF0F0EEE14016E0150000ABBE0E0D7EE
:1028C6002ED02DD029C1E9FF2AC1EAFF0F0EEE1442
:1028D600016E0150000AD8B41CD729C1E9FF2AC1EC
:1028E600EAFF0F0EEE14016E0150010AD8B429D783
:1028F60029C1E9FF2AC1EAFF0F0EEE14016E01504D
:10290600020AD8B428D729C1E9FF2AC1EAFF0F0E67
:10291600EE14016E01500F0AD8B440D7D2D7010188
:10292600232B030E2527000E2623E4D60001B7919C
:042936008990120072
:10293A000101235339E00101800E006E800E23BF8E
:10294A007F0E005C02E1235100080AE20F0E3A14DE
:10295A00246F256B000E2517242B000E256F09D036
:10296A000F0E3A14246F256B000E25172407000E4C
:10297A00256F0F0E2415006E3A50001A0F0E00161E
:10298A003A50001A00C03AF00F0E3A142F6F08ECB2
:10299A000FF000C0F6FF01C0F7FF02C0F8FF090000
:0A29AA00F5CF00F00052C7E0120064
:1029B4007FEC10F0DF0E0101456F3D0E466F000EF7
:1029C400476F35EC0AF0A1EC0EF0A1EC0EF0A1EC8F
:1029D4000EF0A1EC0EF0D00E0101456F3D0E466FD6
:1029E400000E476F35EC0AF0C4EC10F0F00E3A1408
:1029F400006E00C03AF0040E386EF00E3914006E0A
:102A040000C039F07AEC0FF001012B6BC6EC0FF02B
:022A14001200AE
:102A16000F0E3A14016E0150020A39E1800E006E63
:102A2600800E010123BF7F0E005C02E123510008E6
:102A360017E2380E2B6F000E2C6FE7EC0FF03850B4
:102A4600001A3950011AFF0E00160F0E01163850E3
:102A5600001A3950011A00C038F001C039F016D0FA
:102A6600380E2B6F000E2C6FD8EC10F03850001A71
:102A76003950011AFF0E00160F0E01163850001AB3
:102A86003950011A00C038F001C039F015D00101E3
:102A9600800E006E800E23BF7F0E005C02E1235184
:102AA600000806E23850010F006E00C038F004D06E
:0A2AB6003804006E00C038F0120072
:102AC0004B0E0501086F096B0A6B0B6B3C903CB019
:102AD00058D0000E01012B6F050E2C6F080E2D6FC4
:102AE000050E2E6FAEEC10F0236B3CB036D0320EDC
:102AF000235D33E2040E0B6E0C0E0C6E330E0D6E66
:102B00000D2EFED70C2EFCD70B2EFAD7000000009E
:102B10008980040E0B6E0C0E0C6E330E0D6E0D2E96
:102B2000FED70C2EFCD70B2EFAD7000000008990A0
:102B3000080E4B6F050E4C6F040E4D6F07EC09F03D
:102B40000050000A000ED8A4010E016E01B002D0A0
:102B50003C9001D03C80232BC8D73CB011D032DC54
:102B6000020E0A6E310E0B6E620E0C6E450E0D6E6D
:102B70000D2EFED70C2EFCD70B2EFAD70A2EF8D727
:102B8000A6D7100E0B6E390E0C6E0D0E0D6E0D2E9F
:102B9000FED70C2EFCD70B2EFAD700000000120037
:102BA0000900F5CFE6FF0006FBE10106F9E112009E
:102BB00001010E51010A07E160BA05D0656A64801F
:102BC0006488020E0E6F65A406D064A404D0FB0EC8
:102BD0006516C6EC06F060A203D0C4EC06F0E0D0A7
:102BE00065A019D064A017D0D3EC06F0040E0E6FC8
:102BF000200E0401026F040E036F080E016F000E19
:102C00000015006E00C000F48C0E0011006E00C0B4
:102C100000F4FE0E651665A806D064A804D0CEECBC
:102C200006F0EF0E651665AC04D064AC02D0BF0EA2
:102C3000651665AA04D064AA02D0A6EC06F065A2C7
:102C400002D064B2676A040E01010E5D03E2C4ECB7
:102C500006F0A6D064A6A2D05A6B040E5A5DD8B076
:102C60009DD065A697D061CF1EF1F70E6516780E40
:102C70001E15016E0150000AD8A48BD0FD0E1E1542
:102C8000016E026AFF0E0216000E021802E1000E2B
:102C900001186FE17E0E1E15016E01C003F00332B4
:102CA000039E03C000F0000E016E00360090013656
:102CB000003600900136000E0024026E040E012042
:102CC000036E02C011F103C012F102C0BCF003C0D8
:102CD000BDF0040E0001BC19006E00C0BCF002C0C3
:102CE000E9FF03C0EAFFEECF00F000C001F03C0EA8
:102CF00001160132019E0132019E01500D0A36E19A
:102D0000020E01011125E96E000E1221EA6EEECFCE
:102D100001F0EECF02F00250040A02E1280E011881
:102D200022E1020E1125E16E000E1221E26E200E4C
:102D3000E66E040EE66E596B080E595D14E2200E25
:102D4000E16E040EE26E5951E126D8B0E22A280E57
:102D5000E96E040EEA6E5951E926D8B0EA2AEECFA0
:102D6000E6FF592BE9D78FEC06F002D068EC06F0AD
:102D70000FD0FD0E01011E15016E026AFF0E021634
:102D8000000E021802E1040E011802E114EC06F034
:102D900000D001D003D001015A2B5FD7C4EC06F05C
:022DA00012001F
:102DA2000F015B6B5C6B5D6BBE0E926EFF0E936EE2
:102DB200070E946E896A8A6A8B6AF19E700ED36ED0
:102DC200D3B401D0FDD7D3B601D0FDD7D2989B8E14
:102DD200D288D2BE01D0FDD7B59EB588B58E3C6AE9
:102DE2002B6A2C6A62886284F290868C868A868834
:102DF200320EB16EA082F286F28CF28E0001B79191
:102E020089903D6A0101206B3F0E216F000E226FF7
:102E1200200E205D0CE221C1E1FF22C1E2FFE66A41
:102E2200E66A202B030E2127000E2223F1D7F00E93
:102E32003A14006E00C03AF0040E386EF00E3914E7
:0E2E4200006E00C039F0376A3E6A39DE1200B9
:102E5000375229E01FD037C023F16FDD7AEC0FF035
:102E600020D037C023F1D7DD030E2F6FC4EC0EF056
:102E70003EC031F1380E0101326F000E336F28EC85
:102E80000DF0010E01013E6F4A0E3F6F85EC0AF016
:102E900008D007D02950000ADEE02950010AE1E0FD
:102EA000F8D7376A7FD081BC7DD00001B791899077
:102EB0004E0E0C6EEB0E0D6E0D2EFED70C2EFCD7AB
:102EC00081BC6ED0160EB66F3C94B18081BC0CD024
:102ED00037520AE13CB408D0B1A005D0B651000A7F
:102EE00002E1B1903C84F2D7B19050D03CA40DD017
:102EF0007FEC10F0140E0101456F3D0E466F000E81
:102F0000476F35EC0AF03C9233D01FD07FEC10F0C5
:102F1000820E0101456F3D0E466F000E476F35EC86
:102F20000AF03C9225D07FEC10F0FF0E0101456FB6
:102F30003C0E466F000E476F35EC0AF03C9218D0FD
:102F400039DD16D007EC12F013D00F0E3A14016ED3
:102F500001500E0ADBE00F0E3A14016E01500C0A0C
:102F6000E2E00F0E3A14016E01500D0AE9E0EAD7D3
:102F700014D03CA407D001012B6BC6EC0FF07AEC07
:102F80000FF002D049EC12F008D007D02950000A07
:102F9000ADE02950010AEDE0F8D781BC01D0FDD7A2
:062FA000376A00D01200A8
:102FA60081BC23D00001B79189904E0E0C6EEB0EBA
:102FB6000D6E0D2EFED70C2EFCD781BC16D0160E2C
:102FC600B66FB18081BC09D00001B651000A04E198
:102FD6003C82B190ECDC01D0F5D7B19081BC01D038
:0C2FE600FDD73CB202D073EC13F01200D7
:102FF200296A2A6AD5DE3CA202D029DF01D0D2DFBB
:0A3002000001B7918990F7D7FFD7BE
:02000600620096
:10300C00FA4500F94500F54500F14500F04500F2A0
:10301C004500F44500F345003046002F460031468C
:10302C00003346003246002E46002A460029460050
:10303C002B46002D46002C46003446003C46003BF7
:10304C0046003D46003F46003E46003A46003646A6
:10305C000035460037460039460038460019460010
:10306C001846001A46001C46001B46001746001363
:10307C0046001246001446001646001546001D4632
:10308C000025460024460026460028460027460018
:10309C002346001F46001E46002046002246002103
:1030AC004600A64500A54500A74500A94500A84532
:1030BC0000A44500A045009F4500A14500A3450084
:1030CC00A24500AA4500B24500B14500B34500B584
:1030DC004500B44500B04500AC4500AB4500AD45DE
:1030EC0000AF4500AE45008F45008E450090450071
:1030FC009245009145008D45008945008845008A20
:10310C0045008C45008B45009345009B45009A4536
:10311C00009C45009E45009D450099450095450045
:10312C00944500964500984500974500D44500D33A
:10313C004500D54500D74500D64500D24500CE45C3
:10314C0000CD4500CF4500D14500D04500D8450005
:10315C00E04500DF4500E14500E34500E24500DEC7
:10316C004500DA4500D94500DB4500DD4500DC456E
:10317C0000BD4500BC4500BE4500C04500BF450034
:10318C00BB4500B74500B64500B84500BA4500B987
:10319C004500C14500C94500C84500CA4500CC459D
:1031AC0000CB4500C74500C34500C24500C44500DF
:1031BC00C64500C54500404600BB4600BA4600BCAB
:1031CC004600BE4600BD4600B94600B54600B446B2
:1031DC0000B64600B84600534300274300B74600EC
:1031EC00BF4600C74600C64600C84600CA4600C9CE
:1031FC004600C54600C14600C04600C24600C44653
:10320C0000C34600A44600A34600A54600A74600FE
:10321C005F4200AC41007F4100A34300874300950F
:10322C003F00533F007D4200A041004041009F46BB
:10323C0000A14600474100A04600A84600B0460049
:10324C00AF4600B14600B34600B24600AE4600AAF7
:10325C004600A94600AB4600AD4600AC4600E94628
:10326C0000E84600693F00743F00EA4600EC460067
:10327C00EB4600E74600E34600E24600E44600E683
:10328C004600E54600ED4600F54600F44600F646DD
:10329C0000F84600F74600F34600EF4600EE460005
:1032AC00F04600F24600284200F14600D246005E8D
:1032BC003F007840009C40007B43003C4200414270
:1032CC0000D14600D34600D54600D44600D0460077
:1032DC00CC4600CB4600CD4600CF4600CE46002D56
:1032EC004200D64600DE4600DD4600DF4600E146E1
:1032FC0000E04600DC4600D84600D74600D9460020
:10330C00DB4600DA46005F46005E4600604600621F
:10331C0046006146005D46005946005846005A4634
:10332C00005C46005B46006346006B46006A460044
:10333C006C46006E46006D460069460065460064AA
:10334C004600664600684600674600484600474609
:10335C00004946004B46004A46004646004246009D
:10336C004146004346004546004446004C46005446
:10337C0046005346005546005746005646005246F6
:10338C00004E46004D46004F460051460050460048
:10339C008D46008C46008E46009046008F46008B72
:1033AC0046008746008646008846008A46008946C5
:1033BC00009146009946009846009A46009C4600AB
:1033CC009B46009746009346009246009446009612
:1033DC0046009546007646007546007746007946CD
:1033EC00007846007446007046006F460071460037
:1033FC007346007246007A4600824600814600837E
:10340C0046008546008446008046007C46007B468C
:10341C00007D46007F46007E4600BC4400BB440055
:10342C00BE4400BD4400BA4400B74400B64400B9E1
:10343C004400B84400BF4400C64400C54400C8441E
:10344C0000C74400C44400C14400C04400C344004D
:10345C00C24400B54400A84400A74400AA4400A9F3
:10346C004400A64400A34400A24400A54400A44484
:10347C0000AB4400B24400B14400B44400B3440077
:10348C00B04400AD4400AC4400AF4400B23D00EA8F
:10349C003E001A3F00723D006B3E004B40000C4258
:1034AC0000784200D33F006F4000544000A23D0022
:1034BC00C94400E44400A03F00E64400E54400E2B7
:1034CC004400263F00DF4400DE4400E14400C93FD5
:1034DC0000004200864100E744000A3E00423E00E4
:1034EC005E3E00AC3E00EE4400ED4400F04400EFC4
:1034FC004400EC4400E94400E84400EB4400114172
:10350C0000EA4400DD4400D04400CF4400D2440023
:10351C00D14400CE4400CB4400124200853E00CA88
:10352C004400183E00EE3D00343E00CD4400CC4437
:10353C0000AB3F00D34400DA4400D94400DC440023
:10354C00DB4400D84400D54400D44400D74400D612
:10355C004400923E009444009544009A44009F44D9
:10356C0000A04400A144009B44009D4400924400F0
:10357C008544008A44008D44008C44008B44008EAA
:10358C0044009144009044008F44008444008344E0
:10359C00008644008944008844008744009C440011
:1035AC009E4400934400964400994400984400972C
:1035BC0044007E4400824400814400804400F14475
:1035CC0000564500554500584500574500544500E8
:1035DC005145005045005345005245005F45005E83
:1035EC0045006145006045005D45005A4500594560
:1035FC00005C45005B45004F4500434500424500DB
:10360C004545005F4300644200CA41005A42008AAB
:10361C004000B74000504200B841004045003F45D3
:10362C00004C45004E45004D45004A4500474500BD
:10363C004645004945004845006245007C45007BF5
:10364C0045007E45007D45007A4500774500554292
:10365C00006942004F4300BE41003D3F00824200E2
:10366C00F94000554100C441006E4200734200090C
:10367C0041004B42000141000540000F4000194041
:10368C000029410076450031410081400079450018
:10369C00D23E00DE3E00C63E00FB3F000E3F0078EF
:1036AC0045008545008445008745008A3F00E73F7B
:1036BC0000F13F008645008345008045007F4500B2
:1036CC008245008145007545006945006845006BE1
:1036DC0045006A4500674500644500634500664542
:1036EC000065450072450071450074450073450046
:1036FC007045006D45006C45006F45006E45000B34
:10370C0045000A45000D45000C45000945000645DD
:10371C000005450008450007450014450013450009
:10372C001645001545001245000F45000E450011C9
:10373C004500104500044500F84400F74400FA44E5
:10374C0000F94400F64400F34400F24400F5440050
:10375C00F44400014500004500034500024500FF0C
:10376C004400FC4400FB4400FE4400FD44001745AB
:10377C00003145003045003345003245002F4500EF
:10378C002C45002B45002E45002D45003A450039AF
:10379C0045003C45003B4500384500354500344567
:1037AC00003745003645002A45001E45001D4500E2
:1037BC002045001F45001C45001945001845001BFD
:1037CC0045001A4500274500264500294500284597
:1037DC0000254500224500214500244500234500D5
:1037EC00E84100AE4400E34400E04400BC43000662
:1037FC000000FA4300C24300C04300D44300EA4334
:10380C0000E84300E643003244004A44004C4400C4
:10381C005244003844003A44003644003E440040D0
:10382C0044006044005C44006A4400664400D04399
:10383C0000C643001A44006844003C440034440071
:10384C005044005644005444004E44004844004642
:10385C004400F44300F64300F44100474300DD3FCD
:10386C0000434300EE4100044400064400084400B9
:10387C001044000C4400024400004400FE4300FCD1
:10388C004300124400284400244400C040009D43DF
:10389C00009743009A4300AF4300B24300B5430086
:1038AC00A64300A94300AC43005B43005743002BE5
:1038BC004300714100D14000D641002F4300CD425E
:1038CC00008D41007841003F4300934000D04100FF
:1038DC00D24200C84200A04300E940008C4200AF35
:1038EC004200B44200AA4200664000A04200A54239
:1038FC0000F042001843001343000E43001D430028
:10390C00224300FA4200F54200FF4200BE43000988
:10391C0043000642000443006F43006743006B43BF
:10392C00007F43008F43009343008B43008343008D
:10393C003743003B430033430073430087420091FD
:10394C0042009B4200394100964200184200B942A5
:10395C0000634300DC4200B24100D74200E1420068
:10396C00EB4200E64200A540002141007F3F00C32E
:05397C004200BE420004
:103981009D46009E4600A24600A6460044440058BB
:1039910044007044007244006C44006E440074445E
:1039A100007C44007A44007644007844005E440080
:1039B1005A4400624400424400F843000A44002A89
:1039C10044002244001444002044001E44001C44CE
:1039D10000CA4300EC4300DE4300E04300E2430041
:1039E100DC4300D64300D84300DA4300E44300EE51
:1039F1004300F04300F24300024600014600034643
:103A010000054600044600B84300BA4300C4430021
:103A1100CE4300CC43001644001844002C44002E31
:103A210044003044002644000E4400004600FC459A
:103A310000FB4500FD4500FF4500FE450006460030
:103A41000E46000D46000F46001146001046000CC0
:103A510046000846000746000946000B46000A4694
:103A610000EB4500EA4500EC4500EE4500ED450060
:103A7100E94500E54500E44500944100E64500E8DC
:103A81004500E74500EF4500F74500634100E1408F
:103A910000F63E00D94000F645005D4000C94000F7
:0F3AA1009A41002340005C41004E410064440004
:103AB00000000000000000002A2B2800004A00003F
:103AC00000000000000000000000000000000000F6
:103AD0002C9E00A0A1A2A434A6A7A5AE362D3738EF
:103AE000271E1F20212223242526B333B62EB7B844
:103AF0009F8485868788898A8B8C8D8E8F90919202
:103B0000939495969798999A9B9C9D2F3130A3AD4D
:103B1000350405060708090A0B0C0D0E0F101112CB
:103B2000131415161718191A1B1C1DAFB1B0B22AA1
:103B300005010906A101854B050709E109E009E234
:103B400009E309E509E409E609E725017501950896
:103B5000810275089501810326FF0019002AFF00E4
:103B600081007501950305081901290325019102BA
:103B7000750595019103C005010980A10185531ABE
:103B800081002A8F001501250F750895018100C05D
:103B9000050C0901A101854319002A3C02150026E4
:093BA0003C02751095018100C082
:103BA9004D61696E3A2020205475726E3D53656CE3
:103BB9002C2050726573732B5475726E3D53657466
:103BC90020416464726573732C2050726573733D70
:103BD9004F4B2C2050726573732B486F6C643D45B5
:043BE9007869740083
:103BED00416374696F6E3A205475726E3D53656C06
:103BFD002C2050726573732B5475726E3D4D6F642E
:103C0D006966792C2050726573733D4F4B2C205093
:103C1D00726573732B486F6C643D52657475726E6B
:013C2D000096
:103C2E00F84500483F00A64100194100783E00AE1D
:103C3E004000374000414000023F00323F00B53F98
:0D3C4E0000F14000BF3F00B93E009F3E0066
:103C5B00090229000101018032090400000203005E
:103C6B0000020921010100012279000705810308E7
:093C7B000005070501030800051E
:103C840028034F006E006500200042007500740098
:103C940074006F006E0020004B0065007900620024
:083CA4006F0061007200640072
:103CAC0053657420436F6E73756D65722044657631
:0C3CBC0069636520436F6D6D616E6400EC
:103CC8000004010002000100020302000203004098
:0C3CD8000504000005040600050006803D
:103CE4005365742053797374656D20436F6E7472D9
:0B3CF4006F6C20436F6D6D616E64000B
:103CFF0052656C6F616465642066726F6D20454517
:053D0F0050524F4D0071
:103D14004E6F7420736176656420696E204545504A
:043D2400524F4D00AD
:103D280014035000610073007300690066006900A5
:043D380065007200B0
:103D3C00536574204C6F63616C2046756E637469B7
:033D4C006F6E0097
:103D4F0012011001000000085041535303000102FB
:023D5F00000161
:103D610030313233343536373839414243444546B0
:013D71000051
:103D7200477261706869637320456469746F720089
:103D8200536176656420696E20454550524F4D005F
:103D920043616E63656C20616E64204578697400CE
:103DA20050726F6A656374204D616E61676572005F
:0F3DB200576F72642050726F636573736F720086
:0F3DC10044656C65746520616374696F6E2000E2
:0F3DD000416420436F646520416374696F6E0026
:0F3DDF0050415353696669657220302E393000A8
:0E3DEE00417564696F2042726F7773657200D1
:0E3DFC005361766520616E642045786974001D
:0E3E0A005465726D696E616C204C6F636B00C5
:0E3E1800496D6167652042726F7773657200B5
:0E3E2600536574204B65797374726F6B650081
:0E3E34004D6F7669652042726F77736572007C
:0E3E4200436F6E74726F6C2050616E656C0081
:0E3E500044656C65746520416374696F6E0093
:0D3E5E00436F6D6D616E64204C696E6500F0
:0D3E6B0050726573656E746174696F6E004E
:0D3E7800436F6E74657874204D656E7500A3
:0D3E850046696C652042726F7773657200AC
:0D3E9200417564696F20506C6179657200A4
:0D3E9F005761726D2052657374617274007A
:0D3EAC005461736B204D616E61676572009B
:0D3EB900436F6C6420526573746172740075
:0C3EC600546F67676C65205669657700D3
:0C3ED20046756C6C2053637265656E00D1
:0C3EDE004E6F726D616C205669657700B4
:0C3EEA005465787420456469746F7200A0
:0C3EF6004B502050616765446F776E00F0
:0C3F02004D656E752053656C656374009E
:0C3F0E005363726F6C6C20446F776E0080
:0C3F1A0053707265616473686565740023
:0C3F26005765622042726F77736572006D
:0B3F32004D656E7520526967687400D1
:0B3F3D0053656C65637420416C6C00E0
:0B3F4800506F77657220446F776E00A9
:0B3F53005072657620547261636B00B1
:0B3F5E004261737320426F6F737400A8
:0B3F690053746F702F456A656374008D
:0B3F7400506C61792F5061757365007F
:0B3F7F004C6F636B5363726F6C6C003F
:0B3F8A004E65772057696E646F77006A
:0B3F95004E65787420547261636B006D
:0B3FA00043616C63756C61746F72000C
:0A3FAB004D6573736167696E67006E
:0A3FB5004D656E75204C65667400C2
:0A3FBF004D656E7520446F776E00AB
:0A3FC90054656C6570686F6E790036
:0A3FD300566F6963656D61696C004B
:0A3FDD004261636B7370616365005D
:0A3FE70054696C6520486F727A007F
:0A3FF10054696C6520566572740077
:0A3FFB005363726F6C6C2055700068
:0A40050050726576204C696E6B0066
:0A400F004E657874204C696E6B005A
:0A401900426F6F6B6D61726B7300F4
:0A4023004B50205061676555700096
:0A402D005265646973706C617900DC
:0A4037004D656E752048656C700041
:0A4041004D656E7520457869740026
:09404B0044617461626173650057
:0940540043616C656E6461720049
:09405D004B5020526967687400A1
:094066004B5020456E7465720098
:09406F00436F6E74616374730009
:09407800537572726F756E6400DD
:094081005A6F6F6D204F75740039
:09408A004D6178696D69736500F0
:0940930050616765446F776E000F
:09409C004C6F75646E65737300CE
:0940A5004C6F636B436170730002
:0940AE00417070204D656E750033
:0940B7004D696E696D69736500C5
:0940C000436170734C6F636B00E7
:0840C9004B5020486F6D6500AB
:0840D1005363724C6F636B0036
:0840D9004B50204C6566740099
:0840E1004B5020446F776E0084
:0840E9004E756D4C6F636B0016
:0840F1004D656E75205570004D
:0840F9005265706C6163650003
:084101005265667265736800E7
:08410900466F727761726400D9
:084111004465736B746F7000CC
:0841190057616B652055700031
:084121004C6F636B4E756D00DD
:08412900486973746F7279009C
:084131005A6F6F6D20496E000A
:0741390053656C656374001F
:0741400052616E646F6D0017
:074147005265706561740010
:07414E004B502044656C009A
:07415500536561726368000D
:07415C004B5020496E730077
:074163004B5020456E640083
:07416A0053484946542B00A5
:0741710050727453637200E9
:0741780044656C65746500ED
:07417F005265636F726400DA
:074186004C6F676F666600D5
:07418D0050616765557000E9
:06419400436C656172003E
:06419A004B50205570009F
:0641A000456A656374002E
:0641A600536C656570001A
:0641AC005061757365000F
:0641B2005061737465000A
:0641B8005072696E7400F4
:0641BE00506173746500FE
:0641C400476F20546F005C
:0641CA00436C6F736500F9
:0641D000526967687400EB
:0641D600506175736500E5
:0641DC0057616974200028
:0641E200476F746F20001E
:0641E8004E6F204F700035
:0641EE00537061636500DF
:0641F400456E74657200C7
:0641FA005761697420000A
:064200004C6F676F6E00B9
:06420600506F77657200A5
:06420C00456D61696C00C4
:06421200436C6F636B00BA
:06421800416761696E00C0
:05421E004755492B008B
:0542230043544C2B0088
:054228004D75746500F6
:05422D00536C6F7700E7
:05423200414C542B007B
:054237007878782000FA
:05423C00566F6C2B0021
:05424100566F6C2D001A
:05424600207365630018
:05424B0053746F7000C8
:054250005361766500DA
:05425500556E646F00CE
:05425A004578697400C5
:05425F00506C617900C4
:054264004F70656E00C3
:05426900436F707900B5
:05426E00486F6D6500C2
:054273004261636B00D5
:054278004E65777300A4
:05427D0053746F700096
:0542820046696E6400B6
:054287004578656300AD
:05428C004B50202F0043
:0542910048656C70009F
:0542960053746F70007D
:05429B004D656E750089
:0542A0004B502031002D
:0542A5004B5020320027
:0542AA004B50202B0029
:0542AF004B50202A0025
:0542B4004B50202D001D
:0542B900556E646F006A
:0542BE004B50203D0003
:0542C3004B50202C000F
:0542C800446F776E0059
:0542CD00486F6D650063
:0542D2004C656674005C
:0542D70046696E640061
:0542DC00436F70790042
:0542E1004D757465003D
:0542E600566F6C2D0075
:0542EB00566F6C2B0072
:0542F0004B50203300DB
:0542F5004B50203000D9
:0542FA004B50203900CB
:0542FF004B50202E00D1
:054304004B50203D00BC
:054309004170706C0022
:05430E004B50203600B9
:054313004B50203500B5
:054318004B50203400B1
:05431D004B50203700A9
:054322004B50203800A3
:0443270043682D00BA
:04432B0046313200E5
:04432F00496E730060
:0443330046323300DB
:0443370046323100D9
:04433B0046323200D4
:04433F00456E640063
:04434300546162005F
:044347004573630057
:04434B00206D73006E
:04434F00437574003E
:0443530043682B0090
:0443570046313100BA
:04435B0046313000B7
:04435F004E65770030
:04436300437574002A
:0443670046313400A7
:04436B0046313500A2
:04436F0046313300A0
:04437300463234009A
:04437700040309042E
:04437B004D50580049
:04437F00463136008D
:04438300463230008E
:044387005265770004
:04438B00463139007E
:04438F00463137007C
:044393004631380077
:03439700463200AB
:03439A00463300A7
:03439D00463100A6
:0343A00055700055
:0343A3004646008B
:0343A60046370097
:0343A90046380093
:0343AC004639008F
:0343AF0046340091
:0343B2004635008D
:0343B50046360089
:0243B8005F00A4
:0243BA002B00D6
:0243BC0061009E
:0243BE005C00A1
:0243C000650096
:0243C200640095
:0243C4007B007C
:0243C60078007D
:0243C8002000D3
:0243CA00580099
:0243CC007C0073
:0243CE007D0070
:0243D000770074
:0243D2002000C9
:0243D400660081
:0243D6002400C1
:0243D8002500BE
:0243DA005E0083
:0243DC002300BC
:0243DE005A0083
:0243E0002100BA
:0243E200400099
:0243E4002600B1
:0243E60069006C
:0243E80068006B
:0243EA0067006A
:0243EC00590076
:0243EE002A00A3
:0243F0002800A3
:0243F2002900A0
:0243F40039008E
:0243F600300095
:0243F800500073
:0243FA0063005E
:0243FC0060005F
:0243FE00270096
:024400003B007F
:02440200230095
:024404002D0089
:024406003D0077
:024408005B0057
:02440A0051005F
:02440C005C0052
:02440E003F006D
:024410005D004D
:024412002C007C
:02441400540052
:024416007E0026
:024418003A0068
:02441A00790027
:02441C00570047
:02441E00560046
:02442000550045
:02442200530045
:024424002F0067
:024426003E0056
:024428002E0064
:02442A0052003E
:02442C0022006C
:02442E007E000E
:024430003C004E
:024432006A001E
:02443400320054
:02443600700014
:024438006E0014
:02443A006F0011
:02443C0031004D
:02443E0071000B
:02444000720008
:024442004F0029
:02444400410035
:0244460038003C
:0244480037003B
:02444A006B0005
:02444C006C0002
:02444E00360036
:02445000330037
:024452006D00FB
:02445400350031
:02445600340030
:02445800420020
:02445A004D0013
:02445C007400EA
:02445E004C0010
:024460007300E7
:024462004E000A
:024464007C00DA
:024466007600DE
:024468007A00D8
:02446A007500DB
:02446C00450009
:02446E00460006
:02447000430007
:02447200440004
:024474004700FF
:024476004A00FA
:024478004B00F7
:02447A004900F7
:02447C004800F6
:01447E00003D
:01447F00003C
:01448000003B
:01448100003A
:014482000039
:014483000038
:014484000037
:014485000036
:014486000035
:014487000034
:014488000033
:014489000032
:01448A000031
:01448B000030
:01448C00002F
:01448D00002E
:01448E00002D
:01448F00002C
:01449000002B
:01449100002A
:014492000029
:014493000028
:014494000027
:014495000026
:014496000025
:014497000024
:014498000023
:014499000022
:01449A000021
:01449B000020
:01449C00001F
:01449D00001E
:01449E00001D
:01449F00001C
:0144A000001B
:0144A100001A
:0144A2000019
:0144A3000018
:0144A4000017
:0144A5000016
:0144A6000015
:0144A7000014
:0144A8000013
:0144A9000012
:0144AA000011
:0144AB000010
:0144AC00000F
:0144AD00000E
:0144AE00000D
:0144AF00000C
:0144B000000B
:0144B100000A
:0144B2000009
:0144B3000008
:0144B4000007
:0144B5000006
:0144B6000005
:0144B7000004
:0144B8000003
:0144B9000002
:0144BA000001
:0144BB000000
:0144BC0000FF
:0144BD0000FE
:0144BE0000FD
:0144BF0000FC
:0144C00000FB
:0144C10000FA
:0144C20000F9
:0144C30000F8
:0144C40000F7
:0144C50000F6
:0144C60000F5
:0144C70000F4
:0144C80000F3
:0144C90000F2
:0144CA0000F1
:0144CB0000F0
:0144CC0000EF
:0144CD0000EE
:0144CE0000ED
:0144CF0000EC
:0144D00000EB
:0144D10000EA
:0144D20000E9
:0144D30000E8
:0144D40000E7
:0144D50000E6
:0144D60000E5
:0144D70000E4
:0144D80000E3
:0144D90000E2
:0144DA0000E1
:0144DB0000E0
:0144DC0000DF
:0144DD0000DE
:0144DE0000DD
:0144DF0000DC
:0144E00000DB
:0144E10000DA
:0144E20000D9
:0144E30000D8
:0144E40000D7
:0144E50000D6
:0144E60000D5
:0144E70000D4
:0144E80000D3
:0144E90000D2
:0144EA0000D1
:0144EB0000D0
:0144EC0000CF
:0144ED0000CE
:0144EE0000CD
:0144EF0000CC
:0144F00000CB
:0144F10000CA
:0144F20000C9
:0144F30000C8
:0144F40000C7
:0144F50000C6
:0144F60000C5
:0144F70000C4
:0144F80000C3
:0144F90000C2
:0144FA0000C1
:0144FB0000C0
:0144FC0000BF
:0144FD0000BE
:0144FE0000BD
:0144FF0000BC
:0145000000BA
:0145010000B9
:0145020000B8
:0145030000B7
:0145040000B6
:0145050000B5
:0145060000B4
:0145070000B3
:0145080000B2
:0145090000B1
:01450A0000B0
:01450B0000AF
:01450C0000AE
:01450D0000AD
:01450E0000AC
:01450F0000AB
:0145100000AA
:0145110000A9
:0145120000A8
:0145130000A7
:0145140000A6
:0145150000A5
:0145160000A4
:0145170000A3
:0145180000A2
:0145190000A1
:01451A0000A0
:01451B00009F
:01451C00009E
:01451D00009D
:01451E00009C
:01451F00009B
:01452000009A
:014521000099
:014522000098
:014523000097
:014524000096
:014525000095
:014526000094
:014527000093
:014528000092
:014529000091
:01452A000090
:01452B00008F
:01452C00008E
:01452D00008D
:01452E00008C
:01452F00008B
:01453000008A
:014531000089
:014532000088
:014533000087
:014534000086
:014535000085
:014536000084
:014537000083
:014538000082
:014539000081
:01453A000080
:01453B00007F
:01453C00007E
:01453D00007D
:01453E00007C
:01453F00007B
:01454000007A
:014541000079
:014542000078
:014543000077
:014544000076
:014545000075
:014546000074
:014547000073
:014548000072
:014549000071
:01454A000070
:01454B00006F
:01454C00006E
:01454D00006D
:01454E00006C
:01454F00006B
:01455000006A
:014551000069
:014552000068
:014553000067
:014554000066
:014555000065
:014556000064
:014557000063
:014558000062
:014559000061
:01455A000060
:01455B00005F
:01455C00005E
:01455D00005D
:01455E00005C
:01455F00005B
:01456000005A
:014561000059
:014562000058
:014563000057
:014564000056
:014565000055
:014566000054
:014567000053
:014568000052
:014569000051
:01456A000050
:01456B00004F
:01456C00004E
:01456D00004D
:01456E00004C
:01456F00004B
:01457000004A
:014571000049
:014572000048
:014573000047
:014574000046
:014575000045
:014576000044
:014577000043
:014578000042
:014579000041
:01457A000040
:01457B00003F
:01457C00003E
:01457D00003D
:01457E00003C
:01457F00003B
:01458000003A
:014581000039
:014582000038
:014583000037
:014584000036
:014585000035
:014586000034
:014587000033
:014588000032
:014589000031
:01458A000030
:01458B00002F
:01458C00002E
:01458D00002D
:01458E00002C
:01458F00002B
:01459000002A
:014591000029
:014592000028
:014593000027
:014594000026
:014595000025
:014596000024
:014597000023
:014598000022
:014599000021
:01459A000020
:01459B00001F
:01459C00001E
:01459D00001D
:01459E00001C
:01459F00001B
:0145A000001A
:0145A1000019
:0145A2000018
:0145A3000017
:0145A4000016
:0145A5000015
:0145A6000014
:0145A7000013
:0145A8000012
:0145A9000011
:0145AA000010
:0145AB00000F
:0145AC00000E
:0145AD00000D
:0145AE00000C
:0145AF00000B
:0145B000000A
:0145B1000009
:0145B2000008
:0145B3000007
:0145B4000006
:0145B5000005
:0145B6000004
:0145B7000003
:0145B8000002
:0145B9000001
:0145BA000000
:0145BB0000FF
:0145BC0000FE
:0145BD0000FD
:0145BE0000FC
:0145BF0000FB
:0145C00000FA
:0145C10000F9
:0145C20000F8
:0145C30000F7
:0145C40000F6
:0145C50000F5
:0145C60000F4
:0145C70000F3
:0145C80000F2
:0145C90000F1
:0145CA0000F0
:0145CB0000EF
:0145CC0000EE
:0145CD0000ED
:0145CE0000EC
:0145CF0000EB
:0145D00000EA
:0145D10000E9
:0145D20000E8
:0145D30000E7
:0145D40000E6
:0145D50000E5
:0145D60000E4
:0145D70000E3
:0145D80000E2
:0145D90000E1
:0145DA0000E0
:0145DB0000DF
:0145DC0000DE
:0145DD0000DD
:0145DE0000DC
:0145DF0000DB
:0145E00000DA
:0145E10000D9
:0145E20000D8
:0145E30000D7
:0145E40000D6
:0145E50000D5
:0145E60000D4
:0145E70000D3
:0145E80000D2
:0145E90000D1
:0145EA0000D0
:0145EB0000CF
:0145EC0000CE
:0145ED0000CD
:0145EE0000CC
:0145EF0000CB
:0145F00000CA
:0145F10000C9
:0145F20000C8
:0145F30000C7
:0145F40000C6
:0145F50000C5
:0145F60000C4
:0145F70000C3
:0145F80000C2
:0145F90000C1
:0145FA0000C0
:0145FB0000BF
:0145FC0000BE
:0145FD0000BD
:0145FE0000BC
:0145FF0000BB
:0146000000B9
:0146010000B8
:0146020000B7
:0146030000B6
:0146040000B5
:0146050000B4
:0146060000B3
:0146070000B2
:0146080000B1
:0146090000B0
:01460A0000AF
:01460B0000AE
:01460C0000AD
:01460D0000AC
:01460E0000AB
:01460F0000AA
:0146100000A9
:0146110000A8
:0146120000A7
:0146130000A6
:0146140000A5
:0146150000A4
:0146160000A3
:0146170000A2
:0146180000A1
:0146190000A0
:01461A00009F
:01461B00009E
:01461C00009D
:01461D00009C
:01461E00009B
:01461F00009A
:014620000099
:014621000098
:014622000097
:014623000096
:014624000095
:014625000094
:014626000093
:014627000092
:014628000091
:014629000090
:01462A00008F
:01462B00008E
:01462C00008D
:01462D00008C
:01462E00008B
:01462F00008A
:014630000089
:014631000088
:014632000087
:014633000086
:014634000085
:014635000084
:014636000083
:014637000082
:014638000081
:014639000080
:01463A00007F
:01463B00007E
:01463C00007D
:01463D00007C
:01463E00007B
:01463F00007A
:014640000079
:014641000078
:014642000077
:014643000076
:014644000075
:014645000074
:014646000073
:014647000072
:014648000071
:014649000070
:01464A00006F
:01464B00006E
:01464C00006D
:01464D00006C
:01464E00006B
:01464F00006A
:014650000069
:014651000068
:014652000067
:014653000066
:014654000065
:014655000064
:014656000063
:014657000062
:014658000061
:014659000060
:01465A00005F
:01465B00005E
:01465C00005D
:01465D00005C
:01465E00005B
:01465F00005A
:014660000059
:014661000058
:014662000057
:014663000056
:014664000055
:014665000054
:014666000053
:014667000052
:014668000051
:014669000050
:01466A00004F
:01466B00004E
:01466C00004D
:01466D00004C
:01466E00004B
:01466F00004A
:014670000049
:014671000048
:014672000047
:014673000046
:014674000045
:014675000044
:014676000043
:014677000042
:014678000041
:014679000040
:01467A00003F
:01467B00003E
:01467C00003D
:01467D00003C
:01467E00003B
:01467F00003A
:014680000039
:014681000038
:014682000037
:014683000036
:014684000035
:014685000034
:014686000033
:014687000032
:014688000031
:014689000030
:01468A00002F
:01468B00002E
:01468C00002D
:01468D00002C
:01468E00002B
:01468F00002A
:014690000029
:014691000028
:014692000027
:014693000026
:014694000025
:014695000024
:014696000023
:014697000022
:014698000021
:014699000020
:01469A00001F
:01469B00001E
:01469C00001D
:01469D00001C
:01469E00001B
:01469F00001A
:0146A0000019
:0146A1000018
:0146A2000017
:0146A3000016
:0146A4000015
:0146A5000014
:0146A6000013
:0146A7000012
:0146A8000011
:0146A9000010
:0146AA00000F
:0146AB00000E
:0146AC00000D
:0146AD00000C
:0146AE00000B
:0146AF00000A
:0146B0000009
:0146B1000008
:0146B2000007
:0146B3000006
:0146B4000005
:0146B5000004
:0146B6000003
:0146B7000002
:0146B8000001
:0146B9000000
:0146BA0000FF
:0146BB0000FE
:0146BC0000FD
:0146BD0000FC
:0146BE0000FB
:0146BF0000FA
:0146C00000F9
:0146C10000F8
:0146C20000F7
:0146C30000F6
:0146C40000F5
:0146C50000F4
:0146C60000F3
:0146C70000F2
:0146C80000F1
:0146C90000F0
:0146CA0000EF
:0146CB0000EE
:0146CC0000ED
:0146CD0000EC
:0146CE0000EB
:0146CF0000EA
:0146D00000E9
:0146D10000E8
:0146D20000E7
:0146D30000E6
:0146D40000E5
:0146D50000E4
:0146D60000E3
:0146D70000E2
:0146D80000E1
:0146D90000E0
:0146DA0000DF
:0146DB0000DE
:0146DC0000DD
:0146DD0000DC
:0146DE0000DB
:0146DF0000DA
:0146E00000D9
:0146E10000D8
:0146E20000D7
:0146E30000D6
:0146E40000D5
:0146E50000D4
:0146E60000D3
:0146E70000D2
:0146E80000D1
:0146E90000D0
:0146EA0000CF
:0146EB0000CE
:0146EC0000CD
:0146ED0000CC
:0146EE0000CB
:0146EF0000CA
:0146F00000C9
:0146F10000C8
:0146F20000C7
:0146F30000C6
:0146F40000C5
:0146F50000C4
:0146F60000C3
:0146F70000C2
:0146F80000C1
:020000040030CA
:0E00000023285F3CFF5081FF0FC00FE00F4030
:00000001FF
