:0400000028EF17F0DE
:1000080000C01EF001C01DF002C01CF003C01BF0B0
:1000180004C01AF005C019F008C018F009C017F09C
:100028000AC016F00BC015F0E1CF27F0E2CF28F098
:10003800E9CF25F0EACF26F0F3CF23F0F4CF24F070
:10004800F5CF22F0F8CF1FF0F7CF20F0F6CF21F050
:1000580024EC15F0F2A03CD081BC02D0D88001D0AD
:10006800D89030B003D002E2309001D0308030B068
:1000780002D0899001D089803F0E2A14016E01C0F8
:1000880003F00336039003360390026A81B8022A0C
:1000980002C001F001360190006A81BA002A0150BD
:1000A800001203500012F70E0024F66E3A0EF76E97
:1000B800000EF722000EF86E000EF8220900F5CFA8
:1000C8002AF0C00E2A14006E00500001B313F290FB
:1000D800A1A206D00001B705006E00C0B7F0A1923A
:1000E80022C0F5FF1FC0F8FF20C0F7FF21C0F6FFB0
:1000F80023C0F3FF24C0F4FF1EC000F01DC001F0B0
:100108001CC002F01BC003F01AC004F019C005F0AF
:1001180018C008F017C009F016C00AF015C00BF097
:1001280025C0E9FF26C0EAFF27C0E1FF28C0E2FF9B
:020138001100B4
:10013A001E0E6B6E100E01011B6F040E1C6F1BC18D
:10014A00E1FF1CC1E2FFE69E1BC1E1FF1CC1E2FF09
:10015A00E69C040E1B25E16E000E1C21E26EE68C65
:10016A00180E0001BB6F040EBC6FBBC0E1FFBCC020
:10017A00E2FFE69EBBC0E1FFBCC0E2FFE69C040EC4
:10018A00BB25E16E000EBC21E26EE68C020E010177
:10019A001B25E16E000E1C21E26EBEC0E6FFBFC049
:1001AA00E6FF010E1B25E16E000E1C21E26E400ED9
:1001BA00E66E1BC1E9FF1CC1EAFFEECF00F01BC1CE
:1001CA00E1FF1CC1E2FF400E0014E66E1BC1E9FF0D
:1001DA001CC1EAFFEECF00F01BC1E1FF1CC1E2FF28
:1001EA00880E0010E66E1BC1C6F01CC1C7F0040ED3
:0A01FA001B19006E00C01BF112007B
:100204000B6A0A6A096A00500402F4CF09F0F3CFBA
:1002140008F001500502F4CF0BF0F3CF0AF00050C0
:100224000502F3500926F4500A22E86A0B22015011
:100234000402F3500926F4500A22E86A0B2208C08B
:1002440000F009C001F00AC002F00BC003F0120074
:1002540004012051800AD8A47AD0C00E00019B6FFB
:100264006BD00001710E006E3B0E016E000E026E2B
:1002740000C098F001C099F002C09AF0120E9C6F71
:10028400000E9D6F64D00001030E006E000E016E1F
:1002940022C404F0000E056EB3DFB00E0024E96E34
:1002A400000E0120EA6EEECF98F0EECF99F0EECF7B
:1002B4009AF0020E9825F66E000E9921F76E000E44
:1002C4009A21F86E0900F5CF00F00900F5CF01F08E
:1002D40000C09CF001C09DF03AD0040122510101FC
:1002E400185D24E3030E006E000E016E22C404F0B8
:1002F400000E056E85DFA70E0024E96E000E0120B6
:10030400EA6EEECF98F0EECF99F0EECF9AF098C067
:10031400F6FF99C0F7FF9AC0F8FF0900F5CF00F087
:1003240000C09CF0000E00019D6F02D000019B6B89
:100334000ED000019B6B0BD004012351010A91E004
:100344002351020AA0E02351030AC7E0F2D71200A6
:10035400000E00019D5D02E1080E9C5D11E29CC04F
:1003640003F09DC004F001011251000A03E1010EE3
:10037400126F05D01251010A02E1020E126F04D06D
:10038400080E036E000E046EB9C0E1FFBAC0E2FFAE
:10039400E692B9C0E1FFBAC0E2FFE690B9C0E9FF56
:1003A400BAC0EAFFEECF00F0B9C0E1FFBAC0E2FF85
:1003B40004500010E66E010E0001B925E16E000E36
:1003C400BA21E26E03C0E6FF03509C5D006E045048
:1003D4009D59016E00C09CF001C09DF0280E0101E2
:1003E4000E6F040E0F6F00019BB131D00350041047
:1003F4002DE098C0F6FF99C0F7FF9AC0F8FF0900F6
:10040400F5CF00F00EC1E1FF0FC1E2FF00C0E6FF2F
:1004140001010E4B0F2B010E00019825006E000EFA
:100424009921016E000E9A21026E00C098F001C05D
:1004340099F002C09AF0010E035C006E000E04589D
:10044400016E00C003F001C004F0D0D726D00350E1
:10045400041023E098C0E9FF99C0EAFF0EC1E1FF50
:100464000FC1E2FFEECFE6FF01010E4B0F2B010E91
:1004740000019825006E000E9921016E00C098F0CD
:1004840001C099F0010E035C006E000E0458016E69
:0C04940000C003F001C004F0DAD7120031
:1004A00020C401F01F0E01160150010A01E094D092
:1004B00004012451000A01E08FD02151060A42E1D3
:1004C00037D03450010A18E1A60E006E3A0E016EC4
:1004D000000E026E120E0026000E0122022200C043
:1004E00098F001C099F002C09AF0090E00019C6FCB
:1004F000000E9D6FC00E9B6F25D03450010A13E192
:1005000000018C0E006E390E016E000E026E00C0EE
:1005100098F001C099F002C09AF0790E9C6F000E1D
:100520009D6FC00E9B6F0ED00001800E9B6F0AD096
:1005300004012351210AC5E02351220ADEE02351A0
:10054000230AF2E020C401F0600E0116050E006ED1
:10055000005004E00132019EFF0FFBD70150010A59
:1005600001E03AD026D038D037D0BD0E0001986FC8
:10057000000E996F010E9C6F000E9D6FC10E9B6F58
:100580002BD00001800E9B6F23C4BDF025D000014D
:10059000110E986F010E996F010E9C6F000E9D6FEA
:1005A000810E9B6F19D00001800E9B6F22C411F148
:1005B00013D004012151010AD6E02151090AD4E0E7
:1005C0002151020AD2E021510A0ADBE02151030A3B
:0A05D000DEE021510B0AE7E0120003
:1005DA000401286B296B4AD000019B8F04012881F2
:1005EA0001011351010A02E10401288354D00001D8
:1005FA009B8F51D000019B8F040124BF16D024C4C5
:10060A0003F00F0E031603C000F0000E016E003651
:10061A0000900136190E0024E96E010E0120EA6EDF
:10062A00EECF04F0EECF05F015D024C403F00F0E80
:10063A00031603C000F0000E016E0036009001366A
:10064A00B90E0024E96E000E0120EA6EEECF04F026
:10065A00EECF05F004C0E9FF05C0EAFFEECF01F0D6
:10066A0001A403D00401010E286F15D020C401F0A3
:10067A001F0E01160150000AAFE020C401F01F0E40
:10068A0001160150010AB3E020C401F01F0E011641
:10069A000150020AAFE000019BAF07D0280E986F05
:0C06AA00040E996F9B81020E9C6F1200E1
:1006B60004012251010A13E120C401F01F0E0116A4
:1006C6000150000A0CE100019B8F04012151030A2D
:1006D60004E1010E0101136F02D00101136B040145
:1006E6002251000AD8A48DD020C401F01F0E011695
:1006F6000150020AD8A485D024C401F00F0E0116B9
:100706000150000AD8B47DD000019B8F040124BF9C
:1007160016D024C403F00F0E031603C000F0000E1B
:10072600016E003600900136190E0024E96E010EA6
:100736000120EA6EEECF04F0EECF05F015D024C40A
:1007460003F00F0E031603C000F0000E016E003614
:1007560000900136B90E0024E96E000E0120EA6E03
:10076600EECF04F0EECF05F02151030A07E104C0F5
:10077600E1FF05C0E2FF840EE66E43D024C400F01C
:100786000F0E00166A0E026E0F0E036E0050022642
:10079600D8B0032A02C0E9FF03C0EAFFFE0EEE143A
:1007A600006EEECF01F0FF0E011602C0E1FF03C09E
:1007B600E2FF00C0E6FF01C0E6FF24AF11D004C08F
:1007C600E1FF05C0E2FFE66A040E0418006E00C0F1
:1007D60004F004C0E1FF05C0E2FF400EE66E11D052
:1007E60004C0E1FF05C0E2FF880EE66E040E0418A1
:1007F600006E00C004F004C0E1FF05C0E2FFC80EB1
:04080600E66E120088
:10080A0000019B8F6B6AC56B22C434F03450000A16
:10081A0004E1100E0101106F04D00101200E106FC7
:04082A0087DC120055
:10082E0020C401F0600E0116050E006E005004E0AB
:10083E000132019EFF0FFBD70150000A01E05FD08D
:10084E003BD000019B8F080E0101106F58D0FBDCCE
:10085E0056D0D4DF54D0340E0001986F000E996F2D
:10086E009B81010E9C6F9B8F4AD0B0DE48D01CDF5F
:10087E0046D0C50E006E000E016E040124510026F6
:10088E00D8B0012A00C098F001C099F000019B81F8
:10089E00010E9C6F9B8F33D000019B8FC50EE16EB6
:1008AE00000EE26E04012451E126D8B0E22A22C4E1
:1008BE00E6FF25D024D023D004012151050AC1E042
:1008CE002151060AC4E02151090AC3E02151080A48
:1008DE00C2E02151000AC9E02151010AC8E02151AC
:1008EE00030AC5E021510A0AC4E021510B0AD4E0E3
:1008FE002151070ADFE021510C0ADDE0DCD712009E
:10090E00609800019BBF49D0A0AF28D0020EB86FEF
:10091E00010EB925E16E000EBA21E26EE66AB9C08B
:10092E00E1FFBAC0E2FFC80EE66E010EB425E16E1D
:10093E00000EB521E26E080EE66E020EB425E16ED3
:10094E00000EB521E26E280EE66E040EE66EB4C001
:10095E00E1FFB5C0E2FFC80EE66E1ED0010EB42553
:10096E00E16E000EB521E26E080EE66E020EB425A3
:10097E00E16E000EB521E26E200EE66E040EE66EFE
:10098E00B4C0E1FFB5C0E2FF8C0EE66EB9C0E1FF68
:10099E00BAC0E2FF840EE66E83D0A0BF81D0040100
:1009AE0020AF56D000019D510401275D04E10001E6
:1009BE009C510401265D04E226C49CF027C49DF0E0
:1009CE00C2DC010E0001B86F010EB425E16E000EFF
:1009DE00B521E26E080EE66E020EB425E16E000E33
:1009EE00B521E26E200EE66E040EE66EB4C0E1FF97
:1009FE00B5C0E2FF800EE66EB66B010E2E24E16EE0
:100A0E00000E2F20E26E080EE66E020E2E24E16E10
:100A1E00000E2F20E26E200EE66E040EE66E2EC045
:100A2E00E1FF2FC0E2FF840EE66E010EB66F020EDE
:100A3E00B925E16E000EBA21E26E280EE66E040EA6
:100A4E00E66EB9C0E1FFBAC0E2FFC80EE66E28D06E
:100A5E000001020EB86F010EB925E16E000EBA212B
:100A6E00E26EE66AB9C0E1FFBAC0E2FFC80EE66EFA
:100A7E00010EB425E16E000EB521E26E080EE66E93
:100A8E00020EB425E16E000EB521E26E280EE66E62
:100A9E00040EE66EB4C0E1FFB5C0E2FFC80EE66E0E
:020AAE00120034
:080AB0002D5201E0F5DC1200FB
:0E0AB800160E626E9F0E666E3B0E646E12008E
:100AC6000001B86BB9C0E1FFBAC0E2FFE66A040EE6
:100AD600B919E16EBAC0E2FF000EE21AE66AA0AFEB
:060AE60001D0A09F1200E8
:100AEC00010E2E24E96E000E2F20EA6EEECF00F0E0
:100AFC0000C002F0000E0001A25D02E10250A15DF7
:100B0C0003E2A1C002F00AD00250A15D006E000EFB
:100B1C00A259016E00C0A1F001C0A2F0036A0250FC
:100B2C00035C1CE2280EE96E040EEA6E0350E92603
:100B3C00D8B0EA2AEECF00F09EC0E1FF9FC0E2FFE2
:100B4C0000C0E6FF010E9E25006E000E9F21016E77
:100B5C0000C09EF001C09FF0032AE1D7000E006E8A
:100B6C00A251005C02E1A151000828E2010EB4255B
:100B7C00E16E000EB521E26E080EE66E020EB42593
:100B8C00E16E000EB521E26E280EE66E040EE66EE6
:100B9C002EC0E9FF2FC0EAFFEECF00F000BC07D05B
:100BAC00B4C0E1FFB5C0E2FFC80EE66E06D0B4C01B
:100BBC00E1FFB5C0E2FF880EE66E19D0010EB42538
:100BCC00E16E000EB521E26E080EE66E020EB42543
:100BDC00E16E000EB521E26E200EE66E040EE66E9E
:100BEC00B4C0E1FFB5C0E2FF840EE66EA09F120018
:100BFC00A60E0001B06F3A0EB16F000EB26F680E08
:100C0C00A76F410EA86F000EA96F4A0EAA6F3B0E7C
:100C1C00AB6F000EAC6FCF0EAD6F3A0EAE6F000E19
:040C2C00AF6F120094
:100C3000E5DFC66BC76B01011D6B1E6B676A656ADA
:100C40003BDF608C636A6B6A609C0001C36BC46BA2
:100C5000000EC45D02E1080EC35D17E2C3C000F0E0
:100C6000C4C001F000360090013600360090013615
:100C7000000E0024E16E040E0120E26EE66AE66AD0
:100C8000E66AE66AC34BC42BE3D7160E6A6E65A606
:100C900003D0F70E6516FBD79B6BA06BA16BA26B05
:100CA0006098080EB96F040EBA6F346A0101106BB8
:020CB000120030
:100CB200040E0001B919006E00C0B9F00101105113
:100CC200080A0AE122C463FF6350000803E2100E1F
:100CD200106F02D0040E106F0001B851010A3DE1FD
:100CE200020EB925E16E000EBA21E26E280EE66E02
:100CF200040EE66EAAEC01F001011251020A07E1AC
:100D0200B9C0E1FFBAC0E2FF840EE66E25D0040E40
:100D12000001B919006E00C0B9F0B9C0E9FFBAC04C
:100D2200EAFFEECF00F000BC0CD0040EB919006E41
:100D320000C0B9F0B9C0E1FFBAC0E2FFC80EE66E6A
:100D42000BD0040EB919006E00C0B9F0B9C0E1FFB2
:0E0D5200BAC0E2FF880EE66E01D0B4DE1200D9
:100D60000001B851020A02E1C1DE1ED0ACDEB6516C
:100D7000000A19E1010EB425E16E000EB521E26E04
:100D8000080EE66E020EB425E16E000EB521E26E8D
:100D9000200EE66E040EE66EB4C0E1FFB5C0E2FFC1
:0A0DA0008C0EE66E01D0B66B120057
:0A0DAA006484EF0E651660821200EB
:100DB4006AA019D02EC0E9FF2FC0EAFFEECF01F0E0
:100DC4000150800A0FE1B9C0E9FFBAC0EAFFEECFD3
:100DD40001F00150840A06E12EC0E1FF2FC0E2FFBA
:0C0DE4008C0EE66E6A90DF0E65161200A1
:040DF000A4941200B5
:100DF4006092649465A403D0FB0E6516FBD71200C1
:100E0400B9C0E9FFBAC0EAFFEECF00F000AE05D0EA
:100E1400B9C0E1FFBAC0E2FFE66A0101126B00014A
:100E2400B86B9C6B9D6B9B6B00DD40DE6EDD12002E
:100E340001015551000A12E054C100F0000E016E88
:100E4400003600900136B90E0024E96E000E012030
:100E5400EA6EEECF04F0EECF05F011D054C100F0ED
:100E6400000E016E003600900136190E0024E96E62
:100E7400010E0120EA6EEECF04F0EECF05F0020E73
:100E84000424E16E000E0520E26E56C1E6FF57C150
:100E9400E6FF010E0424E16E000E0520E26E58C147
:100EA400E6FF04C0E9FF05C0EAFFEECF00F004C08E
:100EB400E1FF05C0E2FF400E0014E66E04C0E9FF46
:100EC40005C0EAFFEECF00F004C0E1FF05C0E2FF79
:100ED400880E0010E66E5551000A1BE054C100F064
:100EE400000E016E003600900136B90E0024026E29
:100EF400000E0120036E02C0E9FF03C0EAFF040EE6
:100F0400EE18006E02C0E1FF03C0E2FF00C0E6FF7E
:100F14001AD054C100F0000E016E00360090013664
:100F2400190E0024026E010E0120036E02C0E9FFB7
:100F340003C0EAFF040EEE18006E02C0E1FF03C016
:100F4400E2FF00C0E6FF04C000F005C001F012009B
:100F5400000E0101551902E1000E541902E1016A63
:100F64000AD054C1E9FF55C1EAFFEECF00F0000EEC
:0C0F740000BE010E016E01C000F0120072
:100F800001011051000A0AE1606A646A95DD60B6E9
:100F900002D06086FCD70101010E106F1051010ACA
:100FA00008E160BA06D0656A646A64806488020EEB
:100FB000106F65A405D064A403D0FB0E65161ADF7C
:100FC00060A202D015DFD7D065A018D064A016D0DB
:100FD0002FDE040E106F200E0401026F040E036F4B
:100FE000080E016F000E0015006E00C000F48C0E9C
:100FF0000011006E00C000F4FE0E651665A805D055
:1010000064A803D0D2DEEF0E651665AC04D064ACE4
:1010100002D0BF0E651665AA03D064AA01D0CADE4D
:1010200065A202D064B2676A040E0101105D02E29B
:10103000DFDEA1D064A69ED0556B040E555DD8B0FE
:1010400099D065A693D061CFC2F0F70E6516780EE1
:101050000001C215016E0150000AD8A486D0FD0E11
:10106000C215016E026AFF0E0216000E021802E19E
:10107000000E01186CE17E0EC215016E01C003F076
:101080000332039E03C000F0000E016E0036009094
:101090000136003600900136000E0024026E040E68
:1010A0000120036E02C02EF003C02FF002C0B4F086
:1010B00003C0B5F0040EB419006E00C0B4F002C055
:1010C000E9FF03C0EAFFEECF00F000C001F03C0EE4
:1010D00001160132019E0132019E01500D0A35E1D7
:1010E000020E2E24E96E000E2F20EA6EEECF01F0E4
:1010F000EECF02F00250040A02E1280E011823E1AB
:10110000020E2E24E16E000E2F20E26E200EE66EFF
:10111000040EE66E0101546B080E545D14E2200EBD
:10112000E16E040EE26E5451E126D8B0E22A280E98
:10113000E96E040EEA6E5451E926D8B0EA2AEECFE1
:10114000E6FF542BE9D75EDE01D00ADE0DD0FD0E9E
:10115000C215016E026AFF0E0216000E021802E1AD
:10116000040E011801E1A5DD00D001D003D001017A
:08117000552B63D73DDE120090
:10117800200E0101105D03E360B201D002D0006AC5
:1011880046D01DC154F11EC155F1E0DE00523EE1CA
:1011980051C154F1010E556F4EC156F14FC157F16F
:1011A80050C158F143DE00C01DF101C01EF1146B9F
:1011B800156B166B176B1DC154F11EC155F1C6DEB8
:1011C80000520FE0010E016E0150000A01E1D4DE69
:1011D8000101145115111611171102E0006A17D0F8
:1011E800EAD71DC152F11EC153F1000E1E1902E1CA
:1011F800000E1D1909E0010E5225E96E000E53215B
:10120800EA6EEECF00F003D0006A01D0006A120047
:101218004BC14EF14CC14FF14DC150F1010E0101CE
:06122800516FA6DF120069
:10122E0035B001D021D04B0E0501086F2CC009F549
:10123E000A6B2BC00BF5080E01014B6F050E4C6FA0
:10124E00040E4D6FE2DF005201E1F5D70501096B87
:10125E000B6B080E01014B6F050E4C6F040E4D6F9C
:0A126E00D4DF005201E1F5D71200B1
:10127800220E0C6E086A096A0A6A0B6A0C06D8B450
:101288001FD0D8900B320A320932083203320232A8
:1012980001320032D8A0F2D70C06D8B409D00450D5
:1012A80008260550092206500A2207500B22EAD7C1
:1012B800045008260550092206500A2207500B221E
:0212C800120012
:1012CA00C80E056E000E066E05C003F006C004F0D7
:1012DA00054A062A48C100F049C101F04AC102F094
:1012EA00010E01014827000E49234A2300C0F6FFD8
:1012FA0001C0F7FF02C0F8FF0900F5CF00F003C0F4
:10130A00E1FF04C0E2FF00C0E6FF03C0E9FF04C03A
:10131A00EAFFEE5201E0D8D7C80E006E000E016E49
:02132A001200AF
:10132C0048C1E9FF49C1EAFFEE5238E02C6A48C1D6
:10133C00E9FF49C1EAFF800EEE5C25E248C1D9FF06
:10134C0049C1DAFF0C0EDE24F66E390EF76E000E74
:10135C00F722000EF86E000EF8220900F5CF00F00F
:10136C0000C04AF100520DE001014AAF07D02C80B9
:10137C007F0E4A15006E00C02BF002D04AC12BF034
:10138C0001D02B6A06D048C1E9FF49C1EAFFEECF74
:0E139C004AF147DF0101484B492BC2D712002E
:1013AA0045C148F146C149F147C14AF189DF00C048
:0A13BA0048F101C049F1B5DF12004F
:1013C400086A080E0C6E003408360450085ED8B063
:0E13D40002D00826D89000360C2EF5D7120055
:1013E200F00E01014515026E02C000F00032009EAF
:1013F2000032009E0032009E0032009E830E0024C6
:10140200F66E3B0EF76E000EF722000EF86E000E1F
:10141200F8220900F5CF00F046C1E1FF47C1E2FF23
:1014220000C0E6FF464B472B0F0E4515006E830E9C
:101432000024F66E3B0EF76E000EF722000EF86ED9
:10144200000EF8220900F5CF00F046C1E1FF47C1C6
:10145200E2FF00C0E6FF464B472B46C1E1FF47C112
:06146200E2FFE66A120041
:10146800870E0101455D20E2030E006E000E016E3D
:10147800026E036E45C104F0000E056E066E076E1F
:10148800F7DE480E0024F66E360E0120F76E000EC9
:101498000220F86E0900F5CF00F00900F5CF01F041
:1014A8000900F5CF02F006D02A0E006E430E016E39
:0614B800000E026E12009E
:1014BE00650E0101455D20E2030E006E000E016E09
:1014CE00026E036E45C104F0000E056E066E076EC9
:1014DE00CCDEDD0E0024F66E370E0120F76E000E08
:1014EE000220F86E0900F5CF00F00900F5CF01F0EB
:1014FE000900F5CF02F006D0280E006E430E016EE5
:06150E00000E026E120047
:1015140035B001D021D04B0E0501086F3EC109F54D
:101524000A6B3FC10BF5080E01014B6F050E4C6FA2
:10153400040E4D6F6FDE005201E1F5D70501096B12
:101544000B6B080E01014B6F050E4C6F040E4D6FB3
:0A15540061DE005201E1F5D712003C
:10155E000101416B030E415D0AE241513F25E16EEF
:10156E00000E4021E26E200EE66E412BF3D7415164
:10157E003F25E16E000E4021E26EE66A41074151C1
:10158E003F25426F000E4021436F0A0E046E3EC18E
:10159E0000F011DF08C000F0300E002642C1E1FF5E
:1015AE0043C1E2FF00C0E6FF0A0E046E3EC100F02A
:1015BE0002DF00C03EF10050000A01E102D04107F7
:0415CE00DED7120052
:1015D2003EC145F13F0E0101466F010E476F00DF2C
:0C15E2003F0E486F010E496FA0DE1200A2
:1015EE00020E01013E25436F000E3F21446FB0D025
:1015FE00010E3E25E96E000E3F21EA6EEECF00F0A1
:10160E0000A01FD03EC1E9FF3FC1EAFFEECF45F17A
:10161E004FDF00C040F101C041F102C042F100C0F5
:10162E00F6FF01C0F7FF02C0F8FF0900F5CF00F08A
:10163E00005207E040C100F041C101F042C102F08A
:10164E00A8D03EC1E9FF3FC1EAFFEECF45F105DF6D
:10165E00A0D03EC1E9FF3FC1EAFFEECF01F00F0E71
:10166E00015C24E23EC1E9FF3FC1EAFFEECF00F08C
:10167E00000E016E026E036E030E046E000E056EFA
:10168E00066E076EF2DD790E0024F66E3A0E01201C
:10169E00F76E000E0220F86E0900F5CF00F009007B
:1016AE00F5CF01F00900F5CF02F073D0290E006ED0
:1016BE00430E016E000E026E6CD03EC1E9FF3FC1BB
:1016CE00EAFFEECF00F0EECF01F0FF0E0014026E37
:1016DE0001500F0B036E020E035C02E1A00E025CC2
:1016EE0029E23EC1E9FF3FC1EAFFEECF00F0EECFA7
:1016FE0001F0FF0E00160F0E0116000E026E036EA5
:10170E00030E046E000E056E066E076EAEDD680EDD
:10171E000024F66E2E0E0120F76E000E0220F86EDB
:10172E000900F5CF00F00900F5CF01F00900F5CF63
:10173E0002F02FD02C0E006E430E016E000E026EC4
:10174E0028D02B0E006E430E016E000E026E21D0BD
:10175E0043C1E9FF44C1EAFF0F0EEE14016E0150C2
:10176E00000AD8B445D743C1E9FF44C1EAFF0F0EC2
:10177E00EE14016E0150010AD8B46BD743C1E9FFD4
:10178E0044C1EAFF0F0EEE14016E0150020A95E0FD
:04179E00D8D7120086
:1017A200010E01013E25E96E000E3F21EA6EEECFE9
:1017B20000F000A607D0960E456F400E466F000E51
:1017C200476FF2DD010E01013E25E96E000E3F2159
:1017D200EA6EEECF00F000A207D07D0E456F400EFC
:1017E200466F000E476FE0DD010E01013E25E96EF6
:1017F200000E3F21EA6EEECF00F000A407D0690E82
:10180200456F400E466F000E476FCEDD010E01019F
:101812003E25E96E000E3F21EA6EEECF00F000A0F9
:1018220007D0540E456F3F0E466F000E476FBCDD6A
:021832001200A2
:101834000101346B356B366B020E3125F66E000EEA
:101844003221F76E000E3321F86E0900F5CF05F052
:10185400030E3125F66E000E3221F76E000E332191
:10186400F86E0900F5CF00F000C003F0000E046E1E
:1018740003C001F0006A05500024066E000E01202A
:10188400076E31C108F032C109F033C10AF0010E0C
:101894000824F66E000E0920F76E000E0A20F86E7A
:1018A4000900F5CF01F00150020A1BE1060E0824DD
:1018B400F66E000E0920F76E000E0A20F86E09007D
:1018C400F5CF01F00150345D0CE2060E0824F66EEB
:1018D400000E0920F76E000E0A20F86E0900F5CFFD
:1018E40034F1010E0824F66E000E0920F76E000E86
:1018F4000A20F86E0900F5CF01F00150040A1BE13B
:10190400080E0824F66E000E0920F76E000E0A2059
:10191400F86E0900F5CF01F00150345D0CE2080EB9
:101924000824F66E000E0920F76E000E0A20F86EE9
:101934000900F5CF34F108C0F6FF09C0F7FF0AC06B
:10194400F8FF0900F5CF00F000503525016E000EB8
:101954003621026E01C035F102C036F10750025C37
:1019640002E10650015C01E30FD008C0F6FF09C094
:10197400F7FF0AC0F8FF0900F5CF00F00050082671
:0E198400000E09220A2283D734C100F012009F
:10199200710E006E3B0E016E000E026E0E0E0024E2
:1019A200F66E000E0120F76E000E0220F86E09009E
:1019B200F5CF03F003C004F00F0E0024F66E000E04
:1019C2000120F76E000E0220F86E0900F5CF01F03B
:1019D2000150035C12E2710E006E3B0E016E000EAE
:1019E200026E0F0E0024F66E000E0120F76E000E3E
:1019F2000220F86E0900F5CF04F0710E006E3B0E66
:101A0200016E000E026E100E0024F66E000E012012
:101A1200F76E000E0220F86E0900F5CF01F00150BA
:101A2200045C12E2710E006E3B0E016E000E026E3D
:101A3200100E0024F66E000E0120F76E000E02203A
:0E1A4200F86E0900F5CF04F004C000F01200A9
:101A500031C13EF1BEDD01013E6B2C0E3F6F5ADD00
:101A6000020E01013225E96E000E3321EA6E0F0EDF
:101A7000EE143E6F3E373E913E373E913E373E91EB
:101A80003E373E91010E3225E96E000E3321EA6E9B
:101A9000EECF00F00F0E001600503E139ADD32C15B
:101AA000E9FF33C1EAFFEECF3EF193DD01013E6B6A
:101AB0002C0E3F6F2FDD020E010132253C6F000E10
:101AC00033213D6FC2D032C13EF133C13FF169DEF7
:101AD00032C13EF133C13FF18ADD00C045F101C0A2
:101AE00046F102C047F161DCC7D0010E0101322589
:101AF000006E000E3321016E00C03AF101C03BF1CF
:101B000075D00101C30E456F3F0E466F000E476F43
:101B10004CDC32C1E9FF33C1EAFFEECF3EF1360EB5
:101B200001013F6F010E406F1ADD360E346F010E5A
:101B3000356F34C1E9FF35C1EAFFEE50200A03E1F9
:101B4000344B352BF6D734C148F135C149F196EC09
:101B500009F05F0E0101456F400E466F000E476FA2
:101B600024DC64D0C90E0101456F3F0E466F000EA4
:101B7000476F1BDC32C1E9FF33C1EAFFEECF3EF114
:101B8000360E01013F6F010E406FE9DC360E346FF7
:101B9000010E356F34C1E9FF35C1EAFFEE50200A6E
:101BA00003E1344B352BF6D734C148F135C149F147
:101BB00096EC09F0440E0101456F410E466F000E90
:101BC000476FD5EC09F032D0B10E0101456F3F0EE1
:101BD000466F000E476FD5EC09F032C1E9FF33C103
:101BE000EAFFEECF3EF1F5DC21D020D03AC1E9FF8B
:101BF0003BC1EAFF0F0EEE14016E01500F0AD8B47C
:101C000080D73AC1E9FF3BC1EAFF0F0EEE14016E27
:101C100001500E0AA7E03AC1E9FF3BC1EAFF0F0EEF
:101C2000EE14016E0150000ACFE0DFD725D032C19B
:101C30003EF133C13FF1DBDC00C045F101C046F1AC
:101C400002C047F1D5EC09F017D03CC1E9FF3DC116
:101C5000EAFF0F0EEE14016E0150000AD8B433D71C
:101C60003CC1E9FF3DC1EAFF0F0EEE14016E0150C9
:0A1C70000F0AD8B43AD7DBD71200F0
:0A1C7A00D08EA584A384F28E120020
:101C840038D0450E006E3C0E016E000E026E5CD024
:101C9400130E006E3B0E016E000E026E55D02F0E19
:101CA400006E3B0E016E000E026E4ED0B40E006E3E
:101CB4003B0E016E000E026E47D00E0E006E3E0EFD
:101CC400016E000E026E40D0370E006E3C0E016EA7
:101CD400000E026E39D05E0E006E3B0E016E000ED9
:101CE400026E32D0250E006E430E016E000E026E9F
:101CF4002BD00F0E3314016E0150000AC2E00F0EF8
:101D04003314016E0150020AC3E00F0E3314016E46
:101D14000150010AC4E00F0E3314016E01500C0A85
:101D2400C5E00F0E3314016E01500D0AC6E00F0E0C
:101D34003314016E01500E0AC7E00F0E3314016E06
:0A1D440001500F0AC8E0CED71200CC
:101D4E00020E01013E6F4A0E3F6F8AEC0AF001014E
:101D5E002F072F5306E03E6B510E3F6F8AEC0AF0B1
:101D6E00F6D7010E01013E6F4D0E3F6F8AEC0AF061
:021D7E00120051
:101D800008DE00C02FF1A60E0101316F3A0E326F4E
:101D9000000E336F4FDD00C030F12F51005C03E2C5
:0C1DA0002FC100F002D030C100F0120092
:101DAC0001011051000A0BE1606A646A5CEC05F0F9
:101DBC005EDF60B602D06086FCD7010E106F120099
:101DCC00020E01013E6F4A0E3F6F8AEC0AF0030EC1
:0E1DDC0001013E6F4D0E3F6F8AEC0AF01200BF
:0A1DEA00606A646A0101106B1200C8
:101DF40001013E6B280E3F6F8AEC0AF001013E6B35
:0A1E04004A0E3F6F8AEC0AF012004C
:101E0E002FC131F1030E006E000E016E2FC104F0D2
:101E1E00000E056E02EC01F0380E00240101326F47
:0A1E2E00000E0120336F0DDE1200DC
:041E3800D8DF1200DD
:101E3C00030E01012F6F85DF37C03EF1E9EC0AF08C
:101E4C00570E0101456F420E466F000E476FD5ECE1
:101E5C0009F00F0E33140101456F2B0E466F010E66
:101E6C00476FF1EC09F02C0E486F010E496F96ECA0
:101E7C0009F06E0E0101456F400E466F000E476F64
:101E8C00D5EC09F00F0E331401012F6FF5DE00C0F5
:101E9C0045F101C046F102C047F1D5EC09F0010E45
:0E1EAC0001013E6F4A0E3F6F8AEC0AF01200F1
:101EBA002BC1E9FF2CC1EAFFEECF00F0EECF01F013
:101ECA00FF0E001401012D6F01500F0B2E6F2D4BC9
:101EDA002E2B020E2E5D02E1A00E2D5D30E2030EC6
:101EEA00006E000E016E026E036E2DC104F02EC14B
:101EFA0005F0000E066E076E3CEC09F0680E002431
:101F0A00F66E2E0E0120F76E000E0220F86E090002
:101F1A00F5CF00F00900F5CF01F00900F5CF02F086
:101F2A0000C0F6FF01C0F7FF02C0F8FF0900F5CFB5
:101F3A0001F00150000A03E12D4B2E2BCAD7020EE5
:101F4A002E5D02E1A00E2D5D46E32D6B2E6B2BC19B
:101F5A00E9FF2CC1EAFFEECF00F0EECF01F0FF0E51
:101F6A000014026E01500F0B036E03502E5D02E146
:101F7A0002502D5D30E2030E006E000E016E026EFD
:101F8A00036E2DC104F02EC105F0000E066E076E19
:101F9A003CEC09F0680E0024F66E2E0E0120F76E56
:101FAA00000E0220F86E0900F5CF00F00900F5CF07
:101FBA0001F00900F5CF02F000C0F6FF01C0F7FFFB
:101FCA0002C0F8FF0900F5CF01F00150000A03E151
:101FDA002D4B2E2BBCD72DC100F02EC101F01200C3
:101FEA002BC129F0020E01012F6FACDE01012B512A
:101FFA00000A09E1460E456F3A0E466F000E476F1A
:10200A00D5EC09F009D0050E0101456F3A0E466F6D
:10201A00000E476FD5EC09F0030E01012F6F92DE17
:02202A001200A2
:10202C0035B001D023D0430E0501086F2BC009F544
:10203C000F0E2C140A6F080E01014B6F050E4C6F1E
:10204C00030E4D6F0CEC09F0005201E1F4D70501C1
:10205C00096B0A6B080E01014B6F050E4C6F030EDA
:0E206C004D6F0CEC09F0005201E1F4D71200A8
:10207A00020E01013E6F4D0E3F6F8AEC0AF0010E0F
:10208A0001013E6F4A0E3F6F8AEC0AF001013E6B76
:10209A004C0E3F6F8AEC0AF001013E6B2A0E3F6F2D
:0620AA008AEC0AF01200AE
:1020B00035B001D01FD0530E0501086F2BC009F5B4
:1020C000080E01014B6F050E4C6F020E4D6F0CECAC
:1020D00009F0005201E1F4D70501096B080E010176
:1020E0004B6F050E4C6F020E4D6F0CEC09F0005259
:0620F00001E1F4D712002B
:1020F60044DE00C018F1010E2D6E2BC1BEF02CC1BE
:10210600BFF02DC1C0F02EC1C1F018EC06F0010ED3
:0C211600016E0150010A01E146DE1200DA
:1021220054DE01013E6B4C0E3F6F8AEC0AF0120046
:102132002BC1E9FF2CC1EAFFEECF00F0EECF01F098
:10214200FF0E001401012D6F01500F0B2E6F010EB7
:102152002D5F000E2E5B000E006E2E51005C02E120
:102162002D51000832E2030E006E000E016E026E67
:10217200036E2DC104F02EC105F0000E066E076E2F
:102182003CEC09F0680E0024F66E2E0E0120F76E6C
:10219200000E0220F86E0900F5CF00F00900F5CF1D
:1021A20001F00900F5CF02F000C0F6FF01C0F7FF11
:1021B20002C0F8FF0900F5CF01F00150000A05E165
:1021C200010E2D5F000E2E5BC6D7000E2E1902E106
:1021D200000E2D194AE1A00E2D6F020E2E6F2BC19B
:1021E200E9FF2CC1EAFFEECF00F0EECF01F0FF0EC7
:1021F2000014026E01500F0B036E2E51035C02E1BC
:102202002D51025C32E2030E006E000E016E026E70
:10221200036E2DC104F02EC105F0000E066E076E8E
:102222003CEC09F0680E0024F66E2E0E0120F76ECB
:10223200000E0220F86E0900F5CF00F00900F5CF7C
:1022420001F00900F5CF02F000C0F6FF01C0F7FF70
:1022520002C0F8FF0900F5CF01F00150000A05E1C4
:10226200010E2D5F000E2E5BBAD72DC100F02EC1DC
:0422720001F0120065
:10227600020E01013E6F4D0E3F6F8AEC0AF001011E
:102286002B6B36502B5D07E2B2DD2BC12FF1BCDD87
:0822960001012B2BF6D7120009
:10229E00010E0101236F160E0001B76FB18081BCD4
:1022AE00BFD0B353D8B4A8D0B1900101236B030EA5
:1022BE002F6F46DD80D0800E006E800E0001B3BF02
:1022CE007F0E005C02E1B351000810E20F0E3214D3
:1022DE00006E000E016E004A012A3250001A0F0ED7
:1022EE0000163250001A00C032F00FD00F0E32140A
:1022FE00006E0006016A000E015A3250001A0F0ECF
:10230E0000163250001A00C032F06AD00001800E62
:10231E00006E800EB3BF7F0E005C02E1B351000869
:10232E0019E2FF0E3114006E32500F0B016E004A8F
:10233E00012A3150001A3250011AFF0E00160F0EEC
:10234E0001163150001A3250011A00C031F001C08E
:10235E0032F01AD0FF0E3114006E32500F0B016E98
:10236E00010E005E000E015A3150001A3250011A51
:10237E00FF0E00160F0E01163150001A3250011AC0
:10238E0000C031F001C032F02BD00001800E006E83
:10239E00800EB3BF7F0E005C02E1B351000806E26F
:1023AE003150010F006E00C031F004D03104006EC8
:1023BE0000C031F015D00F0E3314016E0150000A1B
:1023CE00D8B479D70F0E3314016E01500F0AD8B45A
:1023DE0072D70F0E3314016E0150020A97E0D5D753
:1023EE0037C031F1310E0101326F000E336F28EC20
:1023FE000DF00001B36B13D0B751000A10E10101CB
:10240E00236B365208E0360636C037F02FDE030E49
:10241E0001012F6F95DC0B0E0001B76F00D03FD777
:10242E00B1900101235362E03650375C2BE3200E4E
:10243E00375C27E2020E3E6F4D0E3F6F8AEC0AF0BC
:10244E00D2DC030E006E000E016E37C004F0000EDB
:10245E00056E02EC01F0380E0024E16E000E012034
:10246E00E26E030E006E310EE96E000EEA6EEECFD6
:10247E00E6FF0006FCE137C02FF1C2DC372A37C079
:10248E0036F023D0030E006E000E016E37C004F03E
:10249E00000E056E02EC01F0380E0024E16E000E07
:1024AE000120E26E030E006E310EE96E000EEA6E32
:1024BE00EECFE6FF0006FCE13750060F01012F6F4D
:1024CE003FDC37C02FF19CDC372A030E01012F6F42
:1024DE0037DC37C031F1310E0101326F000E336F30
:0E24EE0028EC0DF0030E01012F6F2ADC120006
:1024FC000F0E3314016E0150020A37E1800E006E8C
:10250C00800E010123BF7F0E005C02E12351000805
:10251C0016E2310E2B6F000E2C6FC9DC3150001AF5
:10252C003250011AFF0E00160F0E01163150001A10
:10253C003250011A00C031F001C032F015D0310E0A
:10254C002B6F000E2C6FEFDD3150001A3250011A38
:10255C00FF0E00160F0E01163150001A3250011AE0
:10256C0000C031F001C032F015D00101800E006EB8
:10257C00800E23BF7F0E005C02E12351000806E2AF
:10258C003150010F006E00C031F004D03104006EE8
:06259C0000C031F0120046
:0A25A200420E0001B76FB180120075
:1025AC00380E0101256F000E266F30908990236B39
:1025BC003650235DD8B014D130B012D1020E25257F
:1025CC00296F000E26212A6FD7D00101010E252577
:1025DC00E96E000E2621EA6EEECF00F00F0E00160B
:1025EC0000C02CF025C1E9FF26C1EAFFEECF00F0B8
:1025FC0000C02BF017EC09F0ECD025C1E9FF26C187
:10260C00EAFFEECF00F000C02BF04CDDE2D025C18C
:10261C00E9FF26C1EAFFEECF00F0EECF01F0FF0E8E
:10262C000014036E01500F0B046E04C000F0016A1D
:10263C0000C02CF025C1E9FF26C1EAFFEECF00F067
:10264C00EECF01F0FF0E00160F0E011600C02BF09E
:10265C00E7DCBFD0010E01012525006E000E2621FE
:10266C00016E00C027F101C028F165D025C1E9FF3A
:10267C0026C1EAFFEECF24F130B015D0010124C100
:10268C0000F0240700520FE03D0E0B6EE10E0C6EB5
:10269C003F0E0D6E0D2EFED70C2EFCD70B2EFAD73F
:1026AC0000000000E9D766D025C1E9FF26C1EAFF8A
:1026BC00EECF24F130B002D0058001D0059001019D
:1026CC0024C101F02407006A05B0002A015000164D
:1026DC000AE0100E0C6E940E0D6E0D2EFED70C2E05
:1026EC00FCD70000E7D746D025C1E9FF26C1EAFF99
:1026FC00EECF01F03650015C1CE2010125C1E9FF6F
:10270C0026C1EAFFEECF00F000C023F1000E016EEF
:10271C00030E046E000E056E02EC01F0380E002460
:10272C00256F000E0120266F030E255F000E265B21
:10273C00230720D01FD027C1E9FF28C1EAFF0F0EC5
:10274C00EE14016E01500F0A91E027C1E9FF28C178
:10275C00EAFF0F0EEE14016E01500E0AA5E027C120
:10276C00E9FF28C1EAFF0F0EEE14016E0150000ABA
:10277C00BBE0E0D72ED02DD029C1E9FF2AC1EAFF5A
:10278C000F0EEE14016E0150000AD8B41ED729C1E9
:10279C00E9FF2AC1EAFF0F0EEE14016E0150010A87
:1027AC00D8B42BD729C1E9FF2AC1EAFF0F0EEE14CA
:1027BC00016E0150020AD8B42AD729C1E9FF2AC1F7
:1027CC00EAFF0F0EEE14016E01500F0AD8B442D777
:1027DC00D2D70101232B030E2527000E2623E8D682
:0627EC00309089901200FC
:1027F20081BC1DD00001B35319E0B190800E006E70
:10280200800EB3BF7F0E005C02E1B351000805E207
:102812003650375CD8A0372A04D037500008D8A0E9
:1028220037061EEC0FF00001B36B00D0E1D70F0E9C
:102832003314016E0150000A08E1F00E3214006EEA
:1028420000C032F0040E316E0AD0000E3114006E58
:102852003250F00B016E00C031F001C032F0010EB7
:1028620001012B6FF5EC0FF037C031F1310E010190
:0C287200326F000E336F28EC0DF01200E6
:10287E0051DCE20E0101456F3B0E466F000E476FB5
:10288E00D5EC09F0FAEC0EF0FAEC0EF0FAEC0EF0D4
:10289E00FAEC0EF0C40E0101456F3B0E466F000EB2
:1028AE00476FD5EC09F0E0DCF00E3314006E00C07B
:1028BE0033F0040E316EF00E3214006E00C032F0A2
:0E28CE001EEC0FF001012B6BF5EC0FF0120069
:1028DC004B0E0501086F096B0A6B0B6B359035B00D
:1028EC0059D0000E01012B6F050E2C6F080E2D6FA9
:1028FC00050E2E6F7BEC10F0236B35B036D0320EFC
:10290C00235D33E2040E0B6E0C0E0C6E330E0D6E4B
:10291C000D2EFED70C2EFCD70B2EFAD70000000084
:10292C008980040E0B6E0C0E0C6E330E0D6E0D2E7C
:10293C00FED70C2EFCD70B2EFAD700000000899086
:10294C00080E4B6F050E4C6F040E4D6F0CEC09F01E
:10295C000050000A000ED8A4010E016E01B002D086
:10296C00359001D03580232BC8D735B012D01CEC54
:10297C000FF0020E0A6E310E0B6E620E0C6E450ECF
:10298C000D6E0D2EFED70C2EFCD70B2EFAD70A2E61
:10299C00F8D7A5D7100E0B6E390E0C6E0D0E0D6EF2
:1029AC000D2EFED70C2EFCD70B2EFAD700000000F4
:0229BC00120007
:1029BE000101235339E00101800E006E800E23BF0A
:1029CE007F0E005C02E1235100080AE20F0E331461
:1029DE00246F256B000E2517242B000E256F09D0B2
:1029EE000F0E3314246F256B000E25172407000ECF
:1029FE00256F0F0E2415006E3350001A0F0E0016A1
:102A0E003350001A00C033F00F0E33142F6F42EC08
:102A1E000EF000C0F6FF01C0F7FF02C0F8FF09007C
:0A2A2E00F5CF00F00052C7E01200DF
:102A38000900F5CFE6FF0006FBE10106F9E1120007
:102A480001011051010A07E160BA05D0656A648086
:102A58006488020E106F65A406D064A404D0FB0E2F
:102A68006516FAEC06F060A203D0F8EC06F0DFD0A9
:102A780065A019D064A017D018EC06F0040E106FEA
:102A8800200E0401026F040E036F080E016F000E82
:102A98000015006E00C000F48C0E0011006E00C01E
:102AA80000F4FE0E651665A806D064A804D0D5EC1F
:102AB80006F0EF0E651665AC04D064AC02D0BF0E0C
:102AC800651665AA04D064AA02D0DAEC06F065A2FD
:102AD80002D064B2676A040E0101105D03E2F8ECEB
:102AE80006F0A5D064A6A1D05A6B040E5A5DD8B0E2
:102AF8009CD065A696D061CFC2F0F70E6516780E09
:102B08000001C215016E0150000AD8A489D0FD0E3B
:102B1800C215016E026AFF0E0216000E021802E1CB
:102B2800000E01186EE17E0EC215016E01C003F0A1
:102B38000332039E03C000F0000E016E00360090C1
:102B48000136003600900136000E0024026E040E95
:102B58000120036E02C02EF003C02FF002C0B4F0B3
:102B680003C0B5F0040EB419006E00C0B4F002C082
:102B7800E9FF03C0EAFFEECF00F000C001F03C0E11
:102B880001160132019E0132019E01500D0A36E103
:102B9800020E2E24E96E000E2F20EA6EEECF01F011
:102BA800EECF02F00250040A02E1280E011823E1D8
:102BB800020E2E24E16E000E2F20E26E200EE66E2D
:102BC800040EE66E0101596B080E595D14E2200EE1
:102BD800E16E040EE26E5951E126D8B0E22A280EC1
:102BE800E96E040EEA6E5951E926D8B0EA2AEECF0A
:102BF800E6FF592BE9D702EC07F002D0B0EC06F05B
:102C08000ED0FD0EC215016E026AFF0E0216000EEE
:102C1800021802E1040E011802E159EC06F000D096
:102C280001D003D001015A2B60D7F8EC06F012004E
:102C38000F015B6B5C6B5D6BBE0E926EFF0E936E4D
:102C4800070E946E896A8A6A8B6AF19E700ED36E3B
:102C5800D3B401D0FDD7D3B601D0FDD7D2989B8E7F
:102C6800D288D2BE01D0FDD7B59EB588B58E356A5B
:102C78002B6A2C6A62886284F290868C868A86889F
:102C8800320EB16EA082F286F28CF28E309089906C
:102C9800366A0101206B380E216F000E226F200E5C
:102CA800205D0CE221C1E1FF22C1E2FFE66AE66A8B
:102CB800202B030E2127000E2223F1D7F00E331408
:102CC800006E00C033F0040E316EF00E3214006E48
:0E2CD80000C032F00001B36B376AFCDD120061
:102CE6000001B3532CE021D0B3C023F165DE1EEC06
:102CF6000FF022D0B3C023F17EEC12F0030E2F6F3B
:102D0600A7EC0EF037C031F1310E0101326F000E23
:102D1600336F28EC0DF0010E01013E6F4A0E3F6F36
:102D26008AEC0AF03BDC08D007D02950000ADCE028
:102D36002950010ADFE0F8D70001B36B5FD081BCF0
:102D460051D0309089904E0E0C6EEB0E0D6E0D2EFE
:102D5600FED70C2EFCD781BC42D03AD01FD091ECC6
:102D660010F0B70E0101456F3F0E466F000E476F1C
:102D7600D5EC09F0359225D091EC10F0400E01010A
:102D8600456F3E0E466F000E476FD5EC09F0359243
:102D960018D072DD16D02ADD01DC13D00F0E3314E5
:102DA600016E01500E0ADBE00F0E3314016E015066
:102DB6000C0AE2E00F0E3314016E01500D0AE9E031
:102DC600EAD70DD04FEC11F0D1EC12F008D007D0B5
:102DD6002950000AC3E02950010AF4E0F8D700019F
:102DE600B36B0CD0B1A00AD0B751000A07E1B1907D
:0E2DF60001012B6BF5EC0FF01EEC0FF012003C
:102E040081BC23D0309089904E0E0C6EEB0E0D6E6B
:102E14000D2EFED70C2EFCD781BC17D0160E000148
:102E2400B76FB18081BC09D00001B751000A04E139
:102E34003582B19022DD01D0F5D7B19081BC01D0AB
:0C2E4400FDD735B202D0D6EC12F012001F
:102E5000296A2A6AF1DE35A202D045DF01D0D2DF2D
:082E600030908990F8D7FFD7EC
:020006003D00BB
:102E6800F64300F84300F7430016440035440034A5
:102E780044003644003844003744003344002F44AB
:102E8800002E4400304400324400314400404400E5
:102E98003F44004144004344004244003E44003A59
:102EA80044003944003B44003D44003C44002D4468
:102EB800001E44001D44001F44002144002044001B
:102EC8001C44001844001744001944001B44001A0D
:102ED80044002944002844002A44002C44002B4480
:102EE80000274400234400224400244400264400D0
:102EF800254400E84300AB4300AA4300AC4300AEBE
:102F08004300AD4300A94300A54300A44300A643E2
:102F180000A84300A74300B64300B54300B74300E9
:102F2800B94300B84300B44300B04300AF4300B115
:102F38004300B34300B24300A343009443009343C8
:102F4800009543009743009643009243008E430048
:102F58008D43008F43009143009043009F43009EA0
:102F68004300A04300A24300A143009D43009943AE
:102F7800009843009A43009C43009B4300BA4300D7
:102F8800D94300D84300DA4300DC4300DB4300D7D1
:102F98004300D34300D24300D44300D64300D54373
:102FA80000E44300E34300E54300E74300E6430051
:102FB800E24300DE4300DD4300DF4300E14300E07D
:102FC8004300D14300C24300C14300C34300C5438B
:102FD80000C44300C04300BC4300BB4300BD4300E2
:102FE800BF4300BE4300CD4300CC4300CE4300D0D6
:102FF8004300CF4300CB4300C74300C64300C84348
:1030080000CA4300C94300444400BF4400BE440012
:10301800C04400C24400C14400BD4400B94400B8E3
:103028004400BA4400BC4400BB4400CA4400C9443C
:1030380000CB4400CD4400944100904100CC4400B2
:10304800C84400C44400C34400C54400C74400C683
:103058004400B74400A84400A74400A94400AB4476
:1030680000AA4400A64400A24400A14400A34400CE
:10307800464000F93F005B3F00A541005441003243
:103088003D00273D004B4000CF3F00463F00A54490
:1030980000A44400383F00B34400B24400B44400E4
:1030A800B64400B54400B14400AD4400AC4400AEA1
:1030B8004400B04400AF4400CE4400ED4400EC446A
:1030C80000EE4400483D00693D00F04400EF440034
:1030D800EB4400E74400E64400E84400EA4400E921
:1030E8004400F84400F74400F94400FB4400FA4463
:1030F80000F64400F24400F14400F34400F54400B3
:10310800F44400E54400094100D64400D544005E7B
:103118003D009B3E00923E00604100C84000D24006
:1031280000D74400D94400D84400D44400D0440017
:10313800CF4400D14400D34400D24400E14400DC31
:103148004000E04400E24400E44400E34400DF447B
:1031580000DB4400DA4400DC4400DE4400DD4400C7
:10316800A04400634400624400644400664400656F
:1031780044006144005D44005C44005E44006044D7
:10318800005F44006E44006D44006F4400714400C9
:103198007044006C44006844006744006944006B54
:1031A80044006A44005B44004C44004B44004D44D6
:1031B800004F44004E44004A440046440045440041
:1031C80047440049440048440057440056440058C6
:1031D80044005A44005944005544005144005044A6
:1031E8000052440054440053440072440091440087
:1031F8009044009244009444009344008F44008B10
:1032080044008A44008C44008E44008D44009C4451
:10321800009B44009D44009F44009E44009A440043
:1032280096440095440097440099440098440089C6
:1032380044007A44007944007B44007D44007C4487
:1032480000784400744400734400754400774400D7
:1032580076440085440084440086440088440087FE
:1032680044008344007F44007E440080440082443C
:1032780000814400BB4200BA4200BC4200BE42008A
:10328800BD4200B64200B54200B74200B94200B89C
:103298004200C54200C44200C64200C84200C742BC
:1032A80000C04200BF4200C14200C34200C2420007
:1032B800B44200A64200A54200A74200A94200A8C5
:1032C8004200A14200A04200A24200A44200A34240
:1032D80000B04200AF4200B14200B34200B2420027
:1032E800AB4200AA4200AC4200AE4200D33B00C74A
:1032F8003C00D33C00A43B00603C00AD3E00FF3FD7
:1033080000044100183E00A43E00773E00943B00B4
:10331800AD4200C942007F3D00E54200E44200E6BC
:1033280042001B3D00E84200E74200E04200F03D59
:1033380000054000703F00DF42001B3C00293C00B4
:10334800533C00A13C00E14200E34200E24200EFAE
:103358004200EE4200F04200F24200F14200183F03
:1033680000EA4200E94200EB4200ED4200EC420074
:10337800DE4200D04200CF4200D53F00943C00D14D
:1033880042000D3C00F13B00FF3B00D34200D2421B
:10339800002C3E00CB4200CA4200CC4200CE420084
:1033A800CD4200DA4200D94200DB4200DD4200DCB7
:1033B80042006D3C00D54200D44200D64200D842BB
:1033C80000D7420094420093420096420095420082
:1033D8009242008E42009042009D42009C42009E14
:1033E80042009B42009842008842008D42008C4275
:1033F80000874200834200824200864200854200E4
:103408009A42009742009F420091420099420084EC
:1034180042008142008942008B42008A42008F426A
:1034280000F342005A43005943005C43005B4300E9
:103438005843005543005443005743005643005D2A
:1034480043006443006343006643006543006243EE
:10345800005F43005E430061430060430047430050
:10346800464300844100554000F33F00FA40006E97
:103478003E00893E00EB40000B40004943004843B2
:103488000045430042430041430044430043430096
:103498004A43005143005043005343005243004FF6
:1034A80043004C43004B43004E43004D4300224130
:1034B800002741005C4100DB3F00953D00134100BF
:1034C800303F00693F00ED3F00A54000AA400000E2
:1034D8003F00C34000F83E00AA3D00A03D00B43DB7
:1034E80000103F00804300083F00803E007F4300FB
:1034F800EB3C00F73C000F3D00D23D00BB3C008296
:1035080043008143007E43007B4300743D00363E08
:1035180000FA3D007A43007D43007C43008343006A
:103528008A43008943008C43008B4300884300850D
:1035380043008443008743008643006D43006C4387
:10354800006F43006E43006B43006843006743000D
:103558006A4300694300704300774300764300796B
:10356800430078430075430072430071430074437D
:10357800007343004043000D43000C43000F430019
:103588000E43000B43000843000743000A430009A9
:103598004300104300174300164300194300184323
:1035A8000015430012430011430014430013430065
:1035B800FA4200F94200FC4200FB4200F84200F5E2
:1035C8004200F44200F74200F64200FD4200044384
:1035D80000034300064300054300024300FF420086
:1035E800FE420001430000430033430032430035EC
:1035F80043003443003143002E43002D4300304341
:10360800002F43003643003D43003C43003F430046
:103618003E43003B43003843003743003A430039F8
:1036280043002043001F43002243002143001E4360
:10363800001B43001A43001D43001C4300234300A2
:103648001D40002643002743002443003342003B2B
:1036580042004142005942005142004F4200554247
:10366800005342004D42004742004542004B420091
:103678004942006342006142006742006542005FC0
:1036880042005D42006D4200E34100F94100F7410C
:1036980000EF4100F54100F34100F14100FB41001A
:1036A800FD4100EB4100ED4100E941000342007B90
:1036B8004200794200E54100E73F00404100223ED8
:1036C80000484100E13F00074200060000C14100F8
:1036D800BF4100C74100CD4100CB4100C34100DBE1
:1036E8004100DD4100D74100D14100B63E009C4178
:1036F800009F4100B44100BA4100A84100B7410011
:10370800AB4100AE4100B141009841007841007CD6
:103718004100623F00D83E00A53F006441003740A9
:1037280000853F008C3F00584100BF3E009F3F008E
:103738009B4000914000A24100C83E0064400082C6
:103748004000E14000CD4000533E00D74000AF406C
:1037580000B440001841001D4100F54000FF400042
:103768004140003C40002840002D400035420032D6
:103778004000AB3F008740006C41007041003C4175
:10378800003441002C41003041004C4100504100C0
:10379800804100884100384100744100BE4000B9B2
:1037A8004000E640003F3F000E4100174000F04057
:1037B800008C4100A0400011400050400023400010
:1037C8005A40008C40005C3E00203F008A3D007853
:0537D8004000734000F9
:1037DD000744000644000844000A4400DF4100E1AC
:1037ED004100E74100FF4100154200174200114220
:1037FD00001342001D42001F42001942001B4200EF
:10380D000542000142000D42000F42000942000B2B
:10381D004200BD4100C94100CF4100C54100D94121
:10382D0000D34100D541007D42007F42007542002A
:10383D007142007342006F42006942006B42007793
:10384D00420037420039420009440005440001445A
:10385D00000044000244004342003D42003F42004C
:10386D002542002142002342002942002F4200310F
:10387D0042002B42002D42005B42000444000344F1
:10388D000012440011440013440015440014440078
:10389D001044000C44000B44000D44000F44000E76
:1038AD004400FF4300F04300EF4300F14300F343B6
:1038BD0000F24300EE4300EA4300E94300EB43000E
:1038CD00ED4300EC4300FB4300BD3F00FA4300FC19
:1038DD004300FE4300FD4300F943004D3F00E83E29
:1038ED0000DF3C00283F00F543004A3E00D03E007B
:0F38FD00993F00043E007E3F00773F00274200C6
:10390C0000000000000000002A2B2800004A0000E4
:10391C00000000000000000000000000000000009B
:10392C002C9E00A0A1A2A434A6A7A5AE362D373894
:10393C00271E1F20212223242526B333B62EB7B8E9
:10394C009F8485868788898A8B8C8D8E8F909192A7
:10395C00939495969798999A9B9C9D2F3130A3ADF3
:10396C00350405060708090A0B0C0D0E0F10111271
:10397C00131415161718191A1B1C1DAFB1B0B22A47
:10398C0005010906A101854B050709E109E009E2DA
:10399C0009E309E509E409E609E72501750195083C
:1039AC00810275089501810326FF0019002AFF008A
:1039BC008100750195030508190129032501910260
:1039CC00750595019103C005010980A10185531A64
:1039DC0081002A8F001501250F750895018100C003
:1039EC00050C0901A101854319002A3C021500268A
:0939FC003C02751095018100C028
:103A0500416374696F6E3A205475726E3D53656CEF
:103A15002C2050726573732B5475726E3D4D6F6417
:103A25006966792C2050726573733D4F4B2C20507D
:103A3500726573732B486F6C643D44656C65746582
:013A45000080
:103A46004D656E753A2020205475726E3D53656C37
:103A56002C2050726573732B5475726E3D536574CA
:103A660020416464726573732C2050726573733DD4
:033A76004F4B00B3
:103A7900F44300533D00933F00E03E007A3C00656B
:103A89003E00C83D00BE3D00033D003D3D00E63D12
:0D3A990000F03E00DC3D00AE3C00873C002C
:103AA6000902290001010180320904000002030015
:103AB600000209210101000122790007058103089E
:093AC600000507050103080005D5
:103ACF0028034F006E00650020004200750074004F
:103ADF0074006F006E0020004B00650079006200DB
:083AEF006F0061007200640029
:103AF700000401000200010002030200020300406B
:0C3B07000504000005040600050006800F
:103B130053657420436F6E73756D657220446576CB
:0C3B230069636520436F6D6D616E640086
:103B2F005365742053797374656D20436F6E74728F
:0B3B3F006F6C20436F6D6D616E6400C1
:103B4A001403500061007300730069006600690085
:043B5A006500720090
:103B5E00536574204C6F63616C2046756E63746997
:033B6E006F6E0077
:103B710012011001000000085041535303000102DB
:023B8100000141
:103B83003031323334353637383941424344454690
:013B93000031
:103B940050726F6A656374204D616E61676572006F
:103BA400477261706869637320456469746F720059
:103BB40043616E63656C20616E64204578697400AE
:0F3BC400416420436F646520416374696F6E0034
:0F3BD300576F72642050726F636573736F720067
:0F3BE20050415353696669657220302E393000A7
:0E3BF100417564696F2042726F7773657200D0
:0E3BFF004D6F7669652042726F7773657200B4
:0E3C0D00496D6167652042726F7773657200C2
:0E3C1B005465726D696E616C204C6F636B00B6
:0E3C2900436F6E74726F6C2050616E656C009C
:0E3C37005361766520616E64204578697400E3
:0E3C4500536574204B65797374726F6B650064
:0D3C5300436F6D6D616E64204C696E6500FD
:0D3C600050726573656E746174696F6E005B
:0D3C6D00417564696F20506C6179657200CB
:0D3C7A00436F6E74657874204D656E7500A3
:0D3C87005761726D20526573746172740094
:0D3C940046696C652042726F77736572009F
:0D3CA1005461736B204D616E6167657200A8
:0D3CAE00436F6C6420526573746172740082
:0C3CBB005363726F6C6C20446F776E00D6
:0C3CC7005465787420456469746F7200C5
:0C3CD3005370726561647368656574006D
:0C3CDF004B502050616765446F776E0009
:0C3CEB0046756C6C2053637265656E00BA
:0C3CF7004E6F726D616C2056696577009D
:0C3D03004D656E752053656C656374009F
:0C3D0F00546F67676C652056696577008B
:0C3D1B005765622042726F77736572007A
:0B3D27005072657620547261636B00DF
:0B3D32004E65787420547261636B00D2
:0B3D3D004D656E7520526967687400C8
:0B3D480053746F702F456A65637400B0
:0B3D5300506F77657220446F776E00A0
:0B3D5E004261737320426F6F737400AA
:0B3D6900506C61792F5061757365008C
:0B3D74004E65772057696E646F770082
:0B3D7F0043616C63756C61746F72002F
:0B3D8A004C6F636B5363726F6C6C0036
:0B3D950053656C65637420416C6C008A
:0A3DA0004E657874204C696E6B00CC
:0A3DAA0050726576204C696E6B00C4
:0A3DB400426F6F6B6D61726B73005C
:0A3DBE004D656E75204578697400AC
:0A3DC8004D656E752048656C7000B3
:0A3DD2005363726F6C6C2055700093
:0A3DDC004D656E7520446F776E0090
:0A3DE6004D656E75204C6566740093
:0A3DF00054656C6570686F6E790011
:0A3DFA0054696C6520566572740070
:0A3E04004B502050616765557000B7
:0A3E0E005265646973706C617900FD
:0A3E1800566F6963656D61696C0007
:0A3E22004261636B73706163650019
:0A3E2C004D6573736167696E6700EE
:0A3E360054696C6520486F727A0031
:0A3E400043616E63656C6C656400FD
:093E4A004B5020526967687400B6
:093E53004B5020456E74657200AD
:093E5C004C6F636B43617073004D
:093E6500417070204D656E75007E
:093E6E004D6178696D697365000E
:093E770043616C656E6461720028
:093E80005A6F6F6D204F7574003C
:093E89004D696E696D69736500F5
:093E92004C6F75646E65737300DA
:093E9B00537572726F756E6400BC
:093EA400436F6E746163747300D6
:093EAD00446174616261736500F7
:093EB600436170734C6F636B00F3
:093EBF0050616765446F776E00E5
:083EC8004E756D4C6F636B0039
:083ED0004B5020486F6D6500A6
:083ED8005363724C6F636B0031
:083EE00057616B65205570006D
:083EE8004B5020446F776E007F
:083EF0004D656E752055700050
:083EF8005265667265736800F3
:083F0000466F727761726400E4
:083F08005A6F6F6D20496E0035
:083F1000486973746F727900B7
:083F18004465736B746F7000C7
:083F20004C6F636B4E756D00E0
:083F28004B50204C656674004B
:083F30005265706C61636500CD
:073F38005265706561740021
:073F3F0053656C656374001B
:073F460052616E646F6D0013
:073F4D004B5020456E64009B
:073F540053484946542B00BD
:073F5B005265636F72640000
:073F620050727453637200FA
:073F690053656172636800FB
:073F70004C6F676F666600ED
:073F77004B502044656C0073
:073F7E004B5020496E730057
:073F850050616765557000F3
:073F8C0044656C65746500DB
:063F9300536C656570002F
:063F99004B5020557000A2
:063F9F005269676874001E
:063FA50050617573650018
:063FAB00506F7765720003
:063FB100476F746F200051
:063FB70053617665640011
:063FBD00436C6561720017
:063FC30057616974200043
:063FC9005761697420003D
:063FCF00456A6563740001
:063FD500436C6F636B00FA
:063FDB00506173746500E3
:063FE100537061636500EE
:063FE700456E74657200D6
:063FED00476F20546F0035
:063FF300436C6F736500D2
:063FF900506175736500C4
:063FFF00456D61696C00D4
:064005004C6F676F6E00B6
:06400B005072696E7400A2
:06401100506173746500AC
:06401700416761696E00C3
:06401D004E6F204F700001
:054023004D75746500FD
:054028004B50203000A8
:05402D004B50202E00A5
:054032004170706C00FC
:05403700486F6D6500FB
:05403C004B502039008B
:054041004B5020380087
:05404600506C617900DF
:05404B0053746F7000CA
:0540500046696E6400EA
:054055004F70656E00D4
:05405A00566F6C2B0005
:05405F00207365630001
:054064004B50202F006D
:05406900414C542B0046
:05406E007878782000C5
:054073004B50203D0050
:054078004B50202C005C
:05407D0043544C2B0030
:054082004B50202A0054
:054087004B50203D003C
:05408C00566F6C2D00D1
:05409100446F776E0092
:054096004755492B0015
:05409B004C6566740095
:0540A000436F70790080
:0540A500486F6D65008D
:0540AA004261636B00A0
:0540AF004B502032001F
:0540B4004B5020330019
:0540B90048656C700079
:0540BE00457865630078
:0540C30053746F700052
:0540C800566F6C2B0097
:0540CD004B50202B0008
:0540D200566F6C2D008B
:0540D7004B50203100F8
:0540DC00536C6F77003A
:0540E1004B50202D00F2
:0540E6004D656E750040
:0540EB00536176650041
:0540F000556E646F0035
:0540F5004B50203600D5
:0540FA00457869740027
:0540FF004B50203700CA
:054104004E6577730019
:054109004D7574650016
:05410E0053746F700006
:0541130046696E640026
:054118004B50203400B3
:05411D004B50203500AD
:05412200556E646F0002
:05412700436F707900F8
:04412C0046313700E1
:0441300046313800DC
:0441340046313600DA
:0441380046323300D8
:04413C0046313500D3
:044140004573630060
:04414400206D730077
:04414800546162005C
:04414C0046313900BF
:0441500046323000C3
:044154005265770039
:04415800456E64004C
:04415C004375740033
:044160004D50580066
:04416400496E73002D
:04416800040309043F
:04416C0046313300A5
:0441700046313400A0
:04417400463234009B
:04417800463131009B
:04417C004631320096
:044180004632310092
:044184004E6577000D
:044188004632320089
:04418C004375740003
:0441900043682D0053
:0441940043682B0051
:04419800463130007C
:03419C00463100A9
:03419F00463200A5
:0341A20055700055
:0341A5004646008B
:0341A80046350099
:0341AB0046370094
:0341AE0046380090
:0341B1004639008C
:0341B4004633008F
:0341B70046360089
:0341BA0046340088
:0241BD005300AD
:0241BF005D00A1
:0241C1005B00A1
:0241C3002700D3
:0241C5005600A2
:0241C7005C009A
:0241C9005400A0
:0241CB003B00B7
:0241CD002300CD
:0241CF00550099
:0241D1002F00BD
:0241D300580092
:0241D50059008F
:0241D7002E00B8
:0241D90057008D
:0241DB00600082
:0241DD002C00B4
:0241DF0041009D
:0241E10042009A
:0241E300750065
:0241E5003000A8
:0241E700430093
:0241E90036009E
:0241EB0034009E
:0241ED0035009B
:0241EF00780056
:0241F10031009B
:0241F3007A0050
:0241F50079004F
:0241F70077004F
:0241F90076004E
:0241FB00320090
:0241FD0033008D
:0241FF0044007A
:024201004E006D
:02420300370082
:024205004D006A
:024207002D0088
:02420900510062
:02420B0052005F
:02420D004F0060
:02420F0050005D
:02421100470064
:02421300480061
:02421500450062
:0242170046005F
:024219004B0058
:02421B004C0055
:02421D00490056
:02421F004A0053
:024221007C001F
:024223007E001B
:024225007D001A
:024227007C0019
:024229003A0059
:02422B003C0055
:02422D003E0051
:02422F0022006B
:024231007E000D
:02423300610028
:024235005C002B
:0242370028005D
:0242390029005A
:02423B0062001F
:02423D002B0054
:02423F007B0002
:02424100630018
:024243005F001A
:024245006B000C
:024247006A000B
:024249006D0006
:02424B006C0005
:02424D00690006
:02424F00660007
:02425100650006
:02425300680001
:02425500670000
:02425700200045
:024259006400FF
:02425B003F0022
:02425D007300EC
:02425F007200EB
:024261006F00EC
:024263006E00EB
:024265007100E6
:024267007000E5
:024269005E00F5
:02426B0026002B
:02426D007400DB
:02426F00250028
:02427100230028
:02427300240025
:02427500400007
:024277002A001B
:0242790039000A
:02427B00380009
:02427D005A00E5
:02427F0021001C
:01428100003C
:01428200003B
:01428300003A
:014284000039
:014285000038
:014286000037
:014287000036
:014288000035
:014289000034
:01428A000033
:01428B000032
:01428C000031
:01428D000030
:01428E00002F
:01428F00002E
:01429000002D
:01429100002C
:01429200002B
:01429300002A
:014294000029
:014295000028
:014296000027
:014297000026
:014298000025
:014299000024
:01429A000023
:01429B000022
:01429C000021
:01429D000020
:01429E00001F
:01429F00001E
:0142A000001D
:0142A100001C
:0142A200001B
:0142A300001A
:0142A4000019
:0142A5000018
:0142A6000017
:0142A7000016
:0142A8000015
:0142A9000014
:0142AA000013
:0142AB000012
:0142AC000011
:0142AD000010
:0142AE00000F
:0142AF00000E
:0142B000000D
:0142B100000C
:0142B200000B
:0142B300000A
:0142B4000009
:0142B5000008
:0142B6000007
:0142B7000006
:0142B8000005
:0142B9000004
:0142BA000003
:0142BB000002
:0142BC000001
:0142BD000000
:0142BE0000FF
:0142BF0000FE
:0142C00000FD
:0142C10000FC
:0142C20000FB
:0142C30000FA
:0142C40000F9
:0142C50000F8
:0142C60000F7
:0142C70000F6
:0142C80000F5
:0142C90000F4
:0142CA0000F3
:0142CB0000F2
:0142CC0000F1
:0142CD0000F0
:0142CE0000EF
:0142CF0000EE
:0142D00000ED
:0142D10000EC
:0142D20000EB
:0142D30000EA
:0142D40000E9
:0142D50000E8
:0142D60000E7
:0142D70000E6
:0142D80000E5
:0142D90000E4
:0142DA0000E3
:0142DB0000E2
:0142DC0000E1
:0142DD0000E0
:0142DE0000DF
:0142DF0000DE
:0142E00000DD
:0142E10000DC
:0142E20000DB
:0142E30000DA
:0142E40000D9
:0142E50000D8
:0142E60000D7
:0142E70000D6
:0142E80000D5
:0142E90000D4
:0142EA0000D3
:0142EB0000D2
:0142EC0000D1
:0142ED0000D0
:0142EE0000CF
:0142EF0000CE
:0142F00000CD
:0142F10000CC
:0142F20000CB
:0142F30000CA
:0142F40000C9
:0142F50000C8
:0142F60000C7
:0142F70000C6
:0142F80000C5
:0142F90000C4
:0142FA0000C3
:0142FB0000C2
:0142FC0000C1
:0142FD0000C0
:0142FE0000BF
:0142FF0000BE
:0143000000BC
:0143010000BB
:0143020000BA
:0143030000B9
:0143040000B8
:0143050000B7
:0143060000B6
:0143070000B5
:0143080000B4
:0143090000B3
:01430A0000B2
:01430B0000B1
:01430C0000B0
:01430D0000AF
:01430E0000AE
:01430F0000AD
:0143100000AC
:0143110000AB
:0143120000AA
:0143130000A9
:0143140000A8
:0143150000A7
:0143160000A6
:0143170000A5
:0143180000A4
:0143190000A3
:01431A0000A2
:01431B0000A1
:01431C0000A0
:01431D00009F
:01431E00009E
:01431F00009D
:01432000009C
:01432100009B
:01432200009A
:014323000099
:014324000098
:014325000097
:014326000096
:014327000095
:014328000094
:014329000093
:01432A000092
:01432B000091
:01432C000090
:01432D00008F
:01432E00008E
:01432F00008D
:01433000008C
:01433100008B
:01433200008A
:014333000089
:014334000088
:014335000087
:014336000086
:014337000085
:014338000084
:014339000083
:01433A000082
:01433B000081
:01433C000080
:01433D00007F
:01433E00007E
:01433F00007D
:01434000007C
:01434100007B
:01434200007A
:014343000079
:014344000078
:014345000077
:014346000076
:014347000075
:014348000074
:014349000073
:01434A000072
:01434B000071
:01434C000070
:01434D00006F
:01434E00006E
:01434F00006D
:01435000006C
:01435100006B
:01435200006A
:014353000069
:014354000068
:014355000067
:014356000066
:014357000065
:014358000064
:014359000063
:01435A000062
:01435B000061
:01435C000060
:01435D00005F
:01435E00005E
:01435F00005D
:01436000005C
:01436100005B
:01436200005A
:014363000059
:014364000058
:014365000057
:014366000056
:014367000055
:014368000054
:014369000053
:01436A000052
:01436B000051
:01436C000050
:01436D00004F
:01436E00004E
:01436F00004D
:01437000004C
:01437100004B
:01437200004A
:014373000049
:014374000048
:014375000047
:014376000046
:014377000045
:014378000044
:014379000043
:01437A000042
:01437B000041
:01437C000040
:01437D00003F
:01437E00003E
:01437F00003D
:01438000003C
:01438100003B
:01438200003A
:014383000039
:014384000038
:014385000037
:014386000036
:014387000035
:014388000034
:014389000033
:01438A000032
:01438B000031
:01438C000030
:01438D00002F
:01438E00002E
:01438F00002D
:01439000002C
:01439100002B
:01439200002A
:014393000029
:014394000028
:014395000027
:014396000026
:014397000025
:014398000024
:014399000023
:01439A000022
:01439B000021
:01439C000020
:01439D00001F
:01439E00001E
:01439F00001D
:0143A000001C
:0143A100001B
:0143A200001A
:0143A3000019
:0143A4000018
:0143A5000017
:0143A6000016
:0143A7000015
:0143A8000014
:0143A9000013
:0143AA000012
:0143AB000011
:0143AC000010
:0143AD00000F
:0143AE00000E
:0143AF00000D
:0143B000000C
:0143B100000B
:0143B200000A
:0143B3000009
:0143B4000008
:0143B5000007
:0143B6000006
:0143B7000005
:0143B8000004
:0143B9000003
:0143BA000002
:0143BB000001
:0143BC000000
:0143BD0000FF
:0143BE0000FE
:0143BF0000FD
:0143C00000FC
:0143C10000FB
:0143C20000FA
:0143C30000F9
:0143C40000F8
:0143C50000F7
:0143C60000F6
:0143C70000F5
:0143C80000F4
:0143C90000F3
:0143CA0000F2
:0143CB0000F1
:0143CC0000F0
:0143CD0000EF
:0143CE0000EE
:0143CF0000ED
:0143D00000EC
:0143D10000EB
:0143D20000EA
:0143D30000E9
:0143D40000E8
:0143D50000E7
:0143D60000E6
:0143D70000E5
:0143D80000E4
:0143D90000E3
:0143DA0000E2
:0143DB0000E1
:0143DC0000E0
:0143DD0000DF
:0143DE0000DE
:0143DF0000DD
:0143E00000DC
:0143E10000DB
:0143E20000DA
:0143E30000D9
:0143E40000D8
:0143E50000D7
:0143E60000D6
:0143E70000D5
:0143E80000D4
:0143E90000D3
:0143EA0000D2
:0143EB0000D1
:0143EC0000D0
:0143ED0000CF
:0143EE0000CE
:0143EF0000CD
:0143F00000CC
:0143F10000CB
:0143F20000CA
:0143F30000C9
:0143F40000C8
:0143F50000C7
:0143F60000C6
:0143F70000C5
:0143F80000C4
:0143F90000C3
:0143FA0000C2
:0143FB0000C1
:0143FC0000C0
:0143FD0000BF
:0143FE0000BE
:0143FF0000BD
:0144000000BB
:0144010000BA
:0144020000B9
:0144030000B8
:0144040000B7
:0144050000B6
:0144060000B5
:0144070000B4
:0144080000B3
:0144090000B2
:01440A0000B1
:01440B0000B0
:01440C0000AF
:01440D0000AE
:01440E0000AD
:01440F0000AC
:0144100000AB
:0144110000AA
:0144120000A9
:0144130000A8
:0144140000A7
:0144150000A6
:0144160000A5
:0144170000A4
:0144180000A3
:0144190000A2
:01441A0000A1
:01441B0000A0
:01441C00009F
:01441D00009E
:01441E00009D
:01441F00009C
:01442000009B
:01442100009A
:014422000099
:014423000098
:014424000097
:014425000096
:014426000095
:014427000094
:014428000093
:014429000092
:01442A000091
:01442B000090
:01442C00008F
:01442D00008E
:01442E00008D
:01442F00008C
:01443000008B
:01443100008A
:014432000089
:014433000088
:014434000087
:014435000086
:014436000085
:014437000084
:014438000083
:014439000082
:01443A000081
:01443B000080
:01443C00007F
:01443D00007E
:01443E00007D
:01443F00007C
:01444000007B
:01444100007A
:014442000079
:014443000078
:014444000077
:014445000076
:014446000075
:014447000074
:014448000073
:014449000072
:01444A000071
:01444B000070
:01444C00006F
:01444D00006E
:01444E00006D
:01444F00006C
:01445000006B
:01445100006A
:014452000069
:014453000068
:014454000067
:014455000066
:014456000065
:014457000064
:014458000063
:014459000062
:01445A000061
:01445B000060
:01445C00005F
:01445D00005E
:01445E00005D
:01445F00005C
:01446000005B
:01446100005A
:014462000059
:014463000058
:014464000057
:014465000056
:014466000055
:014467000054
:014468000053
:014469000052
:01446A000051
:01446B000050
:01446C00004F
:01446D00004E
:01446E00004D
:01446F00004C
:01447000004B
:01447100004A
:014472000049
:014473000048
:014474000047
:014475000046
:014476000045
:014477000044
:014478000043
:014479000042
:01447A000041
:01447B000040
:01447C00003F
:01447D00003E
:01447E00003D
:01447F00003C
:01448000003B
:01448100003A
:014482000039
:014483000038
:014484000037
:014485000036
:014486000035
:014487000034
:014488000033
:014489000032
:01448A000031
:01448B000030
:01448C00002F
:01448D00002E
:01448E00002D
:01448F00002C
:01449000002B
:01449100002A
:014492000029
:014493000028
:014494000027
:014495000026
:014496000025
:014497000024
:014498000023
:014499000022
:01449A000021
:01449B000020
:01449C00001F
:01449D00001E
:01449E00001D
:01449F00001C
:0144A000001B
:0144A100001A
:0144A2000019
:0144A3000018
:0144A4000017
:0144A5000016
:0144A6000015
:0144A7000014
:0144A8000013
:0144A9000012
:0144AA000011
:0144AB000010
:0144AC00000F
:0144AD00000E
:0144AE00000D
:0144AF00000C
:0144B000000B
:0144B100000A
:0144B2000009
:0144B3000008
:0144B4000007
:0144B5000006
:0144B6000005
:0144B7000004
:0144B8000003
:0144B9000002
:0144BA000001
:0144BB000000
:0144BC0000FF
:0144BD0000FE
:0144BE0000FD
:0144BF0000FC
:0144C00000FB
:0144C10000FA
:0144C20000F9
:0144C30000F8
:0144C40000F7
:0144C50000F6
:0144C60000F5
:0144C70000F4
:0144C80000F3
:0144C90000F2
:0144CA0000F1
:0144CB0000F0
:0144CC0000EF
:0144CD0000EE
:0144CE0000ED
:0144CF0000EC
:0144D00000EB
:0144D10000EA
:0144D20000E9
:0144D30000E8
:0144D40000E7
:0144D50000E6
:0144D60000E5
:0144D70000E4
:0144D80000E3
:0144D90000E2
:0144DA0000E1
:0144DB0000E0
:0144DC0000DF
:0144DD0000DE
:0144DE0000DD
:0144DF0000DC
:0144E00000DB
:0144E10000DA
:0144E20000D9
:0144E30000D8
:0144E40000D7
:0144E50000D6
:0144E60000D5
:0144E70000D4
:0144E80000D3
:0144E90000D2
:0144EA0000D1
:0144EB0000D0
:0144EC0000CF
:0144ED0000CE
:0144EE0000CD
:0144EF0000CC
:0144F00000CB
:0144F10000CA
:0144F20000C9
:0144F30000C8
:0144F40000C7
:0144F50000C6
:0144F60000C5
:0144F70000C4
:0144F80000C3
:0144F90000C2
:0144FA0000C1
:0144FB0000C0
:020000040030CA
:0E00000023285F3CFF5081FF0FC00FE00F4030
:00000001FF
