:04000000A7EF18F05E
:1000080000C01EF001C01DF002C01CF003C01BF0B0
:1000180004C01AF005C019F008C018F009C017F09C
:100028000AC016F00BC015F0E1CF27F0E2CF28F098
:10003800E9CF25F0EACF26F0F3CF23F0F4CF24F070
:10004800F5CF22F0F8CF1FF0F7CF20F0F6CF21F050
:1000580083EC16F0F2A03CD081BC02D0D88001D04D
:10006800D8900101CFB103D002E2CF9101D0CF8166
:10007800CFB102D0899001D089803F0E2A14016E39
:1000880001C003F00336039003360390026A81B877
:10009800022A02C001F001360190006A81BA002AE2
:1000A8000150001203500012250E0024F66E3E0E79
:1000B800F76E000EF722000EF86E000EF822090007
:1000C800F5CF2AF0C00E2A14006E00502D12F290BF
:1000D800A1A206D00101C105006E00C0C1F1A19224
:1000E80022C0F5FF1FC0F8FF20C0F7FF21C0F6FFB0
:1000F80023C0F3FF24C0F4FF1EC000F01DC001F0B0
:100108001CC002F01BC003F01AC004F019C005F0AF
:1001180018C008F017C009F016C00AF015C00BF097
:1001280025C0E9FF26C0EAFF27C0E1FF28C0E2FF9B
:020138001100B4
:10013A000B6A0A6A096A00500402F4CF09F0F3CF85
:10014A0008F001500502F4CF0BF0F3CF0AF000508B
:10015A000502F3500926F4500A22E86A0B220150DC
:10016A000402F3500926F4500A22E86A0B2208C056
:10017A0000F009C001F00AC002F00BC003F012003F
:10018A001E0E6B6E100E0101DE6F040EDF6FDEC1F4
:10019A00E1FFDFC1E2FFE69EDEC1E1FFDFC1E2FF70
:1001AA00E69C040EDE25E16E000EDF21E26EE68C8F
:1001BA00180ED46F040ED56FD4C1E1FFD5C1E2FF8A
:1001CA00E69ED4C1E1FFD5C1E2FFE69C040ED42528
:1001DA00E16E000ED521E26EE68C020EDE25E16E9E
:1001EA00000EDF21E26EDAC1E6FFDBC1E6FF010E97
:1001FA00DE25E16E000EDF21E26E400EE66EDEC104
:10020A00E9FFDFC1EAFFEECF00F0DEC1E1FFDFC1A7
:10021A00E2FF400E0014E66EDEC1E9FFDFC1EAFF2D
:10022A00EECF00F0DEC1E1FFDFC1E2FF880E001071
:10023A00E66EDEC1E6F1DFC1E7F1040EDE19006EFB
:06024A0000C0DEF112000D
:1002500020C401F01F0E01160150010A01E094D0E4
:1002600004012451000A01E08FD02151060A42E125
:1002700037D00101D151010A17E1B80E006E3D0ED1
:10028000016E000E026E120E0026000E01220222E6
:1002900000C0BBF101C0BCF102C0BDF1090EBF6FCF
:1002A000000EC06FC00EBE6F25D00101D151010AF2
:1002B00012E18C0E006E3C0E016E000E026E00C04C
:1002C000BBF101C0BCF102C0BDF1790EBF6F000EE1
:1002D000C06FC00EBE6F0ED00101800EBE6F0AD07F
:1002E00004012351210AC5E02351220ADEE02351F3
:1002F000230AF2E020C401F0600E0116050E006E24
:10030000005004E00132019EFF0FFBD70150010AAB
:1003100001E03AD026D038D037D0D00E0101BB6FE3
:10032000010EBC6F010EBF6F000EC06FC10EBE6F1D
:100330002BD00101800EBE6F23C4D0F125D0010166
:100340002E0EBB6F000EBC6F010EBF6F000EC06F94
:10035000810EBE6F19D00101800EBE6F22C42EF037
:1003600013D004012151010AD6E02151090AD4E039
:100370002151020AD2E021510A0ADBE02151030A8D
:0A038000DEE021510B0AE7E0120055
:10038A000101BE8F6B6AE86B22C4D1F1D151000A18
:10039A0003E1100EED6F03D0200EED6FF1DE1200B7
:1003AA000401286B296B4AD00101BE8F0401288100
:1003BA000101E551010A02E10401288354D0010137
:1003CA00BE8F51D00101BE8F040124BF16D024C4B0
:1003DA0003F00F0E031603C000F0000E016E003684
:1003EA0000900136DC0E0024E96E010E0120EA6E4F
:1003FA00EECF04F0EECF05F015D024C403F00F0EB3
:10040A00031603C000F0000E016E0036009001369C
:10041A00D20E0024E96E010E0120EA6EEECF04F03E
:10042A00EECF05F004C0E9FF05C0EAFFEECF01F008
:10043A0001A403D00401010E286F15D020C401F0D5
:10044A001F0E01160150000AAFE020C401F01F0E72
:10045A0001160150010AB3E020C401F01F0E011673
:10046A000150020AAFE00101BEAF07D0280EBB6FF0
:0C047A00040EBC6FBE81020EBF6F1200AA
:1004860004012051800AD8A478D0C00E0101BE6FA5
:1004960069D00101BF0E006E3E0E016E000E026EA7
:1004A60000C0BBF101C0BCF102C0BDF1120EBF6FAE
:1004B600000EC06F62D00101030E006E000E016EC9
:1004C60022C404F0000E056E35DECB0E0024E96E64
:1004D600010E0120EA6EEECFBBF1EECFBCF1EECFFE
:1004E600BDF1020EBB25F66E000EBC21F76E000EA6
:1004F600BD21F86E0900F5CF00F00900F5CF01F037
:1005060000C0BFF101C0C0F138D004012251010181
:10051600D95D23E3030E006E000E016E22C404F0C3
:10052600000E056E07DEC20E0024E96E010E0120E4
:10053600EA6EEECFBBF1EECFBCF1EECFBDF1BBC1A3
:10054600F6FFBCC1F7FFBDC1F8FF0900F5CF00F00B
:1005560000C0BFF1000EC06F01D0BE6B0ED001010E
:10056600BE6B0BD004012351010A93E02351020A0A
:0C057600A2E02351030AC9E0F2D71200F2
:10058200000E0101C05D02E1080EBF5D10E2BFC1B5
:1005920003F0C0C104F0CE51000A03E1010ECE6F98
:1005A20005D0CE51010A02E1020ECE6F04D0080E30
:1005B200036E000E046ED2C1E1FFD3C1E2FFE692E8
:1005C200D2C1E1FFD3C1E2FFE690D2C1E9FFD3C1BC
:1005D200EAFFEECF00F0D2C1E1FFD3C1E2FF045047
:1005E2000010E66E010ED225E16E000ED321E26EFE
:1005F20003C0E6FF0350BF5D006E0450C059016E98
:1006020000C0BFF101C0C0F1280ED66F040ED76F33
:10061200BEB12FD0035004102BE0BBC1F6FFBCC10A
:10062200F7FFBDC1F8FF0900F5CF00F0D6C1E1FF29
:10063200D7C1E2FF00C0E6FFD64BD72B010EBB2588
:10064200006E000EBC21016E000EBD21026E00C0C4
:10065200BBF101C0BCF102C0BDF1010E035C006E32
:10066200000E0458016E00C003F001C004F0D2D79E
:1006720024D00350041021E0BBC1E9FFBCC1EAFF52
:10068200D6C1E1FFD7C1E2FFEECFE6FFD64BD72BB3
:10069200010EBB25006E000EBC21016E00C0BBF135
:1006A20001C0BCF1010E035C006E000E0458016E25
:0C06B20000C003F001C004F0DCD712000F
:1006BE0004012251010A13E120C401F01F0E01169C
:1006CE000150000A0CE10101BE8F04012151030A01
:1006DE0004E1010E0101E56F02D00101E56B040199
:1006EE002251000AD8A48DD020C401F01F0E01168D
:1006FE000150020AD8A485D024C401F00F0E0116B1
:10070E000150000AD8B47DD00101BE8F040124BF70
:10071E0016D024C403F00F0E031603C000F0000E13
:10072E00016E003600900136DC0E0024E96E010EDB
:10073E000120EA6EEECF04F0EECF05F015D024C402
:10074E0003F00F0E031603C000F0000E016E00360C
:10075E0000900136D20E0024E96E010E0120EA6EE1
:10076E00EECF04F0EECF05F02151030A07E104C0ED
:10077E00E1FF05C0E2FF840EE66E43D024C400F014
:10078E000F0E00166A0E026E0F0E036E005002263A
:10079E00D8B0032A02C0E9FF03C0EAFFFE0EEE1432
:1007AE00006EEECF01F0FF0E011602C0E1FF03C096
:1007BE00E2FF00C0E6FF01C0E6FF24AF11D004C087
:1007CE00E1FF05C0E2FFE66A040E0418006E00C0E9
:1007DE0004F004C0E1FF05C0E2FF400EE66E11D04A
:1007EE0004C0E1FF05C0E2FF880EE66E040E041899
:1007FE00006E00C004F004C0E1FF05C0E2FFC80EA9
:04080E00E66E120080
:0A08120002013B5301E01BDD120060
:10081C0060980101BEBF49D032AE28D0020ED86F0D
:10082C00010ED225E16E000ED321E26EE66AD2C132
:10083C00E1FFD3C1E2FFC80EE66E010EF125E16EB9
:10084C00000EF221E26E080EE66E020EF125E16E4C
:10085C00000EF221E26E280EE66E040EE66EF1C179
:10086C00E1FFF2C1E2FFC80EE66E1ED0010EF125CB
:10087C00E16E000EF221E26E080EE66E020EF1251C
:10088C00E16E000EF221E26E200EE66E040EE66EB4
:10089C00F1C1E1FFF2C1E2FF8C0EE66ED2C1E1FFC5
:1008AC00D3C1E2FF840EE66E82D032BE80D004014A
:1008BC0020AF55D00101C0510401275D04E10101B5
:1008CC00BF510401265D04E226C4BFF127C4C0F168
:1008DC0052DE010ED86F010EF125E16E000EF221F1
:1008EC00E26E080EE66E020EF125E16E000EF221AC
:1008FC00E26E200EE66E040EE66EF1C1E1FFF2C16F
:10090C00E2FF800EE66EF06B010EEE25E16E000E3E
:10091C00EF21E26E080EE66E020EEE25E16E000E81
:10092C00EF21E26E200EE66E040EE66EEEC1E1FFE4
:10093C00EFC1E2FF840EE66E010EF06F020ED225BF
:10094C00E16E000ED321E26E280EE66E040EE66E0A
:10095C00D2C1E1FFD3C1E2FFC80EE66E28D001017F
:10096C00020ED86F010ED225E16E000ED321E26E7D
:10097C00E66AD2C1E1FFD3C1E2FFC80EE66E010EFA
:10098C00F125E16E000EF221E26E080EE66E020E0B
:10099C00F125E16E000EF221E26E280EE66E040ED9
:1009AC00E66EF1C1E1FFF2C1E2FFC80EE66E120085
:1009BC000101D86BD2C1E1FFD3C1E2FFE66A040E9C
:1009CC00D219E16ED3C1E2FF000EE21AE66A32BE22
:0409DC00329E120035
:1009E000010E0101EE25E96E000EEF21EA6EEECF59
:1009F00000F000C002F0000E345C02E10250335CF3
:100A000003E233C002F00AD00250335C006E000EE5
:100A10003458016E00C033F001C034F0036A025054
:100A2000035C1CE2280EE96E040EEA6E0350E92610
:100A3000D8B0EA2AEECF00F030C0E1FF31C0E2FFCB
:100A400000C0E6FF010E3024006E000E3120016E62
:100A500000C030F001C031F0032AE1D7000E006E73
:100A60003450005C02E13350000828E2010EF12509
:100A7000E16E000EF221E26E080EE66E020EF12526
:100A8000E16E000EF221E26E280EE66E040EE66EB6
:100A9000EEC1E9FFEFC1EAFFEECF00F000BC07D0E6
:100AA000F1C1E1FFF2C1E2FFC80EE66E06D0F1C16E
:100AB000E1FFF2C1E2FF880EE66E19D0010EF125CA
:100AC000E16E000EF221E26E080EE66E020EF125D6
:100AD000E16E000EF221E26E200EE66E040EE66E6E
:100AE000F1C1E1FFF2C1E2FF840EE66E329E120018
:100AF000B80E0101CB6F3D0ECC6F000ECD6FDD0E39
:100B0000C26F440EC36F000EC46F710EC56F3E0EF0
:100B1000C66F000EC76FE10EC86F3D0EC96F000EA5
:040B2000CA6F120086
:0E0B2400160E626E9F0E666E3B0E646E120021
:100B320020C401F0600E0116050E006E005004E0A4
:100B42000132019EFF0FFBD70150000A01E05ED087
:100B52003AD00101BE8F080EED6F58D093DC56D00B
:100B620013DC54D00101D10EBB6F010EBC6FBE81EC
:100B7200010EBF6FBE8F4AD017DC48D09FDD46D032
:100B8200E80E006E010E016E040124510026D8B059
:100B9200012A00C0BBF101C0BCF10101BE81010EFE
:100BA200BF6FBE8F33D00101BE8FE80EE16E010E22
:100BB200E26E04012451E126D8B0E22A22C4E6FF03
:100BC20025D024D023D004012151050AC2E02151AD
:100BD200060AC4E02151090AC3E02151080AC2E011
:100BE2002151000AC9E02151010AC8E02151030A3A
:100BF200C5E021510A0AC4E021510B0AD4E0215177
:0E0C0200070ADFE021510C0ADDE0DCD712000A
:100C10006AA019D0EEC1E9FFEFC1EAFFEECF01F003
:100C20000150800A0FE1D2C1E9FFD3C1EAFFEECF44
:100C300001F00150840A06E1EEC1E1FFEFC1E2FFDD
:0C0C40008C0EE66E6A90DF0E6516120046
:100C4C00D2C1E9FFD3C1EAFFEECF00F000AE05D070
:100C5C00D2C1E1FFD3C1E2FFE66A0101CE6BD86BD2
:0E0C6C00BF6BC06BBE6B5FDFCEDDD2DD120052
:100C7A006092649465A403D0FB0E6516FBD712003C
:100C8A00040E0101D219006E00C0D2F1ED51080A1A
:100C9A000AE122C463FF6350000803E2100EED6FFD
:100CAA0002D0040EED6FD851010A3AE1020ED225A4
:100CBA00E16E000ED321E26E280EE66E040EE66E99
:100CCA005BDCCE51020A07E1D2C1E1FFD3C1E2FFE8
:100CDA00840EE66E24D0040ED219006E00C0D2F142
:100CEA00D2C1E9FFD3C1EAFFEECF00F000BC0CD0BD
:100CFA00040ED219006E00C0D2F1D2C1E1FFD3C1F5
:100D0A00E2FFC80EE66E0BD0040ED219006E00C0C8
:100D1A00D2F1D2C1E1FFD3C1E2FF880EE66E01D063
:040D2A0048DE12008D
:040D2E00A494120077
:0A0D32006484EF0E65166082120063
:100D3C000101D851020A02E14DDE1ED039DEF0511C
:100D4C00000A19E1010EF125E16E000EF221E26EAE
:100D5C00080EE66E020EF125E16E000EF221E26E37
:100D6C00200EE66E040EE66EF1C1E1FFF2C1E2FF69
:0A0D7C008C0EE66E01D0F06B120041
:100D8600B4DEE66BE76B0201396B3A6B676A656A3C
:100D9600C6DE608C636A6B6A609C0101EB6BEC6B70
:100DA600000EEC5D02E1080EEB5D17E2EBC100F010
:100DB600ECC101F000360090013600360090013695
:100DC600000E0024E16E040E0120E26EE66AE66A79
:100DD600E66AE66AEB4BEC2BE3D7160E6A6E65A65F
:100DE60003D0F70E6516FBD7BE6B326A336A346AD8
:100DF6006098080ED26F040ED36FD16BED6B1200A4
:100E0600000E02016F1902E1000E6E1902E1016A7D
:100E16000AD06EC2E9FF6FC2EAFFEECF00F0000E05
:0C0E260000BE010E016E01C000F01200C1
:100E320002016F51000A12E06EC200F0000E016E54
:100E4200003600900136D20E0024E96E010E012018
:100E5200EA6EEECF04F0EECF05F011D06EC200F0D4
:100E6200000E016E003600900136DC0E0024E96EA1
:100E7200010E0120EA6EEECF04F0EECF05F0020E75
:100E82000424E16E000E0520E26E70C2E6FF71C21C
:100E9200E6FF010E0424E16E000E0520E26E72C22E
:100EA200E6FF04C0E9FF05C0EAFFEECF00F004C090
:100EB200E1FF05C0E2FF400E0014E66E04C0E9FF48
:100EC20005C0EAFFEECF00F004C0E1FF05C0E2FF7B
:100ED200880E0010E66E6F51000A1BE06EC200F031
:100EE200000E016E003600900136D20E0024026E12
:100EF200010E0120036E02C0E9FF03C0EAFF040EE7
:100F0200EE18006E02C0E1FF03C0E2FF00C0E6FF80
:100F12001AD06EC200F0000E016E0036009001364B
:100F2200DC0E0024026E010E0120036E02C0E9FFF6
:100F320003C0EAFF040EEE18006E02C0E1FF03C018
:100F4200E2FF00C0E6FF04C000F005C001F012009D
:100F52000101ED51000A0AE1606A646AE2DD60B6ED
:100F620002D06086FCD70101010EED6FED51010A3E
:100F720008E160BA06D0656A646A64806488020E19
:100F8200ED6F65A405D064A403D0FB0E651674DE74
:100F920060A202D0CBDED8D065A018D064A016D053
:100FA200F1DE040EED6F200E0401026F040E036FDA
:100FB200080E016F000E0015006E00C000F48C0ECA
:100FC2000011006E00C000F4FE0E651665A805D083
:100FD20064A803D0ADDEEF0E651665AC04D064AC38
:100FE20002D0BF0E651665AA03D064AA01D00FDE37
:100FF20065A202D064B2676A040E0101ED5D02E2ED
:1010020095DEA2D064A69FD002016F6B040E6F5DC5
:10101200D8B099D065A693D061CFE4F1F70E6516EA
:10102200780E0101E415016E0150000AD8A486D0A1
:10103200FD0EE415016E026AFF0E0216000E021882
:1010420002E1000E01186CE17E0EE415016E01C092
:1010520003F00332039E03C000F0000E016E00365F
:1010620000900136003600900136000E0024026E18
:10107200040E0120036E02C0EEF103C0EFF102C0C4
:10108200F1F103C0F2F1040EF119006E00C0F1F1AA
:1010920002C0E9FF03C0EAFFEECF00F000C001F09A
:1010A2003C0E01160132019E0132019E01500D0AD1
:1010B20035E1020EEE25E96E000EEF21EA6EEECF6B
:1010C20001F0EECF02F00250040A02E1280E0118EC
:1010D20023E1020EEE25E16E000EEF21E26E200EFC
:1010E200E66E040EE66E02016E6B080E6E5D14E291
:1010F200200EE16E040EE26E6E51E126D8B0E22AB5
:10110200280EE96E040EEA6E6E51E926D8B0EA2A7C
:10111200EECFE6FF6E2BE9D798DD01D00EDE0DD0C3
:10112200FD0EE415016E026AFF0E0216000E021891
:1011320002E1040E011801E1A7DD00D001D003D0C5
:0A11420002016F2B63D7F2DD1200EB
:10114C00200E0101ED5D03E360B201D002D0006A14
:10115C0048D039C26EF23AC26FF24FDE005240E113
:10116C006BC26EF2010E6F6F68C270F269C271F2DF
:10117C006AC272F258DE00C039F201C03AF20101C3
:10118C00E06BE16BE26BE36B39C26EF23AC26FF269
:10119C0034DE00520FE0010E016E0150000A01E135
:1011AC00D2DE0101E051E111E211E31102E0006A2B
:1011BC0018D0EAD739C26CF23AC26DF2000E0201B5
:1011CC003A1902E1000E391909E0010E6C25E96E9D
:1011DC00000E6D21EA6EEECF00F003D0006A01D054
:0411EC00006A120083
:1011F00065C268F266C269F267C26AF2010E020154
:061200006B6FA4DF120079
:1012060039B001D021D04B0E0501086F2CC009F56D
:101216000A6B2BC00BF5080E0201656F050E666F93
:10122600040E676FE2DF005201E1F5D70501096B95
:101236000B6B080E0201656F050E666F040E676F75
:0A124600D4DF005201E1F5D71200D9
:10125000F30E056E010E066E05C003F006C004F025
:10126000054A062A62C200F063C201F064C202F0BD
:10127000010E02016227000E6323642300C0F6FF03
:1012800001C0F7FF02C0F8FF0900F5CF00F003C06E
:10129000E1FF04C0E2FF00C0E6FF03C0E9FF04C0B5
:1012A000EAFFEE5201E0D8D7F30E006E010E016E98
:0212B00012002A
:1012B200220E0C6E086A096A0A6A0B6A0C06D8B416
:1012C2001FD0D8900B320A3209320832033202326E
:1012D20001320032D8A0F2D70C06D8B409D004509B
:1012E20008260550092206500A2207500B22EAD787
:1012F200045008260550092206500A2207500B22E4
:021302001200D7
:1013040062C2E9FF63C2EAFFEE5238E02C6A62C2AD
:10131400E9FF63C2EAFF800EEE5C25E262C2D9FFF8
:1013240063C2DAFF0C0EDE24F66E3C0EF76E000E7E
:10133400F722000EF86E000EF8220900F5CF00F037
:1013440000C064F200520DE0020164AF07D02C80AB
:101354007F0E6415006E00C02BF002D064C22BF027
:1013640001D02B6A06D062C2E9FF63C2EAFFEECF66
:0E13740064F247DF0201624B632BC2D7120006
:10138200870E02015F5D20E2030E006E000E016E09
:10139200026E036E5FC204F0000E056E066E076EEB
:1013A20087DF480E0024F66E390E0120F76E000E1C
:1013B2000220F86E0900F5CF00F00900F5CF01F028
:1013C2000900F5CF02F006D0EB0E006E460E016E5C
:0613D200000E026E120085
:1013D800086A080E0C6E003408360450085ED8B04F
:0E13E80002D00826D89000360C2EF5D7120041
:1013F6005FC262F260C263F261C264F226DF00C0BD
:0A14060062F201C063F27BDF120006
:10141000650E02015F5D20E2030E006E000E016E9C
:10142000026E036E5FC204F0000E056E066E076E5C
:1014300040DFDD0E0024F66E3A0E0120F76E000E3E
:101440000220F86E0900F5CF00F00900F5CF01F099
:101450000900F5CF02F006D0E10E006E460E016ED7
:06146000000E026E1200F6
:10146600F00E02015F15026E02C000F00032009E0F
:101476000032009E0032009E0032009ED10E0024F3
:10148600F66E3E0EF76E000EF722000EF86E000E98
:10149600F8220900F5CF00F060C2E1FF61C2E2FF69
:1014A60000C0E6FF604B612B0F0E5F15006ED10E7C
:1014B6000024F66E3E0EF76E000EF722000EF86E52
:1014C600000EF8220900F5CF00F060C2E1FF61C20C
:1014D600E2FF00C0E6FF604B612B60C2E1FF61C224
:0614E600E2FFE66A1200BD
:1014EC00010E02015825E96E000E5921EA6EEECF6D
:1014FC0000F000A607D07F0E5F6F430E606F000EEA
:10150C00616F73DF010E02015825E96E000E59213F
:10151C00EA6EEECF00F000A207D0930E5F6F430E81
:10152C00606F000E616F61DF010E02015825E96EDC
:10153C00000E5921EA6EEECF00F000A407D0A70EE2
:10154C005F6F430E606F000E616F4FDF010E020183
:10155C005825E96E000E5921EA6EEECF00F000A07E
:10156C0007D0B10E5F6F420E606F000E616F3DDFF2
:02157C0012005B
:10157E0058C25FF2590E0201606F020E616F6CDF8E
:0C158E00590E626F020E636FB6DE120091
:10159A0002015B6B030E5B5D0AE25B515925E16E4A
:1015AA00000E5A21E26E200EE66E5B2BF3D75B51DA
:1015BA005925E16E000E5A21E26EE66A5B075B511D
:1015CA0059255C6F000E5A215D6F0A0E046E58C2CF
:1015DA0000F0FDDE08C000F0300E00265CC2E1FF1C
:1015EA005DC2E2FF00C0E6FF0A0E046E58C200F0B8
:1015FA00EEDE00C058F20050000A01E102D05B079B
:04160A00DED7120015
:10160E0039B001D021D04B0E0501086F58C209F533
:10161E000A6B59C20BF5080E0201656F050E666F57
:10162E00040E676FDEDD005201E1F5D70501096B8F
:10163E000B6B080E0201656F050E666F040E676F69
:0A164E00D0DD005201E1F5D71200D3
:10165800020E020158255D6F000E59215E6FB0D051
:10166800010E5825E96E000E5921EA6EEECF00F002
:1016780000A01FD058C2E9FF59C2EAFFEECF5FF2BF
:10168800C3DE00C05AF201C05BF202C05CF200C0C7
:10169800F6FF01C0F7FF02C0F8FF0900F5CF00F020
:1016A800005207E05AC200F05BC201F05CC202F0CF
:1016B800A8D058C2E9FF59C2EAFFEECF5FF25DDE5B
:1016C800A0D058C2E9FF59C2EAFFEECF01F00F0ED1
:1016D800015C24E258C2E9FF59C2EAFFEECF00F0EC
:1016E800000E016E026E036E030E046E000E056E90
:1016F800066E076EDADD8B0E0024F66E3D0E0120B5
:10170800F76E000E0220F86E0900F5CF00F0090010
:10171800F5CF01F00900F5CF02F073D0DC0E006EB2
:10172800460E016E000E026E6CD058C2E9FF59C217
:10173800EAFFEECF00F0EECF01F0FF0E0014026ECC
:1017480001500F0B036E020E035C02E1A00E025C57
:1017580029E258C2E9FF59C2EAFFEECF00F0EECF06
:1017680001F0FF0E00160F0E0116000E026E036E3A
:10177800030E046E000E056E066E076E96DD680E8B
:101788000024F66E310E0120F76E000E0220F86E6E
:101798000900F5CF00F00900F5CF01F00900F5CFF9
:1017A80002F02FD0E20E006E460E016E000E026EA1
:1017B80028D0E30E006E460E016E000E026E21D098
:1017C8005DC2E9FF5EC2EAFF0F0EEE14016E015022
:1017D800000AD8B445D75DC2E9FF5EC2EAFF0F0E22
:1017E800EE14016E0150010AD8B46BD75DC2E9FF4F
:1017F8005EC2EAFF0F0EEE14016E0150020A95E078
:04180800D8D712001B
:10180C004BC258F2B6DE0201586B2C0E596FF9DE42
:10181C00020E02014C25E96E000E4D21EA6E0F0EF0
:10182C00EE14586F5837589158375891583758917B
:10183C0058375891010E4C25E96E000E4D21EA6E79
:10184C00EECF00F00F0E00160050581392DE4CC273
:10185C00E9FF4DC2EAFFEECF58F28BDE0201586B66
:10186C002C0E596FCEDE020E02014C25566F000E67
:10187C004D21576FE6D04CC258F24DC259F230DEB2
:10188C004CC258F24DC259F2E1DE00C05FF201C009
:10189C0060F202C061F2A9DDF5D0010E02014C2507
:1018AC00006E000E4D21016E00C054F201C055F2C5
:1018BC0071D00201020E5F6F430E606F000E616FFC
:1018CC0094DD4CC2E9FF4DC2EAFFEECF58F2500E48
:1018DC000201596F020E5A6F5ADE500E4E6F020EF5
:1018EC004F6F4EC2E9FF4FC2EAFFEE50200A03E1F0
:1018FC004E4B4F2BF6D74EC262F24FC263F2FCDC5A
:10190C00AC0E02015F6F430E606F000E616F6DDDF8
:10191C0061D0F60E02015F6F420E606F000E616FB8
:10192C0064DD4CC2E9FF4DC2EAFFEECF58F2500E17
:10193C000201596F020E5A6F2ADE500E4E6F020EC4
:10194C004F6F4EC2E9FF4FC2EAFFEE50200A03E18F
:10195C004E4B4F2BF6D74EC262F24FC263F2CCDC29
:10196C00B10E02015F6F440E606F000E616F3DDDC2
:10197C0031D0200E02015F6F430E606F000E616F5D
:10198C0034DD4CC2E9FF4DC2EAFFEECF58F2F1DD77
:10199C0021D020D054C2E9FF55C2EAFF0F0EEE143D
:1019AC00016E01500F0AD8B484D754C2E9FF55C256
:1019BC00EAFF0F0EEE14016E01500E0AAAE054C29B
:1019CC00E9FF55C2EAFF0F0EEE14016E0150000A3A
:1019DC00D0E0DFD757D0210E02015F6F3F0E606F52
:1019EC00000E616F02DD02014B531DE04CC2E9FF9A
:1019FC004DC2EAFFEECF01F04B51015C06E34CC245
:101A0C00E1FF4DC2E2FF4B05E66EA20E5F6F430E87
:101A1C00606F000E616FE9DC4CC2E9FF4DC2EAFF5A
:101A2C00EECF58F2A6DD2ED04CC258F24DC259F270
:101A3C000DDE00C05FF201C060F202C061F2D5DCC5
:101A4C0021D056C2E9FF57C2EAFF0F0EEE14016E09
:101A5C000150000AD8B40FD756C2E9FF57C2EAFFAB
:101A6C000F0EEE14016E01500F0AD8B416D756C2E1
:101A7C00E9FF57C2EAFF0F0EEE14016E01500B0A7C
:061A8C00AAE0D2D712000F
:0A1A9200D08EA584A384F28E12000A
:101A9C0002014E6B4F6B506B020E4B25F66E000E17
:101AAC004C21F76E000E4D21F86E0900F5CF05F0B4
:101ABC00030E4B25F66E000E4C21F76E000E4D21D9
:101ACC00F86E0900F5CF00F000C003F0000E046EB4
:101ADC0003C001F0006A05500024066E000E0120C0
:101AEC00076E4BC208F04CC209F04DC20AF0010E51
:101AFC000824F66E000E0920F76E000E0A20F86E10
:101B0C000900F5CF01F00150020A1BE1060E082472
:101B1C00F66E000E0920F76E000E0A20F86E090012
:101B2C00F5CF01F001504E5D0CE2060E0824F66E66
:101B3C00000E0920F76E000E0A20F86E0900F5CF92
:101B4C004EF2010E0824F66E000E0920F76E000E00
:101B5C000A20F86E0900F5CF01F00150040A1BE1D0
:101B6C00080E0824F66E000E0920F76E000E0A20EF
:101B7C00F86E0900F5CF01F001504E5D0CE2080E35
:101B8C000824F66E000E0920F76E000E0A20F86E7F
:101B9C000900F5CF4EF208C0F6FF09C0F7FF0AC0E6
:101BAC00F8FF0900F5CF00F000504F25016E000E34
:101BBC005021026E01C04FF202C050F20750025C7D
:101BCC0002E10650015C01E30FD008C0F6FF09C02A
:101BDC00F7FF0AC0F8FF0900F5CF00F00050082607
:0E1BEC00000E09220A2283D74EC200F012001A
:101BFA00BF0E006E3E0E016E000E026E0E0E002427
:101C0A00F66E000E0120F76E000E0220F86E090033
:101C1A00F5CF03F003C004F00F0E0024F66E000E99
:101C2A000120F76E000E0220F86E0900F5CF01F0D0
:101C3A000150035C12E2BF0E006E3E0E016E000EF2
:101C4A00026E0F0E0024F66E000E0120F76E000ED3
:101C5A000220F86E0900F5CF04F0BF0E006E3E0EAA
:101C6A00016E000E026E100E0024F66E000E0120A8
:101C7A00F76E000E0220F86E0900F5CF01F0015050
:101C8A00045C12E2BF0E006E3E0E016E000E026E82
:101C9A00100E0024F66E000E0120F76E000E0220D0
:0E1CAA00F86E0900F5CF04F004C000F012003F
:101CB800020E0201586F4D0E596FA5DC010E02018C
:101CC800586F4A0E596F9FDC0201586B4C0E596FC2
:0E1CD8009ADC0201586B2A0E596F95DC12003F
:101CE600020E0201586F4A0E596F8EDC0201490737
:101CF600495305E0586B510E596F86DCF7D7120031
:101D06003FD0940E006E3F0E016E000E026E69D03B
:101D1600090E006E3E0E016E000E026E62D0410E7E
:101D2600006E3E0E016E000E026E5BD0A20E006EBD
:101D36003F0E016E000E026E54D0990E006E3E0EDE
:101D4600016E000E026E4DD09D0E006E410E016EAC
:101D5600000E026E46D0300E006E3F0E016E000E73
:101D6600026E3FD0AC0E006E3E0E016E000E026E8D
:101D760038D0180E006E460E016E000E026E31D07F
:101D86000F0E3D14016E0150000ABBE00F0E3D140C
:101D9600016E0150020ABCE00F0E3D14016E0150A7
:101DA600010ABDE00F0E3D14016E01500B0ABEE0A4
:101DB6000F0E3D14016E01500C0ABFE00F0E3D14CC
:101DC600016E01500D0AC0E00F0E3D14016E015068
:101DD6000E0AC1E00F0E3D14016E01500F0AC2E05B
:041DE600C8D7120048
:101DEA0007DF00C049F2B80E02014B6F3D0E4C6F7F
:101DFA00000E4D6F4EDE00C04AF24951005C03E20C
:0C1E0A0049C200F002D04AC200F01200F1
:101E1600020E0201586F4A0E596F07EC0BF00201D1
:101E26004907495306E0586B510E596F07EC0BF002
:101E3600F6D7010E0201586F4D0E596F07EC0BF0E5
:021E4600120088
:101E4800020E0201586F4A0E596F07EC0BF0030E91
:0E1E58000201586F4D0E596F07EC0BF012008F
:0A1E6600606A646A0101ED6B12006E
:101E700049C24BF2030E006E000E016E49C204F01F
:101E8000000E056E9DEC00F03E0E002402014C6F2A
:0A1E9000000E01204D6FBADC1200B5
:101E9A000201586B280E596F07EC0BF00201586BC0
:0A1EAA004A0E596F07EC0BF012000E
:101EB4000101ED51000A0BE1606A646A92EC05F0DD
:101EC400E6DD60B602D06086FCD7010EED6F12002D
:041ED400C8DF120051
:101ED80045C2E9FF46C2EAFFEECF00F0EECF01F0BF
:101EE800FF0E00140201476F01500F0B486F010EDF
:101EF800475F000E485B000E006E4851005C02E12F
:101F08004751000832E2030E006E000E016E026EA9
:101F1800036E47C204F048C205F0000E066E076E55
:101F280059EC09F0680E0024F66E310E0120F76EA8
:101F3800000E0220F86E0900F5CF00F00900F5CF79
:101F480001F00900F5CF02F000C0F6FF01C0F7FF6D
:101F580002C0F8FF0900F5CF01F00150000A05E1C1
:101F6800010E475F000E485BC6D7000E481902E114
:101F7800000E47194AE1A00E476F020E486F45C28E
:101F8800E9FF46C2EAFFEECF00F0EECF01F0FF0E08
:101F98000014026E01500F0B036E4851035C02E1FE
:101FA8004751025C32E2030E006E000E016E026EB3
:101FB800036E47C204F048C205F0000E066E076EB5
:101FC80059EC09F0680E0024F66E310E0120F76E08
:101FD800000E0220F86E0900F5CF00F00900F5CFD9
:101FE80001F00900F5CF02F000C0F6FF01C0F7FFCD
:101FF80002C0F8FF0900F5CF01F00150000A05E121
:10200800010E475F000E485BBAD747C200F048C2CE
:0420180001F01200C1
:10201C003A5265E0020145513A1805E13A063AC0D8
:10202C002FF044DE58D045C246F23A500201465DCC
:10203C002AE2030E006E000E016E46C204F0000E82
:10204C00056E9DEC00F03E0E0024E16E000E0120AA
:10205C00E26E4651010F006E016A000E0122030E62
:10206C00046E000E056E9DEC00F03E0E0024E96E31
:10207C00000E0120EA6E030E006EEECFE6FF0006A6
:10208C00FCE1462BD2D73A063AC02FF04551060F49
:10209C00496F23DE030E0201586F4D0E596F07EC8A
:1020AC000BF00201586B4C0E596F07EC0BF0010E44
:1020BC000201586F500E596F07EC0BF045C246F2F7
:1020CC003A500201465D07E2E2DE46C249F2CADE40
:1020DC000201462BF5D70201030E496F96DE120062
:1020EC007EDE00C0D9F1010E3B6F45C2DAF146C26B
:1020FC00DBF147C2E9F148C2EAF1C3EC06F0010E8C
:0C210C00016E0150010A01E1CFDE12005B
:1021180045C2E9FF46C2EAFFEECF00F0EECF01F07C
:10212800FF0E00140201476F01500F0B486F474B19
:10213800482B020E485D02E1A00E475D30E2030E17
:10214800006E000E016E026E036E47C204F048C2B4
:1021580005F0000E066E076E59EC09F0680E0024B3
:10216800F66E310E0120F76E000E0220F86E09009F
:10217800F5CF00F00900F5CF01F00900F5CF02F026
:1021880000C0F6FF01C0F7FF02C0F8FF0900F5CF55
:1021980001F00150000A03E1474B482BCAD7020E51
:1021A800485D02E1A00E475D46E3476B486B45C2B8
:1021B800E9FF46C2EAFFEECF00F0EECF01F0FF0ED6
:1021C8000014026E01500F0B036E0350485D02E1CC
:1021D8000250475D30E2030E006E000E016E026E83
:1021E800036E47C204F048C205F0000E066E076E83
:1021F80059EC09F0680E0024F66E310E0120F76ED6
:10220800000E0220F86E0900F5CF00F00900F5CFA6
:1022180001F00900F5CF02F000C0F6FF01C0F7FF9A
:1022280002C0F8FF0900F5CF01F00150000A03E1F0
:10223800474B482BBCD747C200F048C201F01200F8
:1022480039B001D01FD0530E0501086F2BC009F516
:10225800080E0201656F050E666F020E676FF8ECD7
:1022680008F0005201E1F4D70501096B080E0201DC
:10227800656F050E666F020E676FF8EC08F0005286
:0622880001E1F4D7120091
:10228E00DCDD0201586B4C0E596F07EC0BF012009F
:10229E00A6A202D00000FCD7A69C45C2A9FF46C24A
:1022AE00A8FFA69EA684F2CF00F0F29E550EA76E52
:1022BE00AA0EA76EA68200BE02D0F29E01D0F28EAA
:0422CE00A6941200C0
:1022D20045C229F0020E0201496F9CDD02014551FF
:1022E200000A09E1490E5F6F3D0E606F000E616FDB
:1022F200FBEC09F009D0050E02015F6F3D0E606F25
:10230200000E616FFBEC09F0030E0201496F82DDE2
:022312001200B7
:10231400030E0201496F7DDDBD0E02015F6F440EA5
:10232400606F000E616FFBEC09F00F0E3D140201AB
:102334005F6F450E606F020E616F33EC0AF0460E5C
:10234400626F020E636F82EC09F0980E02015F6FF8
:10235400430E606F000E616FFBEC09F00F0E3D142D
:102364000201496FCEDC00C05FF201C060F202C01E
:1023740061F2FBEC09F00FD09D0E02015F6F430E7A
:10238400606F000E616FFBEC09F02FC058F2BFECD8
:102394000AF01AD019D00F0E3D14016E0150000A34
:1023A400EBE00F0E3D14016E0150010AE5E00F0E43
:1023B4003D14016E0150020ADFE00F0E3D14016E60
:1023C40001500F0AD9E0E6D7010E0201586F4A0EF8
:0823D400596F07EC0BF0120039
:1023DC0039B001D023D0430E0501086F2BC009F58D
:1023EC000F0E2C140A6F080E0201656F050E666F36
:1023FC00030E676FF8EC08F0005201E1F4D7050109
:10240C00096B0A6B080E0201656F050E666F030EF1
:0E241C00676FF8EC08F0005201E1F4D71200EF
:10242A00A69C45C2A9FFA69EA680A8CF00F01200CE
:10243A00020E0201586F4D0E596F07EC0BF00201A4
:10244A00456B3A50455D07E223DD45C249F20BDD93
:08245A000201452BF6D7120028
:10246200010E02013D6F160E0101C16FB18081BCE8
:10247200A8D02D52D8B4A4D0B19002013D6B030E66
:10248200496FC8DC7DD0800E006E800E2DBE7F0E9F
:10249200005C02E12D50000810E20F0E3C14006EA9
:1024A200000E016E004A012A3C50001A0F0E00165F
:1024B2003C50001A00C03CF00FD00F0E3C14006ECE
:1024C2000006016A000E015A3C50001A0F0E001657
:1024D2003C50001A00C03CF068D0800E006E800EA6
:1024E2002DBE7F0E005C02E12D50000819E2FF0EA6
:1024F2003B14006E3C500F0B016E004A012A3B5008
:10250200001A3C50011AFF0E00160F0E01163B5026
:10251200001A3C50011A00C03BF001C03CF01AD036
:10252200FF0E3B14006E3C500F0B016E010E005E5D
:10253200000E015A3B50001A3C50011AFF0E0016C1
:102542000F0E01163B50001A3C50011A00C03BF01E
:1025520001C03CF02AD0800E006E800E2DBE7F0E90
:10256200005C02E12D50000806E23B50010F006EB4
:1025720000C03BF004D03B04006E00C03BF015D01D
:102582000F0E3D14016E0150000AD8B47CD70F0E15
:102592003D14016E01500F0AD8B475D70F0E3D14C9
:1025A200016E0150020A99E0D6D72FC04BF23B0EC2
:1025B20002014C6F000E4D6F06EC0CF02D6A00D03C
:1025C20056D7B19002013D53D8B471D00F0E3D14CD
:1025D200016E01500B0A04E13BC045F21EDD54D0EE
:1025E2003A502F5C2CE37F0E2F5C28E2020E020190
:1025F200586F4D0E596F07EC0BF04EDC030E006E58
:10260200000E016E2FC004F0000E056E9DEC00F06E
:102612003E0E0024E16E000E0120E26E030E006EFB
:102622003B0EE96E000EEA6EEECFE6FF0006FCE11D
:102632002FC049F21CDC2F2A2FC03AF025D0030EFE
:10264200006E000E016E2FC004F0000E056E9DECB0
:1026520000F03E0E0024E16E000E0120E26E030E39
:10266200006E3B0EE96E000EEA6EEECFE6FF00064C
:10267200FCE12F50060F0201496F0BEC0FF02FC047
:1026820049F238EC0FF02F2A030E0201496F0BECCE
:102692000FF02FC04BF23B0E02014C6F000E4D6F3C
:1026A20006EC0CF0030E0201496F0BEC0FF0120066
:1026B2000F0E3D14016E0150020A38E1800E006EC9
:1026C200800E02013DBF7F0E005C02E13D51000819
:1026D20016E23B0E456F000E466F1DDD3B50001AA1
:1026E2003C50011AFF0E00160F0E01163B50001A45
:1026F2003C50011A00C03BF001C03CF016D03B0E2A
:10270200456F000E466F6CEC0FF03B50001A3C50C8
:10271200011AFF0E00160F0E01163B50001A3C5014
:10272200011A00C03BF001C03CF015D00201800E3E
:10273200006E800E3DBF7F0E005C02E13D5100083D
:1027420006E23B50010F006E00C03BF004D03B0498
:08275200006E00C03BF0120014
:10275A00010E0201456F64DE00C03AF000507F08A6
:10276A00D8A03A6A3E0E3D6F000E3E6F020E3F6FD2
:10277A00406B3A50405D24E2010E3D25416F000E48
:10278A003E21426F3FC245F24BDE41C2E1FF42C2E7
:10279A00E2FF00C0E6FF3F2B3DC241F23EC242F2D9
:1027AA003FC245F23DDE41C2E1FF42C2E2FF00C044
:1027BA00E6FF3F2B030E3D27000E3E23402BD9D7C1
:1027CA007F0E405D0CE23DC2E1FF3EC2E2FFE66AD7
:1027DA00E66A402B030E3D27000E3E23F1D7120076
:1027EA003E0E02013F6F000E406F0101CF918990AA
:1027FA0002013D6B3A503D5DD8B018D10101CFB10D
:10280A0015D1020E02013F25436F000E4021446F8D
:10281A00D9D00201010E3F25E96E000E4021EA6E71
:10282A00EECF00F00F0E001600C02CF03FC2E9FFF9
:10283A0040C2EAFFEECF00F000C02BF003EC09F033
:10284A00EED03FC2E9FF40C2EAFFEECF00F000C07F
:10285A002BF0F5DCE4D03FC2E9FF40C2EAFFEECF3D
:10286A0000F0EECF01F0FF0E0014036E01500F0BC3
:10287A00046E04C000F0016A00C02CF03FC2E9FFF8
:10288A0040C2EAFFEECF00F0EECF01F0FF0E0016D5
:10289A000F0E011600C02BF09CDDC1D0010E020103
:1028AA003F25006E000E4021016E00C041F201C0BA
:1028BA0042F267D03FC2E9FF40C2EAFFEECF3EF2E2
:1028CA000101CFB115D03EC200F002013E0700520D
:1028DA000FE03D0E0B6EE10E0C6E3F0E0D6E0D2ECF
:1028EA00FED70C2EFCD70B2EFAD700000000E8D733
:1028FA0067D03FC2E9FF40C2EAFFEECF3EF20101D4
:10290A00CFB102D0058001D005903EC201F002018C
:10291A003E07006A05B0002A015000160AE0100EB0
:10292A000C6E940E0D6E0D2EFED70C2EFCD70000E9
:10293A00E6D746D03FC2E9FF40C2EAFFEECF01F038
:10294A003A50015C1CE202013FC2E9FF40C2EAFFC1
:10295A00EECF00F000C03DF2000E016E030E046ED1
:10296A00000E056E9DEC00F03E0E00243F6F000E37
:10297A000120406F030E3F5F000E405B3D0720D0F1
:10298A001FD041C2E9FF42C2EAFF0F0EEE14016EE8
:10299A0001500F0A8FE041C2E9FF42C2EAFF0F0E5F
:1029AA00EE14016E01500E0AA4E041C2E9FF42C2D0
:1029BA00EAFF0F0EEE14016E0150000ABBE0E0D7E9
:1029CA002ED02DD043C2E9FF44C2EAFF0F0EEE1407
:1029DA00016E0150000AD8B41CD743C2E9FF44C2B1
:1029EA00EAFF0F0EEE14016E0150010AD8B429D77E
:1029FA0043C2E9FF44C2EAFF0F0EEE14016E015012
:102A0A00020AD8B428D743C2E9FF44C2EAFF0F0E2C
:102A1A00EE14016E01500F0AD8B440D7D2D7020182
:102A2A003D2B030E3F27000E4023E4D60101CF9130
:042A3A00899012006D
:102A3E0002013D5339E00201800E006E800E3DBF53
:102A4E007F0E005C02E13D5100080AE20F0E3D14BC
:102A5E003E6F3F6B000E3F173E2B000E3F6F09D0AF
:102A6E000F0E3D143E6F3F6B000E3F173E07000EDC
:102A7E003F6F0F0E3E15006E3D50001A0F0E0016E2
:102A8E003D50001A00C03DF00F0E3D14496F83EC0F
:102A9E000EF000C0F6FF01C0F7FF02C0F8FF0900FC
:0A2AAE00F5CF00F00052C7E012005F
:102AB8000201456B466B4FEC11F0010E0201456FA8
:102AC8003AC046F24FEC11F03E0E02013D6F000E87
:102AD8003E6F020E3F6F406B3A50405D20E23FC2AE
:102AE80045F2010E3D25E96E000E3E21EA6EEECF5D
:102AF80046F24FEC11F002013F2B3FC245F23DC2B6
:102B0800E9FF3EC2EAFFEECF46F24FEC11F00201B8
:102B18003F2B402B030E3D27000E3E23DDD712002E
:102B280047EC11F06B0E02015F6F410E606F000EF3
:102B3800616FFBEC09F04DEC0FF04DEC0FF04DEC34
:102B48000FF04DEC0FF03F0E02015F6F3F0E606F0C
:102B5800000E616FFBEC09F06CDCF00E3D14006EAA
:102B680000C03DF0040E3B6EF00E3C14006E00C039
:102B78003CF08AEC11F00201456B69EC11F012008F
:102B88004B0E0501086F096B0A6B0B6B399039B056
:102B98005BD0000E0201456F050E466F080E476FA9
:102BA800050E486F76EC10F002013D6B39B037D056
:102BB800320E3D5D34E2040E0B6E0C0E0C6E330EBD
:102BC8000D6E0D2EFED70C2EFCD70B2EFAD700005B
:102BD80000008980040E0B6E0C0E0C6E330E0D6E09
:102BE8000D2EFED70C2EFCD70B2EFAD700000000B6
:102BF8008990080E656F050E666F040E676FF8EC16
:102C080008F00050000A000ED8A4010E016E01B0B1
:102C180002D0399001D0398002013D2BC7D739B095
:102C280012D06AEC0FF0020E0A6E310E0B6E620EB5
:102C38000C6E450E0D6E0D2EFED70C2EFCD70B2EEE
:102C4800FAD70A2EF8D7A3D7100E0B6E390E0C6ED2
:102C58000D0E0D6E0D2EFED70C2EFCD70B2EFAD7AF
:062C680000000000120054
:102C6E0081BC1BD02D5218E0B190800E006E800EEC
:102C7E002DBE7F0E005C02E12D50000805E23A5099
:102C8E002F5CD8A02F2A04D02F500008D8A02F06D2
:102C9E008AEC11F02D6A00D0E3D70F0E3D14016EB1
:102CAE000150000A08E1F00E3C14006E00C03CF02A
:102CBE00040E3B6E0AD0000E3B14006E3C50F00B1F
:102CCE00016E00C03BF001C03CF0010E0201456FE9
:102CDE0069EC11F02FC04BF23B0E02014C6F000E4F
:082CEE004D6F06EC0CF0120022
:102CF6000900F5CFE6FF0006FBE10106F9E1120047
:102D06000101ED51010A07E160BA05D0656A6480E8
:102D16006488020EED6F65A406D064A404D0FB0E91
:102D260065163DEC06F060A203D097EC06F0E0D005
:102D360065A019D064A017D0C3EC06F0040EED6FA1
:102D4600200E0401026F040E036F080E016F000EC1
:102D56000015006E00C000F48C0E0011006E00C05D
:102D660000F4FE0E651665A806D064A804D099EC9A
:102D760006F0EF0E651665AC04D064AC02D0BF0E4B
:102D8600651665AA04D064AA02D008EC06F065A20E
:102D960002D064B2676A040E0101ED5D03E297ECAE
:102DA60006F0A6D064A6A2D00201746B040E745D70
:102DB600D8B09CD065A696D061CFE4F1F70E651623
:102DC600780E0101E415016E0150000AD8A489D0DD
:102DD600FD0EE415016E026AFF0E0216000E0218C1
:102DE60002E1000E01186EE17E0EE415016E01C0CF
:102DF60003F00332039E03C000F0000E016E00369E
:102E060000900136003600900136000E0024026E56
:102E1600040E0120036E02C0EEF103C0EFF102C002
:102E2600F1F103C0F2F1040EF119006E00C0F1F1E8
:102E360002C0E9FF03C0EAFFEECF00F000C001F0D8
:102E46003C0E01160132019E0132019E01500D0A0F
:102E560036E1020EEE25E96E000EEF21EA6EEECFA8
:102E660001F0EECF02F00250040A02E1280E01182A
:102E760023E1020EEE25E16E000EEF21E26E200E3A
:102E8600E66E040EE66E0201736B080E735D14E2C5
:102E9600200EE16E040EE26E7351E126D8B0E22AEE
:102EA600280EE96E040EEA6E7351E926D8B0EA2AB6
:102EB600EECFE6FF732BE9D726EC06F002D09EECA8
:102EC60006F00ED0FD0EE415016E026AFF0E021624
:102ED600000E021802E1040E011802E145EC06F0AC
:102EE60000D001D003D00201742B60D797EC06F016
:022EF6001200C8
:102EF8000F015B6B5C6B5D6BBE0E926EFF0E936E8B
:102F0800070E946E896A8A6A8B6AF19E700ED36E78
:102F1800D3B401D0FDD7D3B601D0FDD7D2989B8EBC
:102F2800D288D2BE01D0FDD7B59EB588B58E396A94
:102F38002B6A2C6A62886284F290868C868A8688DC
:102F4800320EB16EA082F286F28CF28E0101CF9120
:102F58008990ADEC13F0F00E3D14006E00C03DF00A
:102F6800040E3B6EF00E3C14006E00C03CF02D6A5F
:062F78002F6A06DE1200C4
:102F7E0081BC22D00101CF9189904E0E0C6EEB0ECA
:102F8E000D6E0D2EFED70C2EFCD781BC15D0160E55
:102F9E00C16FB18081BC09D00101C151000A04E1A9
:102FAE003982B190BADD01D0F5D7B19081BC01D094
:0A2FBE00FDD739B201D012DC120079
:102FC8002D522AE020D02DC03DF235DD8AEC11F0DB
:102FD80021D02DC03DF259EC13F0030E496F0BECD4
:102FE8000FF02FC04BF23B0E02014C6F000E4D6FDD
:102FF80006EC0CF0010E0201586F4A0E596F07ECEF
:103008000BF008D007D02950000ADDE02950010A4A
:10301800E0E0F8D72D6A96D081BC94D00101CF9119
:1030280089904E0E0C6EEB0E0D6E0D2EFED70C2EEB
:10303800FCD781BC85D0160EC16F3994B18081BC94
:103048000CD02D520AE139B408D0B1A005D0C15135
:10305800000A02E1B1903984F2D7B19067D039A45F
:1030680014D047EC11F0850E02015F6F3E0E606FC1
:10307800000E616FFBEC09F0010E0201586F4A0E59
:10308800596F07EC0BF0399243D02FD011DD47EC84
:1030980011F0E20E02015F6F3E0E606F000E616F6D
:1030A800FBEC09F0010E0201586F4A0E596F07EC4C
:1030B8000BF039922DD0ADEC13F047EC11F05C0E0B
:1030C80002015F6F3E0E606F000E616FFBEC09F04E
:1030D800010E0201586F4A0E596F07EC0BF0399236
:1030E80017D01EDD15D0BFDD13D00F0E3D14016EB5
:1030F80001500E0ACBE00F0E3D14016E01500C0A70
:10310800DAE00F0E3D14016E01500D0AEAE0EBD72C
:1031180014D039A407D00201456B69EC11F08AEC90
:1031280011F002D031EC12F008D007D02950000A73
:1031380096E02950010AEDE0F8D781BC01D0FDD70F
:063148002D6A00D0120008
:10314E00296A2A6AD2DE39A202D037DF01D010DF17
:0A315E000101CF918990F7D7FFD748
:0200060079007F
:103168006047005F47005B470057470056470058D5
:1031780047005A4700594700964700954700974728
:10318800009947009847009447009047008F4700F0
:103198009147009347009247009A4700A24700A131
:1031A8004700A34700A54700A44700A047009C4745
:1031B800009B47009D47009F47009E47007F4700B0
:1031C8007E47008047008247008147007D4700799D
:1031D80047007847007A47007C47007B47008347D1
:1031E800008B47008A47008C47008E47008D4700B8
:1031F800894700854700844700864700884700873D
:1032080047000C47000B47000D47000F47000E47CB
:10321800000A47000647000547000747000947001E
:103228000847001047001847001747001947001BB8
:1032380047001A4700164700124700114700134776
:1032480000154700144700F54600F44600F646000E
:10325800F84600F74600F34600EF4600EE4600F059
:103268004600F24600F14600F946000147000047D3
:1032780000024700044700034700FF4600FB4600E2
:10328800FA4600FC4600FE4600FD46003A47003973
:1032980047003B47003D47003C470038470034475C
:1032A800003347003547003747003647003E4700A0
:1032B80046470045470047470049470048470044FC
:1032C80047004047003F4700414700434700424707
:1032D80000234700224700244700264700254700CF
:1032E8002147001D47001C47001E47002047001FBC
:1032F80047002747002F47002E4700304700324736
:10330800003147002D47002947002847002A470079
:103318002C47002B4700A6470021480020480022E0
:1033280048002448002348001F48001B48001A484A
:10333800001C48001E48009544009144001D4800A8
:103348002548002D48002C48002E48003048002F02
:1033580048002B48002748002648002848002A48EB
:10336800002948000A48000948000B48000D480099
:10337800C543001A4300C64200164500E94400BB95
:103388004000A54000CA4300F04200B8420005488A
:1033980000074800BF42000648000E4800164800D3
:1033A800154800174800194800184800144800102C
:1033B80048000F48001148001348001248004F48C1
:1033C800004E48009A4000F2400050480052480021
:1033D8005148004D48004948004848004A48004CB8
:1033E80048004B48005348005B48005A48005C4876
:1033F800005E48005D4800594800554800544800A0
:10340800564800584800C04300574800384800DC78
:103418004000134200E64100D94400B64300BB43D4
:10342800003748003948003B48003A480036480011
:10343800324800314800334800354800344800CF4E
:1034480043003C480044480043480045480047487A
:10345800004648004248003E48003D48003F4800BA
:10346800414800404800C54700C44700C64700C857
:103478004700C74700C34700BF4700BE4700C047D3
:1034880000C24700C14700C94700D14700D04700E4
:10349800D24700D44700D34700CF4700CB4700CAE4
:1034A8004700CC4700CE4700CD4700AE4700AD47A8
:1034B80000AF4700B14700B04700AC4700A847003D
:1034C800A74700A94700AB4700AA4700B24700BA80
:1034D8004700B94700BB4700BD4700BC4700B84795
:1034E80000B44700B34700B54700B74700B64700E8
:1034F800F34700F24700F44700F64700F54700F1AC
:103508004700ED4700EC4700EE4700F04700EF4763
:1035180000F74700FF4700FE470000480002480048
:10352800014800FD4700F94700F84700FA4700FC4A
:103538004700FB4700DC4700DB4700DD4700DF476B
:1035480000DE4700DA4700D64700D54700D74700D6
:10355800D94700D84700E04700E84700E74700E9B7
:103568004700EB4700EA4700E64700E24700E1472B
:1035780000E34700E54700E44700ED460033460016
:103588003446003546003246002F460030460031AA
:1035980046003646003B46003C46003D46003A465B
:1035A800003746003846003946002E4600234600BC
:1035B8002446002546002246001F460020460021DA
:1035C80046002646002B46002C46002D46002A467B
:1035D8000027460028460029460052460053460068
:1035E8005446005146004E46004F4600123F0048E0
:1035F8004000544000F23E00E43F00DD41006243D9
:1036080000E343001B4100CB4100D44100023F00CE
:103618005B46005C4600D1400059460056460057BC
:1036280046001840005846004D46004246000741F3
:10363800003E4300954200434600783F004E3F005D
:10364800B03F00F13F004446004146003E46003F7F
:1036580046004046004546004A46004B46008D421B
:10366800004C46004946004646004746004846008A
:103678001E4600F74500F845002C43000B4000F3B8
:1036880045005C3F006A3F00863F00004600FD455C
:1036980000114100FB4500FC4500E74500EF4500EF
:1036A800F04500F14500EB4500EC4500ED450015FF
:1036B8004600D73F00104600114600054600064662
:1036C8000007460004460001460002460003460083
:1036D8000C46000F46001946001746001A46001D02
:1036E80046001C46001B4600124600144600EE45E4
:1036F80000E64500E54500E44500EA4500E94500E7
:10370800E84500F24500FE4500F54500F44500F6A1
:103718004500F94500BF4600BE4600BB4600B84616
:1037280000B74600BA4600B94600C64600C546007E
:10373800C84600C74600C44600C14600C04600C38C
:103748004600AB4600AA4600A94600A64600A54684
:1037580000B44600B54600B24600AF4600AE46008B
:10376800B14600F14400E843005C4300DE43000A30
:103778004200F84100D44300264300DE4600DD46FF
:1037880000EA4600E94600E84600E54600E446004F
:10379800E74600E64600CF4600CE4600D14600D0B8
:1037A8004600CD4600CA4600C94600CC4600D9436B
:1037B80000B14300B94400684300844000894300D5
:1037C8004D4200CD42004443008E430084430035FF
:1037D80042007A43003D4200894100614100254191
:1037E800005542007146006D42001C4200804600B0
:1037F8002440003040006040004341007840007A97
:103808004600634600624600654600E740002F41D7
:10381800004D41005D46006046005F46006C460072
:103828006B46006E46006D46006A460067460066B5
:1038380046006946006846009946009846009B463F
:10384800009A460097460094460093460096460024
:10385800954600A24600A14600A44600A34600A043
:1038680046009D46009C46009F46009E46008746AF
:103878000086460089460088460085460082460044
:103888008146008446008346009046008F46009299
:1038980046009146008E46008B46008A46008D46BB
:1038A800008C46005E46006146006446007B460088
:1038B8007846007946007C46007F46007D46007EBB
:1038C80046007246006F4600704600734600764612
:1038D80000774600744600754600D44600D5460079
:1038E800D24600D34600D64600D94600DA4600D76D
:1038F8004600D84600CB4600EC4600DB4600DF46D3
:1039080000E04600B04600B64600B34600A74600B1
:10391800A84600AC4600AD4600C24600BC4600BD05
:1039280046000A46000946000846000B46000E46B7
:10393800000D4600134600164600FA4500FF4500F4
:103948001443005046005546005A46007045007220
:103958004500B24500B44500AE4500B04500964567
:10396800009845009245009445009A4500A04500FE
:10397800A245009C45009E45006A45003645003832
:1039880045003A45004045004245003C4500244575
:10399800002645000600002A4500524500DA450089
:1039A800E24500E04500D84500D24500D44500D6A0
:1039B8004500CE4500D04500564300AD4400574170
:1039C80000A944007443005645005445004E450084
:1039D8004845004645004C45004A4500644500629C
:1039E8004500684500664500604500EF41000A450E
:1039F800000145000445000D45001945001C45001F
:103A08001F4500104500134500B54400C14400A5FA
:103A18004400E94200454200FC42008D4400334422
:103A280000DB4200E24200A1440001420050430092
:103A38003844002E440007450085420024440029EC
:103A480044000644001A4400A741001F44001544DE
:103A5800000B44001044007E440079440083440075
:103A68008844007444006044005B44006E4500656F
:103A780044004A43006F4400E54400CD4400C94473
:103A880000D54400D14400F94400F54400FD440049
:103A9800ED4400C544009944009D44006A4400F286
:103AA8004300ED4300AA4200F743003843000144B5
:103AB80000E14400FC43006E4300474400424400D8
:103AC8004C4400564400B04100254200B04000512B
:053AD80044003D440024
:103ADD000348000448000848000C480032450034F3
:103AED004500DC4500CC4500BC4500BE4500BA454F
:103AFD0000B64500B84500C04500C84500CA4500A0
:103B0D00C64500C24500C44500DE45005A45005873
:103B1D0045005E45005C45004445002C45003045A0
:103B2D00002E45002845002245003E4500824500F7
:103B3D008445007E45008045008645008C45008EFD
:103B4D0045008845008A450068470067470069477A
:103B5D00006B47006A47006C45007445007A4500CC
:103B6D007C4500764500784500904500A84500AAA3
:103B7D004500A44500A64500AC45006647006247D8
:103B8D00006147006347006547006447006C4700CC
:103B9D0074470073470075470077470076470072FA
:103BAD0047006E47006D47006F4700714700704733
:103BBD0000514700504700524700544700534700FB
:103BCD004F47004B47004A47000E43004C47004EFD
:103BDD0047004D47005547005D47009C4200654238
:103BED00006C40005D42005C4700C2410075420020
:0F3BFD00324300754100A34200D44200504500FE
:103C0C0000000000000000002A2B2800004A0000E1
:103C1C000000000000000000000000000000000098
:103C2C002C9E00A0A1A2A434A6A7A5AE362D373891
:103C3C00271E1F20212223242526B333B62EB7B8E6
:103C4C009F8485868788898A8B8C8D8E8F909192A4
:103C5C00939495969798999A9B9C9D2F3130A3ADF0
:103C6C00350405060708090A0B0C0D0E0F1011126E
:103C7C00131415161718191A1B1C1DAFB1B0B22A44
:103C8C0005010906A101854B050709E109E009E2D7
:103C9C0009E309E509E409E609E725017501950839
:103CAC00810275089501810326FF0019002AFF0087
:103CBC00810075019503050819012903250191025D
:103CCC00750595019103C005010980A10185531A61
:103CDC0081002A8F001501250F750895018100C000
:103CEC00050C0901A101854319002A3C0215002687
:093CFC003C02751095018100C025
:103D0500416374696F6E3A205475726E3D53656CEC
:103D15006563742C2050726573733D4F4B2C205096
:103D2500726573732B5475726E3D4D6F6469667958
:103D35002C2050726573732B486F6C643D5265740B
:043D450075726E0025
:103D49004D61696E3A2020205475726E3D53656C41
:103D59006563742C2050726573733D4F4B2C205052
:103D6900726573732B5475726E3D5365742041747B
:103D79002C2050726573732B486F6C643D457869CC
:023D89007400C4
:103D8B005E4700C640000843007D4200CA3F00B9B1
:103D9B004100FD40007F41003C40008F4000394115
:0D3DAB00002D4200934100FE3F00BD3F008F
:103DB8000902290001010180320904000002030000
:103DC8000002092101010001227900070581030889
:093DD800000507050103080005C0
:103DE10028034F006E00650020004200750074003A
:103DF10074006F006E0020004B00650079006200C6
:083E01006F0061007200640013
:103E090053657420436F6E73756D657220446576D2
:0C3E190069636520436F6D6D616E64008D
:103E25000004010002000100020302000203004039
:0C3E3500050400000504060005000680DE
:103E41005365742053797374656D20436F6E74727A
:0B3E51006F6C20436F6D6D616E6400AC
:103E5C0052656C6F616465642066726F6D204545B8
:053E6C0050524F4D0013
:103E7100140350006100730073006900660069005B
:043E81006500720066
:103E85004E6F7420736176656420696E20454550D8
:043E9500524F4D003B
:103E990052656C6F61642066726F6D2045455052A2
:033EA9004F4D007A
:103EAC00536574204C6F63616C2046756E63746946
:033EBC006F6E0026
:103EBF00120110010000000850415353030001028A
:023ECF000001F0
:103ED100303132333435363738394142434445463F
:013EE10000E0
:103EE200536176656420696E20454550524F4D00FE
:103EF200477261706869637320456469746F720008
:103F020050726F6A656374204D616E6167657200FD
:0F3F1200576F72642050726F636573736F720024
:0F3F210044656C65746520616374696F6E200080
:0F3F30005361766520746F20454550524F4D0008
:0F3F3F00417420436F646520416374696F6E00A5
:0E3F4E00436F6E74726F6C2050616E656C0074
:0E3F5C00496D6167652042726F777365720070
:0E3F6A00417564696F2042726F777365720053
:0E3F78005465726D696E616C204C6F636B0056
:0E3F86004D6F7669652042726F777365720029
:0E3F9400536574204B65797374726F6B650012
:0E3FA20044656C65746520416374696F6E0040
:0D3FB000436F6D6D616E64204C696E65009D
:0D3FBD005761726D2052657374617274005B
:0D3FCA00436F6E74657874204D656E750050
:0D3FD700417564696F20506C61796572005E
:0D3FE40050726573656E746174696F6E00D4
:0D3FF1005461736B204D616E616765720055
:0D3FFE00436F6C642052657374617274002F
:0D400B0046696C652042726F777365720024
:0C4018005765622042726F77736572007A
:0C40240046756C6C2053637265656E007D
:0C4030004E6F726D616C20566965770060
:0C403C004D656E752053656C6563740063
:0C4048005465787420456469746F720040
:0C405400537072656164736865657400E8
:0C406000546F67676C6520566965770037
:0C406C004B502050616765446F776E0078
:0C4078005363726F6C6C20446F776E0015
:0B40840053656C65637420416C6C0098
:0B408F004D656E752052696768740073
:0B409A0053746F702F456A656374005B
:0B40A5005072657620547261636B005E
:0B40B0004C6F636B5363726F6C6C000D
:0B40BB004E65787420547261636B0046
:0B40C600506F77657220446F776E002A
:0B40D10043616C63756C61746F7200DA
:0B40DC004261737320426F6F73740029
:0B40E7004E65772057696E646F77000C
:0B40F200506C61792F50617573650000
:0A40FD004D656E752048656C70007B
:0A41070054656C6570686F6E7900F6
:0A4111004D6573736167696E670006
:0A411B00566F6963656D61696C0001
:0A412500426F6F6B6D61726B7300E7
:0A412F0054696C6520486F727A0035
:0A4139004D656E75204C656674003C
:0A4143005363726F6C6C205570001E
:0A414D0054696C6520566572740019
:0A4157004261636B737061636500E1
:0A4161004E657874204C696E6B0007
:0A416B005055422120302E3930005B
:0A4175004B50205061676555700043
:0A417F004D656E75204578697400E7
:0A41890050726576204C696E6B00E1
:0A4193004D656E7520446F776E00D5
:0A419D005265646973706C6179006B
:0941A7004B5020456E7465720056
:0941B0004C6F636B4361707300F6
:0941B900417070204D656E750027
:0941C2004B50205269676874003B
:0941CB00436F6E746163747300AC
:0941D40043616C656E64617200C8
:0941DD00446174616261736500C4
:0941E6004C6F75646E6573730083
:0941EF00436170734C6F636B00B7
:0941F8004D696E696D6973650083
:0942010050616765446F776E009F
:09420A004D6178696D697365006E
:09421300537572726F756E640040
:09421C005A6F6F6D204F7574009C
:084225004C6F636B4E756D00D8
:08422D004D656E75205570000F
:08423500466F727761726400AC
:08423D005265667265736800AA
:084245005363724C6F636B00C0
:08424D005265706C61636500AD
:08425500486973746F7279006F
:08425D004B50204C6566740013
:084265004B5020446F776E00FE
:08426D005A6F6F6D20496E00CD
:084275004B5020486F6D6500FD
:08427D0057616B6520557000CC
:084285004E756D4C6F636B0078
:08428D004465736B746F70004F
:074295004C6F676F666600C5
:07429C004B5020456E640049
:0742A3004B5020496E73002F
:0742AA0053656C65637400AD
:0742B10053484946542B005D
:0742B80052616E646F6D009E
:0742BF005265706561740097
:0742C6005265636F72640092
:0742CD005365617263680094
:0742D4004B502044656C0013
:0742DB00506167655570009A
:0742E20044656C6574650082
:0742E9005072745363720070
:0642F000456A65637400DD
:0642F6005761697420000D
:0642FC00506175736500BE
:0643020057616974200000
:06430800536C65657000B6
:06430E00436C65617200C2
:064314004E6F204F700007
:06431A005061757365009F
:06432000476F746F2000DE
:064326005072696E740084
:06432C00436C6F636B009F
:064332004B502055700005
:06433800416761696E009F
:06433E004C6F676F6E007A
:06434400476F20546F00DA
:06434A00506F7765720060
:0643500052696768740069
:06435600456E7465720063
:06435C00436C6F73650065
:06436200456D61696C006D
:0643680050617374650052
:06436E005061737465004C
:0643740053706163650057
:05437A0053746F700098
:05437F004755492B0029
:054384004261636B00C3
:0543890046696E6400AE
:05438E00486F6D6500A1
:0543930043544C2B0017
:05439800787878200098
:05439D00206174200006
:0543A200206174200001
:0543A700414C542B0005
:0543AC002073656300B1
:0543B100436F7079006C
:0543B600566F6C2B00A6
:0543BB00566F6C2D009F
:0543C0004D757465005D
:0543C500506C6179005D
:0543CA0053746F700048
:0543CF00536C6F770044
:0543D400536176650055
:0543D900556E646F0049
:0543DE00457869740040
:0543E3004E6577730038
:0543E8004F70656E003E
:0543ED004D656E750036
:0543F20048656C70003D
:0543F70053746F70001B
:0543FC00436F70790021
:05440100556E646F0020
:054406004B50202D00C9
:05440B004B50203300BE
:054410004B50203400B8
:054415004B50203200B5
:05441A004B50202B00B7
:05441F004B50203100AC
:054424004B50202F00A9
:054429004B50202A00A9
:05442E00446F776E00F1
:05443300486F6D6500FB
:054438004C65667400F4
:05443D004B50203D0082
:054442004D75746500DA
:0544470046696E6400EF
:05444C00566F6C2B000F
:054451004B50202C007F
:05445600566F6C2D0003
:05445B004B50202E0073
:054460004B502030006C
:054465004170706C00C5
:05446A004578656300C8
:05446F004B50203D0050
:054474004B502039004F
:054479004B502036004D
:05447E004B5020350049
:054483004B5020370042
:054488004B502038003C
:04448D00496E730001
:0444910043682D004F
:0444950043682B004D
:044499004632330074
:04449D00463234006F
:0444A100456E640000
:0444A500463132006A
:0444A90054616200F8
:0444AD0045736300F0
:0444B100206D730007
:0444B500463130005C
:0444B90043757400D3
:0444BD00202020009B
:0444C100463131004F
:0444C5004632320049
:0444C9004631350043
:0444CD004631340040
:0444D1004631370039
:0444D5004631360036
:0444D9004D505800EA
:0444DD0004030904C7
:0444E10043757400AB
:0444E5004631330029
:0444E90052657700A1
:0444ED004632310022
:0444F1004E6577009D
:0444F5004631390013
:0444F9004631380010
:0444FD004632300013
:034501004632003F
:034504004633003B
:03450700557000EC
:03450A0046310037
:03450D0046340031
:034510004638002A
:0345130046390026
:0345160046460016
:0345190046350024
:03451C0046360020
:03451F004637001C
:024522005A003D
:0245240077001E
:0245260078001B
:02452800590038
:02452A007A0015
:02452C00560037
:02452E00580033
:02453000570032
:02453200410046
:02453400420043
:02453600710012
:0245380072000F
:02453A0073000C
:02453C00760007
:02453E0021005A
:02454000740005
:02454200750002
:02454400550020
:024546005C0017
:024548005D0014
:02454A003B0034
:02454C0023004A
:02454E005B0010
:024550007C00ED
:02455200310036
:024554003D0028
:024556002D0036
:0245580052000F
:02455A0051000E
:02455C00540009
:02455E00530008
:024560002F002A
:024562006000F7
:0245640027002E
:024566002E0025
:024568002C0025
:02456A007000DF
:02456C005F00EE
:02456E005C00EF
:024570006100E8
:024572006200E5
:024574002B001A
:024576007C00C7
:024578007E00C3
:02457A007B00C4
:02457C007D00C0
:02457E00240017
:02458000250014
:024582004000F7
:02458400230012
:024586005E00D5
:02458800280009
:02458A00290006
:02458C00260007
:02458E002A0001
:024590003A00EF
:024592006900BE
:024594006A00BB
:024596006700BC
:024598006800B9
:02459A006B00B4
:02459C006E00AF
:02459E006F00AC
:0245A0006C00AD
:0245A2006D00AA
:0245A4003C00D9
:0245A6003E00D5
:0245A8002200EF
:0245AA007E0091
:0245AC003F00CE
:0245AE006500A6
:0245B0006600A3
:0245B2006300A4
:0245B4006400A1
:0245B6004800BB
:0245B8004900B8
:0245BA004700B8
:0245BC004500B8
:0245BE004600B5
:0245C0004A00AF
:0245C2004E00A9
:0245C4004F00A6
:0245C6004D00A6
:0245C8004B00A6
:0245CA004C00A3
:0245CC004400A9
:0245CE003900B2
:0245D0003000B9
:0245D2003600B1
:0245D4003700AE
:0245D6003800AB
:0245D8003500AC
:0245DA003200AD
:0245DC0043009A
:0245DE0050008B
:0245E0003400A5
:0245E2003300A4
:0145E40000D6
:0145E50000D5
:0145E60000D4
:0145E70000D3
:0145E80000D2
:0145E90000D1
:0145EA0000D0
:0145EB0000CF
:0145EC0000CE
:0145ED0000CD
:0145EE0000CC
:0145EF0000CB
:0145F00000CA
:0145F10000C9
:0145F20000C8
:0145F30000C7
:0145F40000C6
:0145F50000C5
:0145F60000C4
:0145F70000C3
:0145F80000C2
:0145F90000C1
:0145FA0000C0
:0145FB0000BF
:0145FC0000BE
:0145FD0000BD
:0145FE0000BC
:0145FF0000BB
:0146000000B9
:0146010000B8
:0146020000B7
:0146030000B6
:0146040000B5
:0146050000B4
:0146060000B3
:0146070000B2
:0146080000B1
:0146090000B0
:01460A0000AF
:01460B0000AE
:01460C0000AD
:01460D0000AC
:01460E0000AB
:01460F0000AA
:0146100000A9
:0146110000A8
:0146120000A7
:0146130000A6
:0146140000A5
:0146150000A4
:0146160000A3
:0146170000A2
:0146180000A1
:0146190000A0
:01461A00009F
:01461B00009E
:01461C00009D
:01461D00009C
:01461E00009B
:01461F00009A
:014620000099
:014621000098
:014622000097
:014623000096
:014624000095
:014625000094
:014626000093
:014627000092
:014628000091
:014629000090
:01462A00008F
:01462B00008E
:01462C00008D
:01462D00008C
:01462E00008B
:01462F00008A
:014630000089
:014631000088
:014632000087
:014633000086
:014634000085
:014635000084
:014636000083
:014637000082
:014638000081
:014639000080
:01463A00007F
:01463B00007E
:01463C00007D
:01463D00007C
:01463E00007B
:01463F00007A
:014640000079
:014641000078
:014642000077
:014643000076
:014644000075
:014645000074
:014646000073
:014647000072
:014648000071
:014649000070
:01464A00006F
:01464B00006E
:01464C00006D
:01464D00006C
:01464E00006B
:01464F00006A
:014650000069
:014651000068
:014652000067
:014653000066
:014654000065
:014655000064
:014656000063
:014657000062
:014658000061
:014659000060
:01465A00005F
:01465B00005E
:01465C00005D
:01465D00005C
:01465E00005B
:01465F00005A
:014660000059
:014661000058
:014662000057
:014663000056
:014664000055
:014665000054
:014666000053
:014667000052
:014668000051
:014669000050
:01466A00004F
:01466B00004E
:01466C00004D
:01466D00004C
:01466E00004B
:01466F00004A
:014670000049
:014671000048
:014672000047
:014673000046
:014674000045
:014675000044
:014676000043
:014677000042
:014678000041
:014679000040
:01467A00003F
:01467B00003E
:01467C00003D
:01467D00003C
:01467E00003B
:01467F00003A
:014680000039
:014681000038
:014682000037
:014683000036
:014684000035
:014685000034
:014686000033
:014687000032
:014688000031
:014689000030
:01468A00002F
:01468B00002E
:01468C00002D
:01468D00002C
:01468E00002B
:01468F00002A
:014690000029
:014691000028
:014692000027
:014693000026
:014694000025
:014695000024
:014696000023
:014697000022
:014698000021
:014699000020
:01469A00001F
:01469B00001E
:01469C00001D
:01469D00001C
:01469E00001B
:01469F00001A
:0146A0000019
:0146A1000018
:0146A2000017
:0146A3000016
:0146A4000015
:0146A5000014
:0146A6000013
:0146A7000012
:0146A8000011
:0146A9000010
:0146AA00000F
:0146AB00000E
:0146AC00000D
:0146AD00000C
:0146AE00000B
:0146AF00000A
:0146B0000009
:0146B1000008
:0146B2000007
:0146B3000006
:0146B4000005
:0146B5000004
:0146B6000003
:0146B7000002
:0146B8000001
:0146B9000000
:0146BA0000FF
:0146BB0000FE
:0146BC0000FD
:0146BD0000FC
:0146BE0000FB
:0146BF0000FA
:0146C00000F9
:0146C10000F8
:0146C20000F7
:0146C30000F6
:0146C40000F5
:0146C50000F4
:0146C60000F3
:0146C70000F2
:0146C80000F1
:0146C90000F0
:0146CA0000EF
:0146CB0000EE
:0146CC0000ED
:0146CD0000EC
:0146CE0000EB
:0146CF0000EA
:0146D00000E9
:0146D10000E8
:0146D20000E7
:0146D30000E6
:0146D40000E5
:0146D50000E4
:0146D60000E3
:0146D70000E2
:0146D80000E1
:0146D90000E0
:0146DA0000DF
:0146DB0000DE
:0146DC0000DD
:0146DD0000DC
:0146DE0000DB
:0146DF0000DA
:0146E00000D9
:0146E10000D8
:0146E20000D7
:0146E30000D6
:0146E40000D5
:0146E50000D4
:0146E60000D3
:0146E70000D2
:0146E80000D1
:0146E90000D0
:0146EA0000CF
:0146EB0000CE
:0146EC0000CD
:0146ED0000CC
:0146EE0000CB
:0146EF0000CA
:0146F00000C9
:0146F10000C8
:0146F20000C7
:0146F30000C6
:0146F40000C5
:0146F50000C4
:0146F60000C3
:0146F70000C2
:0146F80000C1
:0146F90000C0
:0146FA0000BF
:0146FB0000BE
:0146FC0000BD
:0146FD0000BC
:0146FE0000BB
:0146FF0000BA
:0147000000B8
:0147010000B7
:0147020000B6
:0147030000B5
:0147040000B4
:0147050000B3
:0147060000B2
:0147070000B1
:0147080000B0
:0147090000AF
:01470A0000AE
:01470B0000AD
:01470C0000AC
:01470D0000AB
:01470E0000AA
:01470F0000A9
:0147100000A8
:0147110000A7
:0147120000A6
:0147130000A5
:0147140000A4
:0147150000A3
:0147160000A2
:0147170000A1
:0147180000A0
:01471900009F
:01471A00009E
:01471B00009D
:01471C00009C
:01471D00009B
:01471E00009A
:01471F000099
:014720000098
:014721000097
:014722000096
:014723000095
:014724000094
:014725000093
:014726000092
:014727000091
:014728000090
:01472900008F
:01472A00008E
:01472B00008D
:01472C00008C
:01472D00008B
:01472E00008A
:01472F000089
:014730000088
:014731000087
:014732000086
:014733000085
:014734000084
:014735000083
:014736000082
:014737000081
:014738000080
:01473900007F
:01473A00007E
:01473B00007D
:01473C00007C
:01473D00007B
:01473E00007A
:01473F000079
:014740000078
:014741000077
:014742000076
:014743000075
:014744000074
:014745000073
:014746000072
:014747000071
:014748000070
:01474900006F
:01474A00006E
:01474B00006D
:01474C00006C
:01474D00006B
:01474E00006A
:01474F000069
:014750000068
:014751000067
:014752000066
:014753000065
:014754000064
:014755000063
:014756000062
:014757000061
:014758000060
:01475900005F
:01475A00005E
:01475B00005D
:01475C00005C
:01475D00005B
:01475E00005A
:01475F000059
:014760000058
:014761000057
:014762000056
:014763000055
:014764000054
:014765000053
:014766000052
:014767000051
:014768000050
:01476900004F
:01476A00004E
:01476B00004D
:01476C00004C
:01476D00004B
:01476E00004A
:01476F000049
:014770000048
:014771000047
:014772000046
:014773000045
:014774000044
:014775000043
:014776000042
:014777000041
:014778000040
:01477900003F
:01477A00003E
:01477B00003D
:01477C00003C
:01477D00003B
:01477E00003A
:01477F000039
:014780000038
:014781000037
:014782000036
:014783000035
:014784000034
:014785000033
:014786000032
:014787000031
:014788000030
:01478900002F
:01478A00002E
:01478B00002D
:01478C00002C
:01478D00002B
:01478E00002A
:01478F000029
:014790000028
:014791000027
:014792000026
:014793000025
:014794000024
:014795000023
:014796000022
:014797000021
:014798000020
:01479900001F
:01479A00001E
:01479B00001D
:01479C00001C
:01479D00001B
:01479E00001A
:01479F000019
:0147A0000018
:0147A1000017
:0147A2000016
:0147A3000015
:0147A4000014
:0147A5000013
:0147A6000012
:0147A7000011
:0147A8000010
:0147A900000F
:0147AA00000E
:0147AB00000D
:0147AC00000C
:0147AD00000B
:0147AE00000A
:0147AF000009
:0147B0000008
:0147B1000007
:0147B2000006
:0147B3000005
:0147B4000004
:0147B5000003
:0147B6000002
:0147B7000001
:0147B8000000
:0147B90000FF
:0147BA0000FE
:0147BB0000FD
:0147BC0000FC
:0147BD0000FB
:0147BE0000FA
:0147BF0000F9
:0147C00000F8
:0147C10000F7
:0147C20000F6
:0147C30000F5
:0147C40000F4
:0147C50000F3
:0147C60000F2
:0147C70000F1
:0147C80000F0
:0147C90000EF
:0147CA0000EE
:0147CB0000ED
:0147CC0000EC
:0147CD0000EB
:0147CE0000EA
:0147CF0000E9
:0147D00000E8
:0147D10000E7
:0147D20000E6
:0147D30000E5
:0147D40000E4
:0147D50000E3
:0147D60000E2
:0147D70000E1
:0147D80000E0
:0147D90000DF
:0147DA0000DE
:0147DB0000DD
:0147DC0000DC
:0147DD0000DB
:0147DE0000DA
:0147DF0000D9
:0147E00000D8
:0147E10000D7
:0147E20000D6
:0147E30000D5
:0147E40000D4
:0147E50000D3
:0147E60000D2
:0147E70000D1
:0147E80000D0
:0147E90000CF
:0147EA0000CE
:0147EB0000CD
:0147EC0000CC
:0147ED0000CB
:0147EE0000CA
:0147EF0000C9
:0147F00000C8
:0147F10000C7
:0147F20000C6
:0147F30000C5
:0147F40000C4
:0147F50000C3
:0147F60000C2
:0147F70000C1
:0147F80000C0
:0147F90000BF
:0147FA0000BE
:0147FB0000BD
:0147FC0000BC
:0147FD0000BB
:0147FE0000BA
:0147FF0000B9
:0148000000B7
:0148010000B6
:0148020000B5
:0148030000B4
:0148040000B3
:0148050000B2
:0148060000B1
:0148070000B0
:0148080000AF
:0148090000AE
:01480A0000AD
:01480B0000AC
:01480C0000AB
:01480D0000AA
:01480E0000A9
:01480F0000A8
:0148100000A7
:0148110000A6
:0148120000A5
:0148130000A4
:0148140000A3
:0148150000A2
:0148160000A1
:0148170000A0
:01481800009F
:01481900009E
:01481A00009D
:01481B00009C
:01481C00009B
:01481D00009A
:01481E000099
:01481F000098
:014820000097
:014821000096
:014822000095
:014823000094
:014824000093
:014825000092
:014826000091
:014827000090
:01482800008F
:01482900008E
:01482A00008D
:01482B00008C
:01482C00008B
:01482D00008A
:01482E000089
:01482F000088
:014830000087
:014831000086
:014832000085
:014833000084
:014834000083
:014835000082
:014836000081
:014837000080
:01483800007F
:01483900007E
:01483A00007D
:01483B00007C
:01483C00007B
:01483D00007A
:01483E000079
:01483F000078
:014840000077
:014841000076
:014842000075
:014843000074
:014844000073
:014845000072
:014846000071
:014847000070
:01484800006F
:01484900006E
:01484A00006D
:01484B00006C
:01484C00006B
:01484D00006A
:01484E000069
:01484F000068
:014850000067
:014851000066
:014852000065
:014853000064
:014854000063
:014855000062
:014856000061
:014857000060
:01485800005F
:01485900005E
:01485A00005D
:01485B00005C
:01485C00005B
:01485D00005A
:01485E000059
:020000040030CA
:0E00000023285F3CFF5081FF0FC00FE00F4030
:00000001FF
